:020000040800F2
:10000000D0D900202D020008B92D00084126000893
:10001000B52D0008CB0400081530000800000000D2
:10002000000000000000000000000000C12D0008DA
:10003000F104000800000000BD2D0008C32D0008D9
:10004000470200084702000847020008470200086C
:1000500047020008BF2D0008F3040008470200080B
:100060004702000819050008230500084702000898
:10007000D104000847020008E10400084702000814
:10008000470200084702000847020008470200082C
:10009000470200084702000847020008470200081C
:1000A000470200084702000847020008470200080C
:1000B00047020008E12D0008F12D00084702000862
:1000C00047020008470200084702000847020008EC
:1000D00047020008470200084702000805300008F0
:1000E000FD04000847020008470200084702000814
:1000F00047020008112E00084702000847020008C6
:100100004702000847020008012E000847020008C5
:10011000470200084702000847020008470200089B
:10012000470200084702000847020008470200088B
:10013000470200084702000847020008470200087B
:10014000470200084702000847020008470200086B
:10015000470200084702000847020008470200085B
:10016000470200084702000847020008470200084B
:10017000470200084702000847020008000000008C
:10018000470200084702000800F002F800F03EF8BD
:100190000AA090E8000C82448344AAF10107DA45E2
:1001A00001D100F033F8AFF2090EBAE80F0013F0F6
:1001B000010F18BFFB1A43F001031847B86C000089
:1001C000D86C0000103A24BF78C878C1FAD852071A
:1001D00024BF30C830C144BF04680C6070470000C1
:1001E0000023002400250026103A28BF78C1FBD840
:1001F000520728BF30C148BF0B6070471FB506F0DB
:1002000006FE00F007F91FBD10B510BD00F028F97B
:100210001146FFF7F3FF05F0F7FF00F046F903B4CE
:10022000FFF7F2FF03BC00F049F9000009488047DE
:1002300009480047FEE7FEE7FEE7FEE7FEE7FEE7C8
:10024000FEE7FEE7FEE7FEE704480549054A064BE0
:1002500070470000CD2D000889010008D0D3002090
:10026000D0D90020D0D50020D0D5002053EA020CF0
:1002700000F069802DE9F04B4FF00006002B1FBF06
:10028000B3FA83F503FA05F424FA05F65E4012BFCB
:100290001643B2FA82F502FA05F4C5F120051EBF35
:1002A00022FA05FC44EA0C04203556EA044C4FEAD5
:1002B000144418BF641C4FF000084FF0000990422E
:1002C00071EB030C39D3002919BFB1FA81F701FA98
:1002D00007F6B0FA80F700FA07F6C7F120071EBF4D
:1002E00020FA07FC46EA0C062037B6FBF4FCA7EB25
:1002F0000507103F07F01F0BCBF120060CFA0BFB94
:100300002CFA06F644BFB3460026202FA4BF5E4653
:100310004FF0000B5BEA060C08BF4FF0010B19EB26
:100320000B09ABFB027C48EB0608C01B06FB02CCAA
:100330000BFB03CC71EB0C01C1E70B4602464146B7
:100340004846BDE8F08B13B54FF000004FF00001B8
:10035000AFF30080BDE81C40704710B5203AC0F0F4
:100360000B80B1E81850203AA0E81850B1E81850B6
:10037000A0E81850BFF4F5AF5FEA027C24BFB1E8F3
:100380001850A0E8185044BF18C918C0BDE8104064
:100390005FEA827C24BF51F8043B40F8043B08BF6D
:1003A0007047D20728BF31F8023B48BF11F8012B34
:1003B00028BF20F8023B48BF00F8012B70474FF0E0
:1003C000000200B5134694469646203922BFA0E8A5
:1003D0000C50A0E80C50B1F12001BFF4F7AF0907B1
:1003E00028BFA0E80C5048BF0CC05DF804EB8900A2
:1003F00028BF40F8042B08BF704748BF20F8022BE5
:1004000011F0804F18BF00F8012B704770477047FC
:100410007047000070B5064C7C44064D7D4403E0F7
:10042000206820448047241DAC42F9D170BD0000F3
:10043000786A00007C6A000010B500F009F80068D6
:1004400010BD10B5044600F003F8046010BD0000B4
:10045000004870476CD30020004870476CD30020E0
:100460007546FFF7F9FFAE4605006946534620F092
:100470000700854618B020B5FFF7E6FEBDE820402E
:100480004FF000064FF000074FF000084FF0000B50
:1004900021F00701AC46ACE8C009ACE8C009ACE803
:1004A000C009ACE8C0098D46704710B50446AFF3EB
:1004B00000802046BDE81040FFF7B1BE014918207A
:1004C000ABBEFEE726000200704700BFFEE700005B
:1004D00010B5024800F098F810BD00003C0A00205A
:1004E00010B5024800F090F810BD00009C0A0020F2
:1004F000704710B5012000F047FA10BD10B54FF459
:10050000005000F041FA4FF4804000F03DFA4FF403
:10051000004000F039FA10BD10B5082000F034FAA0
:1005200010BD10B5102000F02FFA10BD72B600BF3C
:10053000FEE770B50446A56D00F03CFB064694F856
:100540003500022808D08020606500BF002084F8B4
:10055000340000BF012070BD2068006820F0160044
:10056000216808602068406920F0800021684861A7
:10057000206C08B9A06C28B12068006820F0080041
:10058000216808602068006820F001002168086088
:1005900010E000F00FFB801B05280BD920206065C0
:1005A000032084F8350000BF002084F8340000BF29
:1005B0000320D0E72068006800F001000028E8D19F
:1005C00094F85C103F208840A860012084F8350032
:1005D00000BF002084F8340000BF00BFBBE7014625
:1005E00091F83500022803D080204865012070472B
:1005F000052081F835000868006820F001000A68CD
:1006000010600020F3E70000F8B5044600200090D9
:100610008C4800684FF41651B0FBF1F7A56D2E68B9
:1006200094F85C1008208840304098B12068006839
:1006300000F0040070B12068006820F00400216818
:10064000086094F85C1008208840A860606D40F055
:100650000100606594F85C1001208840304068B16A
:100660002068406900F0800040B194F85C100120DF
:100670008840A860606D40F00200606594F85C10EE
:1006800004208840304068B12068006800F0020013
:1006900040B194F85C1004208840A860606D40F080
:1006A0000400606594F85C1010208840304078B3F6
:1006B0002068006800F0080050B394F85C10102027
:1006C0008840A8602068006800F4802080B120681D
:1006D000006800F4002028B9206CC8B12046216CC5
:1006E000884715E0A06C98B12046A16C88470FE0C0
:1006F0002068006800F4807028B92068006820F045
:10070000080021680860206C10B12046216C8847E1
:1007100094F85C10202088403040002865D0206884
:10072000006800F0100000285FD094F85C102020D2
:100730008840A86094F83500052828D12068006812
:1007400020F01600216808602068406920F08000D1
:1007500021684861206C08B9A06C28B12068006845
:1007600020F008002168086094F85C103F20884061
:10077000A860012084F8350000BF002084F8340010
:1007800000BF206D10B12046216D8847F8BD20685C
:10079000006800F4802080B12068006800F4002028
:1007A00028B9606C10B12046616C88471DE0E06B91
:1007B000D8B12046E16B884717E02068006800F454
:1007C000807068B92068006820F010002168086017
:1007D000012084F8350000BF002084F8340000BFF9
:1007E000E06B10B12046E16B8847606D38B3606DF7
:1007F00000F00100F0B1052084F8350020680068A1
:1008000020F001002168086000BF0098401C0090A3
:10081000B84200D905E02068006800F00100002817
:10082000F3D100BF012084F8350000BF002084F818
:10083000340000BFE06C10B12046E16C884700BF77
:10084000A4E70000100000202DE9F0410446002537
:1008500000F0B0F9074614B90120BDE8F081606AE4
:1008600000B100BF022084F8350000BF002084F8EA
:10087000340000BF2068006820F001002168086093
:100880000AE000F097F9C01B052805D92020606513
:10089000032084F83500E0E72068006800F00100DC
:1008A0000028EED12068056821480540D4E90101FF
:1008B0000843E16808432169084361690843A16965
:1008C0000843E1690843216A08430543606A042834
:1008D00003D1D4E90B010843054320680560206873
:1008E000456925F00705606A0543606A04280DD153
:1008F000A06A0543E06A48B1204604F0E9FC28B14B
:1009000040206065012084F83500A6E72068456135
:10091000204604F033FD064694F85C103F208840E2
:10092000B06000206065012084F83500002094E765
:100930003F8010F070B5044600F03CF906462546AD
:10094000681C10B104480078054400BF00F032F97B
:10095000801BA842FAD370BD0C00002010B50446DD
:10096000204603F09FFD082C06D0B4F5005F03D0AD
:10097000102C01D0012C03D12146024803F0E6FEE1
:1009800010BD0000A800002010B50446044800680F
:10099000204020B1024804602046FFF7DFFF10BD71
:1009A000143C0140F8B502460B4600250024002007
:1009B0000021D6E0012606FA01F51E6806EA0504C4
:1009C000AC4274D11E7906F00306012E04D01E79C4
:1009D00006F00306022E13D190684F000326BE4096
:1009E000B0434F00DE68BE4030439060506801263F
:1009F0008E40B0431E79C6F300168E4030435060DF
:100A00001E7906F00306032E09D0D0684F00032696
:100A1000BE40B0434F009E68BE403043D0601E7958
:100A200006F00306022E13D1CF0802F1200656F875
:100A300027004E07F70E0F26BE40B0434F07FF0EAC
:100A40001E69BE403043CF0802F1200646F8270059
:100A500010684F000326BE40B0431E7906F003061F
:100A60004F00BE40304310605E6806F44036002EF2
:100A700076D000BF002600963C4E366846F480468D
:100A80003A4F3E603E46366806F48046009600BF08
:100A900000BF374E8F0856F827008E07370F0F26F6
:100AA000BE40B043334EB24202D1002624E057E0AC
:100AB000314EB24201D101261EE0304EB24201D188
:100AC000022619E02E4EB24201D1032614E02D4E2B
:100AD000B24201D104260FE02B4EB24201D10526CD
:100AE0000AE02A4EB24201D1062605E0284EB24263
:100AF00001D1072600E008268F073F0FBE40304394
:100B00001B4E8F0846F82700224E3068A0435E68CF
:100B100006F4801606B120431E4E3060361D306844
:100B2000A0435E6806F4001606B12043194E361D38
:100B30003060184E361F3068A0435E6806F40036F9
:100B400006B12043134E361F3060361F3068A04375
:100B50005E6806F4803606B120430E4E083E3060D3
:100B6000491C1029FFF426AFF8BD000044380240AC
:100B70000838014000000240000402400008024022
:100B8000000C024000100240001402400018024015
:100B9000001C0240083C0140024613690B400BB1A7
:100BA000012000E0002070470AB1816101E00B04E0
:100BB000836170470148006870470000040000200E
:100BC00003480068034909780844014908607047F0
:100BD000040000200C00002010B50D48006840F40F
:100BE00000700B4908600846006840F480600860A7
:100BF0000846006840F480700860032000F0AEF8FA
:100C00000F2000F007F800F02BF8002010BD0000C6
:100C1000003C024070B504460E4800784FF47A71EB
:100C2000B1FBF0F00C490968B1FBF0F5284600F083
:100C300037FC08B1012070BD102C07D200222146DC
:100C4000501E00F04DF80548046001E00120F2E775
:100C50000020F0E70C000020100000200800002019
:100C600008B500BF002000901248006840F48040A2
:100C7000104908600846006800F48040009000BFFA
:100C800000BF00BF00200090081F006840F08050A7
:100C9000091F08600846006800F08050009000BFFF
:100CA00000BF00221146052000F01AF8052000F0D0
:100CB00003F808BD443802400146084600280DDB11
:100CC00000BF00BF00F01F0301229A4043099B00B0
:100CD00003F1E023C3F8002100BF00BF00BF70474D
:100CE0002DE9F05F80460D461646002704F09CFE75
:100CF000074639462A46334601F00700C0F1070A85
:100D0000BAF1040F02D94FF0040A01E0C0F1070A5A
:100D1000D14600F1040ABAF1070F02D24FF0000ADF
:100D200001E0A0F1030AD4464FF0010A0AFA09FAD9
:100D3000AAF1010A0AEA020A0AFA0CFA4FF0010BB8
:100D40000BFA0CFBABF1010B0BEA030B4AEA0B04A9
:100D50002146404604F054FEBDE8F09F00BF00F07D
:100D60000702064B19684FF6FF031940044B0B436B
:100D700043EA0221014B196000BF70470CED00E00F
:100D80000000FA0570B504460D460CB9012070BD8F
:100D90005848006800F00700A84209D255490D7074
:100DA0000846006800F00700A84201D00120EEE7E5
:100DB000207800F0020002281DD1207800F0040005
:100DC000042805D14C48006840F4E0504A490860C6
:100DD000207800F00800082805D14748006840F452
:100DE0006040454908604448006820F0F000A16870
:100DF000084341490860207800F00100A8B360680A
:100E0000012807D13C4808380068C0F34040B8B911
:100E10000120BCE76068022802D06068032807D17F
:100E2000354808380068C0F3406048B90120AEE793
:100E3000314808380068C0F3400008B90120A6E72F
:100E40002D48006820F00300616808432A490860C3
:100E5000FFF7B0FE064609E0FFF7ACFE801B41F24B
:100E60008831884202D9032091E707E022480068D0
:100E700000F00C006168B0EB810FEDD11D480068F7
:100E800000F00700A84209D91A490D700846006809
:100E900000F00700A84201D0012078E7207800F098
:100EA0000400042807D11448006820F4E050E168E9
:100EB000084311490860207800F00800082808D18C
:100EC0000D48006820F46040216940EAC1000A49E9
:100ED000086000F03FF808490968C1F30311074AA8
:100EE000515CC8400649086006480068FFF792FE5A
:100EF00000204CE7003C0240083802403C6E0008ED
:100F00001000002008000020014800687047000021
:100F10001000002000B5FFF7F7FF04490968C1F38E
:100F20008221034A515CC84000BD000008380240DD
:100F30004C6E000800B5FFF7E7FF04490968C1F3EC
:100F40004231034A515CC84000BD000008380240ED
:100F50004C6E00082DE9F047002400250026A1462C
:100F60002548006800F00C0020B1042805D00828AE
:100F70003AD105E0DFF8849039E0DFF8849036E07C
:100F80001D48001F006800F03F041B48001F006858
:100F900000F4800078B11A481749091F0968C1F3A5
:100FA0008811A0FB01700146224600233846FFF756
:100FB0005DF905460EE011480F49091F0968C1F3A4
:100FC0008811A0FB01700146224600233846FFF736
:100FD0004DF905460848001F0068C0F30140401C59
:100FE0004600B5FBF6F902E0DFF8109000BF00BF45
:100FF0004846BDE8F0870000083802400024F400AD
:1010000040787D01F8B504460CB90120F8BD207880
:1010100000F00100002874D0F948006800F00C00CE
:1010200004280DD0F648006800F00C00082813D101
:10103000F348001F006800F48000B0F5800F0BD16A
:10104000EF4808380068C0F34040002859D0606875
:10105000002856D10120D9E700BF6068B0F5803F75
:1010600008D1E7480838006840F48030E44908397E
:1010700008601EE06068B0F5A02F0DD1E048083888
:10108000006840F48020DE4908390860084600689E
:1010900040F4803008600CE0D9480838006820F43B
:1010A0008030D749083908600846006820F480205D
:1010B000086000BF606890B1FFF77CFD054606E060
:1010C000FFF778FD401B642801D903209EE7CC4838
:1010D00008380068C0F340400028F1D011E0FFF765
:1010E00069FD054606E0FFF765FD401B642801D950
:1010F00003208BE7C24808380068C0F3404000284E
:10110000F1D1207800F0020002285FD1BC480068CD
:1011100000F00C0058B1BA48006800F00C00082834
:101120001CD1B748001F006800F48000B0B9B44873
:1011300008380068C0F3400020B1E068012801D001
:10114000012063E7AE480838006820F0F800216904
:1011500040EAC100AA490839086037E0E06800B3F6
:101160000120A8490860FFF725FD054606E0FFF7C6
:1011700021FD401B022801D9032047E7A048083879
:101180000068C0F340000028F1D09D48083800688E
:1011900020F0F800216940EAC10099490839086047
:1011A00014E0002097490860FFF704FD054606E0BB
:1011B000FFF700FD401B022801D9032026E79048D5
:1011C00008380068C0F340000028F1D1207800F012
:1011D000080008282CD16069A8B101208A4908605C
:1011E000FFF7E8FC054606E0FFF7E4FC401B022899
:1011F00001D903200AE782486C300068C0F3400040
:101200000028F1D014E000207F490860FFF7D2FCED
:10121000054606E0FFF7CEFC401B022801D903205B
:10122000F4E677486C300068C0F340000028F1D144
:10123000207800F00400042870D10027704838306E
:10124000006800F0805090B900BF002000906C480A
:101250003830006840F080506949383108600846ED
:10126000006800F08050009000BF00BF0127674871
:10127000006800F48070B0B96448006840F4807081
:1012800062490860FFF796FC054606E0FFF792FC0E
:10129000401B022801D90320B8E65C48006800F42E
:1012A00080700028F2D000BFA068012808D15448FF
:1012B0006830006840F001005149683108601DE065
:1012C000A06805280DD14E486830006840F0040041
:1012D0004B49683108600846006840F0010008602A
:1012E0000CE047486830006820F00100444968314C
:1012F00008600846006820F00400086000BFA0688D
:10130000A8B1FFF757FC054609E0FFF753FC401B67
:1013100041F28831884202D9032077E626E0384836
:1013200068300068C0F340000028EED013E0FFF7FB
:1013300041FC054608E0FFF73DFC401B41F28831C7
:10134000884201D9032061E62D4868300068C0F367
:1013500040000028EFD1012F07D12948383000681C
:1013600020F0805026493831086000BFA06900286D
:1013700045D02348006800F00C0008285DD0A06923
:10138000022845D100201F490866FFF713FC0546D7
:1013900006E0FFF70FFC401B022801D9032035E6C9
:1013A000174808380068C0F340600028F1D1D4E93C
:1013B00007010843616A40EA81110122A06AC2EB79
:1013C000500041EA00412C20005D41EA00600C49D8
:1013D000091F086001200B490866FFF7EBFB054673
:1013E00006E0FFF7E7FB401B022801D903200DE6CA
:1013F000034808380068C0F340600028F1D049E095
:101400000838024000004742800E4742007000400A
:10141000002021490866FFF7CDFB054606E0FFF7EF
:10142000C9FB401B022801D90320EFE51B480068D7
:10143000C0F340600028F2D12CE0A069012800D15F
:10144000E4E51648001D0668A069012820D006F4CE
:101450008001E06981421BD106F03F01206A814290
:1014600016D147F6C0703040616AB0EB811F0FD1D2
:1014700006F440310122A06AC2EB5000B1EB004FEC
:1014800006D106F070612C20005DB1EB006F01D039
:101490000120BBE50020B9E50000474200380240CA
:1014A00070B504462546681EB0F1807F01D3012047
:1014B0000FE0681E4FF0E02148610F214FF0FF3030
:1014C00004F09EFA00204FF0E021886107200861B7
:1014D000002070BD7047704710B50346002200BF62
:1014E00093F83C00012801D1022010BD012083F8AF
:1014F0003C0000BF22F0FF00CC6840EA040222F466
:1015000040708C6840EA040222F480604C6840EA33
:10151000040222F400600C6840EA040222F48050C5
:101520000C6940EA040222F400504C6940EA0402CB
:1015300022F48040CC6940EA04021868426400BF8B
:10154000002083F83C0000BF00BFCEE730B5024664
:101550000B4600BF92F83C00012801D1022030BDAB
:10156000012082F83C0000BF022082F83D00106894
:1015700044681068816824F0700418680443106897
:101580004460184D1068A8421BD01068B0F1804F1D
:1015900017D0154D1068A84213D0144D1068A842FA
:1015A0000FD0134D1068A8420BD0124D1068A842FE
:1015B00007D0114D1068A84203D0104D1068A84202
:1015C00005D121F080015868014310688160012035
:1015D00082F83D0000BF002082F83C0000BF00BF41
:1015E000BDE700000000014000040040000800408A
:1015F000000C004000040140004001400018004081
:1016000010B504460CB9012010BD94F83D0028B96E
:10161000002084F83C00204600F026F8022084F8E0
:101620003D00211D206801F0FFFB012084F84600E9
:1016300000BF84F83E0001213F20015540200155A4
:101640004120015500BF00BF012084F84200432023
:101650000155442001554520015500BF012084F863
:101660003D000020D0E7000038B50446404920681E
:10167000884218D100BF002000903E48006840F02A
:1016800004003C4908600846006800F0040000902F
:1016900000BF00BF002211461E20FFF721FB1E20C5
:1016A000FFF70AFB62E034492068884218D100BF86
:1016B000002000902F48006840F008002D49086085
:1016C0000846006800F00800009000BF00BF00223C
:1016D00011463220FFF704FB3220FFF7EDFA45E018
:1016E00026492068884211D100BF0020009021487F
:1016F000001D006840F480201E49091D086008464E
:10170000006800F48020009000BF2FE01C49206892
:1017100088420FD100BF002000901648006840F0BA
:101720008000144908600846006800F080000090BE
:1017300000BF1BE013492068884217D100BF00207A
:1017400000900C48006840F480700A490860084620
:10175000006800F48070009000BF00BF00221146B6
:101760002D20FFF7BDFA2D20FFF7A6FA38BD0000A7
:101770000008004040380240000C00400048014092
:10178000001C004000200040014691F83D00012867
:1017900001D001207047022081F83D000868C06830
:1017A00040F001000B68D8601A4B086898421BD0C3
:1017B0000868B0F1804F17D0174B0868984213D0D3
:1017C000164B086898420FD0154B086898420BD00A
:1017D000144B0868984207D0134B0868984203D00E
:1017E000124B086898420CD10868806800F0070224
:1017F000062A0CD00868006840F001000B681860E9
:1018000005E00868006840F001000B6818600020DF
:10181000C0E7000000000140000400400008004054
:10182000000C00400004014000400140001800404E
:101830002DE9F04104460D46002700BF94F83C0016
:10184000012802D10220BDE8F081012084F83C008B
:1018500000BF022084F83D002068866826F07706E5
:1018600026F47F46206886602868502833D00CDC38
:10187000202850D004DC00284BD0102851D149E05A
:10188000302849D040284CD139E060282DD070282C
:1018900007D0B0F5805F03D0B0F5005F41D10DE017
:1018A00041E0D5E902136A68206801F042FB206834
:1018B000866846F077062068866034E0D5E9021332
:1018C0006A68206801F035FB2068806840F4804039
:1018D0002168886027E0EA686968206803F00FFEE5
:1018E0005021206803F002FE1DE0EA686968206864
:1018F00003F018FE6021206803F0F8FD13E0EA68A9
:101900006968206803F0FBFD4021206803F0EEFDCC
:1019100009E000BF00BF00BF2968206803F0E6FDB2
:1019200001E0012700BF00BF012084F83D0000BF97
:10193000002084F83C0000BF384684E7704770B54B
:1019400004462068C5682068066906F0020002287F
:1019500019D105F00200022815D1401F2168086145
:10196000012020772068806900F0030018B120462C
:10197000FFF7E4FF05E0204600F07CF9204600F088
:1019800073FA0020207706F00400042819D105F02E
:101990000400042815D1C043216808610220207783
:1019A0002068806900F4407018B12046FFF7C6FF38
:1019B00005E0204600F05EF9204600F055FA0020D0
:1019C000207706F00800082819D105F0080008283B
:1019D00015D1C04321680861042020772068C069C0
:1019E00000F0030018B12046FFF7A8FF05E02046ED
:1019F00000F040F9204600F037FA0020207706F08A
:101A00001000102819D105F01000102815D1C0437E
:101A100021680861082020772068C06900F44070C0
:101A200018B12046FFF78AFF05E0204600F022F9B2
:101A3000204600F019FA0020207706F0010048B196
:101A400005F0010030B16FF0010021680861204607
:101A500000F092FA06F08000802809D105F080009D
:101A6000802805D1C043216808612046FFF732FD78
:101A700006F04000402809D105F04000402805D17B
:101A8000C04321680861204600F086FA06F0200075
:101A9000202809D105F02000202805D1C043216865
:101AA00008612046FFF717FD70BD000010B586B035
:101AB0000446142101A8FEF782FC6349206888428D
:101AC00039D100BF002000906048006840F001005C
:101AD0005E4908600846006800F00100009000BF01
:101AE00000BF00BF002000900846006840F00200E0
:101AF00008600846006800F00200009000BF00BFC8
:101B0000C020019002200290002003900490022047
:101B1000059001A94E48FEF745FF032001900220E1
:101B200002900020039004900220059001A94948EA
:101B3000FEF738FF86E04849206888421DD100BF83
:101B4000002000904148006840F008003F490860CC
:101B50000846006800F00800009000BF00BF88142D
:101B60000190022002900020039004900220059032
:101B700001A93A48FEF716FF64E039492068884217
:101B80001DD100BF002000903048006840F00400E4
:101B90002E4908600846006800F00400009000BF6D
:101BA00000BFC0200190022002900020039004900A
:101BB0000320059001A92B48FEF7F4FE42E02A49D4
:101BC000206888421DD100BF002000901F48006897
:101BD00040F020001D4908600846006800F0200021
:101BE000009000BF00BF80200190022002900020E2
:101BF000039004900320059001A91C48FEF7D2FE33
:101C000020E01B49206888421CD100BF00200090C2
:101C10000E48006840F020000C4908600846006843
:101C200000F02000009000BF00BF88150190022046
:101C300002900020039004900920059001A90B4810
:101C4000FEF7B0FE06B010BD000400403038024080
:101C5000000002400004024000080040000C024066
:101C60000004014000080240004801400014024006
:101C7000001C004070472DE9F04104460D46164611
:101C8000002700BF94F83C00012802D10220BDE8E3
:101C9000F081012084F83C0000BF36B1042E1BD037
:101CA000082E31D00C2E5ED145E02946206803F085
:101CB0007FFB2068806940F0080021688861206807
:101CC000806920F0040021688861206880692969A2
:101CD00008432168886148E02946206801F034F90A
:101CE0002068806940F4006021688861206880690C
:101CF00020F480602168886120688069296940EA51
:101D000001202168886130E02946206803F088FBC3
:101D10002068C06940F008002168C8612068C06977
:101D200020F004002168C8612068C069296908435F
:101D30002168C86119E02946206803F0ADFB2068DE
:101D4000C06940F400602168C8612068C06920F45F
:101D500080602168C8612068C069296940EA012063
:101D60002168C86101E0012700BF00BF00BF00205B
:101D700084F83C0000BF384689E710B504460CB92A
:101D8000012010BD94F83D0028B9002084F83C00E3
:101D9000204600F025F8022084F83D00211D20682F
:101DA00001F042F8012084F8460000BF84F83E00AC
:101DB00001213F200155402001554120015500BF20
:101DC00000BF012084F84200432001554420015502
:101DD0004520015500BF012084F83D000020D0E7D8
:101DE00038B504461D492068884218D100BF00203C
:101DF00000901B48006840F002001949086008463E
:101E0000006800F00200009000BF00BF00221146F1
:101E10001D20FEF765FF1D20FEF74EFF1DE0114956
:101E20002068884219D100BF002000900C48001D96
:101E3000006840F002000A49091D08600846006871
:101E400000F00200009000BF00BF002211462D20CC
:101E5000FEF746FF2D20FEF72FFF38BD000400409F
:101E600040380240000401407047000070B504464D
:101E70000D4615B994F83E000BE0042D02D13F2029
:101E8000005D06E0082D02D14020005D01E0412008
:101E9000005D012801D0012070BD1DB9022084F829
:101EA0003E000EE0042D03D102213F20015508E041
:101EB000082D03D102214020015502E002214120DA
:101EC000015501222946206801F022F823492068A3
:101ED000884203D022492068884201D1012000E0D5
:101EE000002028B12068406C40F40040216848641C
:101EF0001A49206888421BD02068B0F1804F17D063
:101F000018492068884213D01749206888420FD0AA
:101F10001649206888420BD011492068884207D0B2
:101F200013492068884203D01249206888420CD1A6
:101F30002068806800F00706062E0CD02068006834
:101F400040F001002168086005E02068006840F06A
:101F500001002168086000209EE7000000000140A9
:101F6000000401400004004000080040000C004054
:101F7000004001400018004010B50446204601F022
:101F80002FFA0348844202D1024802F0FFFB10BD41
:101F9000FC070020A8000020704770477047000031
:101FA0002DE9F84F0446206805682068C668206857
:101FB00047694FF00009CA4605F00F09B9F1000F53
:101FC0000AD105F0200038B106F0200020B12046EB
:101FD00003F0D2FBBDE8F88FB9F1000F7CD007F019
:101FE000010018B906F49070002875D005F00100C2
:101FF00030B106F4807018B1606C40F0010060648C
:1020000005F0040030B107F0010018B1606C40F039
:102010000200606405F0020030B107F0010018B161
:10202000606C40F00400606405F0080048B106F000
:10203000200010B907F0010018B1606C40F00800F2
:102040006064606C002846D005F0200028B106F0DE
:10205000200010B1204603F08FFB20684069C0F3D8
:10206000801A606C00F0080010B9BAF1000F2DD092
:10207000204603F02FFC2068406900F04000402813
:1020800020D100BF00BF2168143151E8001F21F0AA
:1020900040002168143141E80002002AF3D100BF5A
:1020A000E06B50B17748E16B0865E06BFEF797FA9B
:1020B00088B1E06B016D88470DE02046FFF76EFFA9
:1020C00009E009E02046FFF769FF04E02046FFF73A
:1020D00065FF002060647DE7206B012878D105F062
:1020E0001000002874D006F010000028FAD000BFBD
:1020F00000200090206800680090206840680090F0
:1021000000BF00BF2068406900F04000402860D157
:10211000E06B006840681FFA80F8B8F1000F56D0F5
:10212000A08D404553DDA4F82E80E06BC069B0F56A
:10213000807F43D000BF00BF21680C3151E8001FF1
:1021400021F4807021680C3141E80002002AF3D1AB
:1021500000BF00BF00BF2168143151E8001F21F00B
:1021600001002168143141E80002002AF3D100BFC8
:1021700000BF00BF2168143151E8001F21F040006A
:102180002168143141E80002002AF3D100BF202069
:1021900084F842000020206300BF00BF21680C319A
:1021A00051E8001F21F0100021680C3141E80002C5
:1021B000002AF3D100BFE06BFEF7BBF90220606399
:1021C000A08DE28D801A81B22046FFF7E6FE01E77E
:1021D00042E0A08DE18D401A1FFA80F8E08DD0B367
:1021E000B8F1000F37D000BF00BF21680C3151E8B3
:1021F000001F21F4907021680C3141E80002002A90
:10220000F3D100BF00BF00BF2168143151E8001FA7
:1022100021F001002168143141E80002002AF3D1C5
:1022200000BF202084F842000020206300BF00BFD0
:1022300021680C3151E8001F21F0100021680C3199
:1022400041E80002002AF3D100BF0220606341464A
:102250002046FFF7A2FEBDE605F0800030B106F093
:10226000800018B1204603F005FBB3E605F04000FE
:1022700030B106F0400018B1204603F061FBA9E63A
:1022800000BFA7E66159000810B504460CB901204B
:1022900010BDA06900B100E000BF94F8410028B96A
:1022A000002084F84000204600F02AF8242084F81A
:1022B00041002068C06820F400502168C8602046B2
:1022C00003F044F92068006920F490402168086117
:1022D0002068406920F02A00216848612068C068B1
:1022E00040F400502168C86000206064202084F819
:1022F000410084F842000020606300BFC8E700008E
:1023000010B586B00446142101A8FEF758F881499B
:10231000206888424DD100BF002000907E480068B0
:1023200040F480107C4908600846006800F4801082
:10233000009000BF00BF00BF00200090764810381A
:10234000006840F0040074491039086008460068CD
:1023500000F00400009000BF00BF00BF002000900C
:102360000846006840F0080008600846006800F071
:102370000800009000BF00BF881401900220029066
:1023800000200390032004900820059001A96348D1
:10239000FEF708FB04200190022002900020039029
:1023A000032004900820059001A95D48FEF7FAFA81
:1023B000ADE05C492068884230D100BF0020009029
:1023C0005548006840F400305349086008460068EA
:1023D00000F40030009000BF00BF00BF002000905C
:1023E0004D481038006840F001004B491039086032
:1023F0000846006800F00100009000BF00BF0C20FC
:1024000001900220029000200390032004900720F6
:10241000059001A94448FEF7C5FA78E043492068D1
:10242000884274D100BF002000903B48006840F40F
:102430008020394908600846006800F48020009038
:1024400000BF00BF00BF0020009033481038006874
:1024500040F002003049103908600846006800F07A
:102460000200009000BF00BF4FF4406001900220C6
:10247000029000200390032004900720059001A9FA
:102480002B48FEF78FFA2B482B4908604FF000606D
:102490004860002128488160C1604FF4806101617B
:1024A000002141618161C16101624162FEF7CCF9A5
:1024B00008B1FEF73BF800BF1F48E063846300BF2C
:1024C0001C4830301D4908604FF0006048604021D2
:1024D0001A4881600021C1604FF4806101610021D0
:1024E00041618161C16101624162FEF7ADF908B1EC
:1024F000FEF71CF800BF1148A063846300BF0022F0
:1025000001212720FEF7ECFB2720FEF7D5FB06B0C4
:1025100010BD00000050004040380240000802405A
:10252000000C02400044004000000240004800400F
:1025300000040240286002403C0A00209C0A00205F
:1025400070B504460D46164694F8420020280BD17B
:1025500005B10EB9012070BD002020633246294626
:10256000204600F02FFDF6E70220F4E710B5044600
:102570000248844201D101F061F910BDF409002044
:102580002DE9F84F04460E46174699464FF0000ACB
:1025900094F84100202850D106B117B90120BDE8B8
:1025A000F88F00206064212084F84100FEF702FBD0
:1025B0008246A784E784A068B0F5805F04D12069D3
:1025C00010B90025B04602E035464FF000081EE085
:1025D0005346002280212046CDF8009003F0CAF92E
:1025E00020B1202084F841000320D8E745B9B8F88D
:1025F0000000C0F308002168486008F1020803E009
:102600002878216848606D1CE08C401EE084E08CD6
:102610000028DDD15346002240212046CDF800900D
:1026200003F0A8F920B1202084F841000320B6E788
:10263000202084F841000020B1E70220AFE7704776
:1026400000BFFEE708B500BF002000900E480068FC
:1026500040F400100C4908600846006800F40010BF
:10266000009000BF00BF002211460C20FEF738FB8F
:102670000C20FEF721FB002211460E20FEF730FB56
:102680000E20FEF719FB08BD3038024000B587B0B8
:10269000142102A8FDF793FE00BF00200190B1486D
:1026A000006840F01000AF4908600846006800F07C
:1026B0001000019000BF00BF00BF0020019008463D
:1026C000006840F0040008600846006800F004005C
:1026D000019000BF00BF00BF0020019008460068C5
:1026E00040F0200008600846006800F020000190DB
:1026F00000BF00BF00BF002001900846006840F006
:10270000800008600846006800F08000019000BF6B
:1027100000BF00BF002001900846006840F00100A3
:1027200008600846006800F00100019000BF00BF8B
:1027300000BF002001900846006840F002000860D9
:102740000846006800F00200019000BF00BF00BF13
:10275000002001900846006840F0400008600846EC
:10276000006800F04000019000BF00BF00BF0020E3
:1027700001900846006840F00800086008460068BC
:1027800000F00800019000BF00BF00223C21764805
:10279000FEF70AFA01224FF428417448FEF704FAC2
:1027A00000224FF480417148FEF7FEF9002241F605
:1027B00001616F48FEF7F8F900224FF440716D484F
:1027C000FEF7F2F90022C0216B48FEF7EDF9012275
:1027D0004FF420416648FEF7E7F900224FF4F0710C
:1027E0006648FEF7E1F93C200290012003900020AA
:1027F0000490059002A95C48FEF7D4F842200290AC
:10280000002003900220049002A95748FEF7CAF85E
:102810004FF4005002904FF4881003900020049071
:1028200002A95448FEF7BEF804200290002003904D
:102830000220049002A94D48FEF7B4F80820029047
:102840004FF4881003900020049002A94748FEF737
:10285000A9F84FF4684002900120039000200490F2
:10286000059002A94148FEF79DF84BF601600290E1
:102870000120039000200490059002A93C48FEF737
:1028800091F84FF4404002904FF4881003900220DA
:10289000049002A93948FEF785F84FF44070029081
:1028A0000120039000200490059002A93148FEF712
:1028B00079F8C02002900120039000200490059038
:1028C00002A92D48FEF76EF8082002900020039020
:1028D0000220049002A92948FEF764F81020029013
:1028E0004FF4881003900020049002A92348FEF7BB
:1028F00059F84FF4F07002900120039000200490EA
:10290000059002A91D48FEF74DF8012002904FF4F2
:10291000881003900020049002A91348FEF742F8A3
:10292000002211460620FEF7DBF90620FEF7C4F967
:10293000002211460920FEF7D3F90920FEF7BCF961
:10294000002211460A20FEF7CBF90A20FEF7B4F95F
:10295000002211462820FEF7C3F92820FEF7ACF923
:1029600007B000BD303802400010024000140240A1
:102970000018024000080240000C0240000402401F
:1029800000B587B01C216846FDF719FD15481649AA
:102990000860A720486000211348816044F61F6149
:1029A000C160002101618161FEF72AFE08B1FDF7D7
:1029B000BDFD0D48FFF7E1F908B1FDF7B7FD602057
:1029C0000090002001900290049000226946064881
:1029D000FFF751F908B1FDF7A9FD0348FFF766F8C5
:1029E00007B000BD004801408C08002000B587B04A
:1029F0001C216846FDF7E3FC164817490860A7202C
:102A0000486000211448816044F61F61C1600021C4
:102A1000016180218161FEF7F3FD08B1FDF786FDBC
:102A20000D48FFF7AAF908B1FDF780FD602000907E
:102A30000020019002900490002269460648FFF7AA
:102A40001AF908B1FDF772FD0348FFF72FF807B038
:102A500000BD0000001C0040D408002010B50A484A
:102A60000A490860A720486000210848816041F2B7
:102A70008731C160002101618161FEF7C1FD08B1AC
:102A8000FDF754FD10BD0000002000401C0900208F
:102A900000B589B00020079008901C216846FDF71A
:102AA0008EFC244824490860002048600021224808
:102AB000816047F6FF71C160002101618021816161
:102AC000FFF75BF908B1FDF731FD00200790089092
:102AD00007A91948FEF73AFD08B1FDF727FD602068
:102AE0000090002001900290049000226946124854
:102AF000FFF7C1F808B1FDF719FD042269460E4839
:102B0000FFF7B9F808B1FDF711FD082269460A4838
:102B1000FFF7B1F808B1FDF709FD0C226946064838
:102B2000FFF7A9F808B1FDF701FD0348FEF7BEFF66
:102B300009B000BD000400406C07002000B58DB056
:102B4000002009900A900B900C90079008901C218F
:102B50006846FDF734FC204820490860A7204860FB
:102B600000211E48816040F2CF71C16000210161E7
:102B700080218161FEF744FD08B1FDF7D7FC4FF4D9
:102B80008050099009A91548FEF752FE08B1FDF7DB
:102B9000CDFC1248FFF7F1F808B1FDF7C7FC0020A3
:102BA0000790089007A90D48FEF7D0FC08B1FDF783
:102BB000BDFC602000900020019002900490002253
:102BC00069460648FFF757F808B1FDF7AFFC034820
:102BD000FEF76CFF0DB000BD00080040B4070020F8
:102BE00000B587B0002003900490059006900190F6
:102BF0000290144814490860A72048600021124838
:102C0000816041F28731C160002101618161FEF77D
:102C1000F7FC08B1FDF78AFC4FF48050039003A93C
:102C20000948FEF705FE08B1FDF780FC0020019081
:102C3000029001A90448FEF789FC08B1FDF776FC73
:102C400007B000BD000C0040FC07002000B591B0AB
:102C500000200F9010901C2108A8FDF7B0FB202148
:102C60006846FDF7ACFB274827490860A720486065
:102C700000212548816040F2CF71C16000210161CF
:102C800041618161FFF779F808B1FDF74FFC002041
:102C90000F9010900FA91C48FEF758FC08B1FDF7E3
:102CA00045FC60200890002009900A900B900C9041
:102CB0000D900E90002208A91348FEF7DCFF08B122
:102CC000FDF734FC042208A90F48FEF7D4FF08B131
:102CD000FDF72CFC002000900190029003900490DE
:102CE0004FF4005005900020079069460648FEF713
:102CF000F3FB08B1FDF71AFC0348FEF7D7FE11B04D
:102D000000BD0000000401404408002010B50B483D
:102D10000B4908604FF4E1304860002108488160A9
:102D2000C16001610C21416100218161C161FFF736
:102D3000ABFA08B1FDF7FAFB10BD000000500040EF
:102D40006409002010B50B480B4908604FF4E130CE
:102D50004860002108488160C1600161082141612B
:102D600000218161C161FFF78FFA08B1FDF7DEFB39
:102D700010BD000000440040AC09002010B50B4815
:102D80000B4908604FF4E130486000210848816039
:102D9000C16001610C21416100218161C161FFF7C6
:102DA00073FA08B1FDF7C2FB10BD000000480040F7
:102DB000F409002000BFFEE700BFFEE77047704740
:102DC000704710B5FDF7FCFE10BD00000348006819
:102DD00040F47000014908607047000088ED00E091
:102DE00010B50248FEF7ABFD10BD00006C070020D7
:102DF00010B50248FEF7A3FD10BD0000B407002087
:102E000010B50248FEF79BFD10BD0000FC07002036
:102E100010B50348FEF793FD0248FEF790FD10BD84
:102E2000440800201C09002010B502682D4B984270
:102E30000ED0B0F1804F0BD02B4B984208D02B4BCB
:102E4000984205D02A4B984202D02A4B984203D18F
:102E500022F070024B681A43224B984220D0B0F106
:102E6000804F1DD0204B98421AD0204B984217D04B
:102E70001F4B984214D01F4B984211D01E4B9842C2
:102E80000ED01E4B98420BD01D4B984208D01D4BC4
:102E9000984205D01C4B984202D01C4B984203D15B
:102EA00022F44072CB681A4322F080034C6943EA53
:102EB000040202608B68C3620B688362094B98420C
:102EC00002D00C4B984201D10B690363012343618B
:102ED000036903F001031BB1036923F001030361DC
:102EE00010BD000000000140000400400008004048
:102EF000000C00400004014000400140004401403B
:102F00000048014000180040001C00400020004024
:102F100030B501F01F05012404FA05F3046A9C434F
:102F20000462046A01F01F0502FA05F52C430462ED
:102F300030BD30B50C46816821F47F4142EA03255B
:102F400025432943816030BD30B5026A056A25F00A
:102F5000100505624368846924F4E04424F4407455
:102F60000D6844EA052422F020028D6842EA051229
:102F7000124DA84200D103E0114DA84207D100BF75
:102F800022F08002CD6842EA051222F040020B4D89
:102F9000A84202D00A4DA84209D123F4806323F449
:102FA00000634D6943EA85038D6943EA8503436005
:102FB00084614D688563026230BD000000000140FD
:102FC0000004014010B5034699629A85DA85002015
:102FD0005864222083F84200186928B11868C06834
:102FE00040F480701C68E0601868406940F001009F
:102FF0001C6860611868C06840F020001C68E060D0
:10300000002010BD10B50248FEF7CAFF10BD000039
:10301000F409002000BFFEE710B54FF40041064858
:10302000FDF7BAFD012800D110BD002001F028FAFB
:1030300001F0C4F900BFF7E70004024010B501F049
:10304000D3F900F05FF900F02FF810BD054890F9B2
:103050000000401C28B90020034908805520014980
:10306000087070475C0000205E0000200448006883
:10307000102804DA03480068401C024908607047C1
:10308000180000201400002010B500F03FF800F0F8
:1030900005F90A20FDF74EFC00F07EF800200149FA
:1030A000087010BD6A00002010B5FA2000F090F8FA
:1030B00000210748FEF7DAFE04210548FEF7D6FE98
:1030C00040F6B830FDF736FC00F004F810BD000003
:1030D0004408002000B5FA2000F07AF800BD000096
:1030E000084890F90000401C18B10648007855289F
:1030F00000D1704704480088401C0349088000BF85
:10310000F7E700005C0000205E00002010B5002200
:1031100040211048FDF748FD002280210D48FDF7B1
:1031200043FD00224FF400710B48FDF73DFD0122E5
:1031300091020948FDF738FD0122D1020648FDF74A
:1031400033FD00224FF480510348FDF72DFD00F0C0
:1031500081F810BD000C02400018024010B5012299
:1031600040210448FDF720FD002280210148FDF7A1
:103170001BFD10BD000C0240054890F90000401CEA
:1031800028B900200349088055200149087070477C
:10319000660000206400002010B54FF4FA624FF47E
:1031A000A071012001F0C4F84FF4FA62BE210220A0
:1031B00001F0BEF84FF4FA625110032001F0B8F8A4
:1031C0004FF4FA624FF49671042001F0B1F810BD8B
:1031D0004100044A126851634100024A1268916337
:1031E000704700004408002010B500F00BF900F013
:1031F000CDFD00F00DFA00F055FF10BD10B50248EE
:10320000FEF7C2FA10BD00001C090020F7EE000A0C
:10321000B4EEE00AF1EE10FA00D27047DFED0B0ACF
:1032200080EE801AFDEEC10A10EE900A00BF084938
:103230000968C8620649C86000BF014600EBD17248
:103240005210034B1B685A6300BFE6E700007A4444
:10325000B407002010B5002240210448FDF7A4FC6B
:10326000012280210148FDF79FFC10BD000C0240A7
:10327000084890F90000401C18B10648007855280D
:1032800000D1704704480088401C0349088000BFF3
:10329000F7E70000660000206400002010B5002061
:1032A0000E4908604FF47A700D4908604FF0FF3006
:1032B0000C49088000200C4908600C4908600C4942
:1032C00008600C4908600C4908600C48034A126801
:1032D000811801220A48FFF733F910BD8000002051
:1032E0008C00002098000020900000209400002016
:1032F0009C000020A0000020880000201C0B002063
:10330000F409002010B540F24C40044909684863B4
:1033100000210248FEF7AAFD10BD0000D4080020DD
:1033200040F24C400149096848637047D4080020C6
:10333000064890F90000401C18B104480078552850
:1033400001D1002070470120FCE70000660000204A
:1033500010B54FF400410448FDF71EFC012800D1D0
:1033600010BD0020FCE7000000040240124909687B
:10337000491C114A11601149B1F90010491C21B1D1
:103380000F490968491C0E4A11600E49096801F687
:103390007F414FF44862B1FBF2F302FB13100A497C
:1033A00001EB0011C968022904D108490968491CC8
:1033B000064A1160704700008C0000209800002031
:1033C00090000020A00000203C0B00209400002072
:1033D00040F216300149096848637047D40800205C
:1033E00010B504460648844200D010BDFFF778FEB1
:1033F000FFF73CFEFFF73CFFFFF7B8FF00BFF4E725
:103400001C09002010B52DED088B204800681028FD
:1034100039DA1F481D49096850F821001D4909681B
:10342000884230DC194800680A2809DA1748006821
:10343000401C00EE100AB8EEC00AFFF7E7FE1DE0E0
:103440001248006803F037FA41EC1B0B9FED120B9A
:1034500053EC102B03F082FA41EC1A0B9FED100B8A
:1034600053EC102B02F0ECFF41EC190B02F0B6FF0D
:1034700008EE100AB0EE480AFFF7C8FE03480068DD
:10348000401C02490860BDEC088B10BD18000020EC
:103490001C00002014000020000000000000E03F9D
:1034A000000000000000164010B5B4200449086078
:1034B00000F066F800210348FEF7D8FC10BD0000BC
:1034C0006C0000208C08002000B593B0302107A8C4
:1034D000FCF775FF142102A8FCF771FF00BF002064
:1034E00001902548006840F0805023490860084654
:1034F000006800F08050019000BF00BF00BF0020B6
:1035000001901E48006840F480401C49086008464D
:10351000006800F48040019000BF00BF02200790C7
:1035200001200A9010200B9002200D9000210E9196
:1035300008210F91A82110910221119104211291CB
:1035400007A8FDF75FFD08B1FCF7F0FF0F20029020
:1035500002200390002004904FF4A05005904FF4F7
:1035600080500690052102A8FDF70CFC08B1FCF77D
:10357000DDFF13B000BD0000403802400070004085
:1035800010B52DED088B1A4804684FF4B47094FB05
:10359000F0F100FB114000F5B4704FF4B47190FBF2
:1035A000F1F201FB1204204603F085F941EC1B0BFC
:1035B0009FED100B53EC102B03F0D0F941EC1A0BDC
:1035C0009FED0E0B53EC102B02F0EEFF41EC190BAC
:1035D0009FED0C0B53EC102B02F032FF41EC180B5B
:1035E00003F03AF9094909684863BDEC088B10BD3E
:1035F0006C000020000000000088A34000000000D4
:10360000008076400000000000407F408C080020D1
:1036100010B541480078552802D100203E49087075
:103620003E48008800280BDD3B48007840B9FFF792
:10363000CFFE39480078401C40B2374908706AE034
:103640003648008814280CDB33480078012808D15C
:1036500000F060FF30480078401C40B22E490870EE
:1036600059E02E48008878280EDB2B480078022885
:103670000AD12B480068FFF7ABFD27480078401CB3
:1036800040B22549087046E024480088DC280CDB5D
:1036900021480078032808D1FFF742FE1E48007831
:1036A000401C40B21C49087035E01C480088B0F549
:1036B000B97F0CDB18480078042808D1FFF70AFD11
:1036C00015480078401C40B21349087023E01348A5
:1036D0000088B0F5C87F0CDB0F480078052808D1BA
:1036E000FFF79AFC0C480078401C40B20A49087069
:1036F00011E00A480088B0F5167F0CDB0648007818
:10370000062808D1FFF724FE28B1832000F082FCB0
:10371000FF200149087010BD5C0000205E00002001
:103720006000002010B542484249096800EB0110D2
:10373000C06830B1012868D0022834D0032868D18D
:1037400066E000240EE004EB041101EB44113A4A58
:1037500002EBC10101F1BC00B3EE0E0A02F06FF9F9
:10376000601CC4B2042CEEDB31483249096800EB1E
:103770000110D0ED021AB0EE611A2D482D490968EA
:1037800000EB0110D0ED011AF0EE610A284829493A
:10379000096800EB0110D0ED001AB0EE610A26486E
:1037A00000F026FF36E000240EE004EB041101EBEC
:1037B0004411214A02EBC10101F1BC00B2EE040A3E
:1037C00002F03DF9601CC4B2042CEEDB1848194924
:1037D000096800EB0110D0ED021AB0EE611A14482E
:1037E0001449096800EB0110D0ED011AF0EE610AEE
:1037F0000F481049096800EB0110D0ED001AB0EE37
:10380000610A0D4800F0F4FE04E0FFF7B5FC01E0AA
:1038100000E000BF00BF07480068401C4FF448614B
:10382000B0FBF1F201FB12000249086010BD00007C
:103830003C0B0020A0000020A800002010B52DEDBA
:103840000E8BFE480068012817DCFD48FB4909681B
:10385000405C662805D1F9480068401CF7490860BB
:1038600002E00020F5490860F548F44A1268811822
:103870000122F448FEF764FE78E2F048006802286E
:1038800074D1EF488078F049085C70B10320EB49AF
:103890000860EB488078EC4B1A5CE9480B461B68E3
:1038A000C118E848FEF74CFE60E2E5488078401F0A
:1038B000062868D2DFE800F00367165B5F6301202B
:1038C000E249E34A126801EB0211C860E04800686F
:1038D000401C4FF44861B0FBF1F201FB1200DC49DF
:1038E000086051E0DA480068DA49086000243AE0EC
:1038F00004EB041101EB4411D74A02EBC10001F0C3
:103900005AFBB0EE408A04EB041101EB4411D24A99
:1039100002EBC10001F055FB04EB041101EB441173
:10392000CD4A02EBC1009FEDCD0A01F04DFB04EB47
:10393000041101EB4411C84A02EBC10101F1680016
:103940009FEDC60A02F07EF804EB041101EB44116E
:10395000C14A02EBC10101F1BC00B3EE0E0A02F054
:1039600093F9601CC4B2042CC2DB0DE019E0022004
:10397000BB49086008E00120BA49086004E0002063
:10398000B849086000E000BF00BF0020AB490860F4
:10399000AB480A46126881180122AA48FEF7D0FDFA
:1039A000E4E1A64800680328FAD1A54880780128F8
:1039B00006D002280ED003287DD004287CD1A9E1AE
:1039C0009F480179C07801EB002004B2204600F046
:1039D0001BFBBFE19A48007900EE100AB8EE400ADE
:1039E0009748C07800EE900AF8EE600A9FED9E1AA4
:1039F00000EE810A9FED9D1AC0EE010A9FED9C0A20
:103A000020EE800AF0EE408A8D48407900EE100AE0
:103A1000B8EE400AB0EE408A89484079012803D1C7
:103A2000B7EE080AB0EE408AB0EE680A02F096F9E6
:103A300020EE080ADFED8F0A20EE209ADFED879A4C
:103A4000B2EE040AB4EEC08AF1EE10FA7FDBDFEDCD
:103A50008A0A78EEE00AB0EE600A02F053F910EE3E
:103A6000104A204603F062F941EC1A0B9FED830BDC
:103A700053EC102B02F036FF22D2B2EE020A38EEDF
:103A8000400A10EE101A084603F050F941EC1C0BE6
:103A90009FED7C0B53EC102B02F060FF41EC1B0BF5
:103AA0009FED7A0B53EC102B02F07EFD41EC1A0BCC
:103AB00002F094FC01E0A3E04BE108EE100A34E0D0
:103AC000DFED740A78EEE00AB0EE600A02F01AF94F
:103AD00010EE104A204603F029F941EC1A0B9FED35
:103AE000670B53EC102B02F0FDFE1ED2B1EE0C0A58
:103AF00038EE400A10EE101A084603F017F941ECB0
:103B00001C0B9FED600B53EC102B02F027FF41ECD8
:103B10001B0B9FED5E0B53EC102B02F045FD41ECAF
:103B20001A0B02F05BFC08EE100AB0EE680A02F015
:103B3000BDF9F2EE040A78EE200A20EE200ADFED4D
:103B4000560A20EE200AF0EE409A2BE0FFE7B0EE96
:103B5000680A02F0ABF910EE104A204603F0E6F8CE
:103B600041EC1C0B18EE100A03F0E0F841EC1E0BC0
:103B70009FED4A0B53EC102B02F0F0FE41EC1D0BB5
:103B800053EC1C2B02F0EAFE41EC1B0B9FED450BA6
:103B900053EC102B02F0E2FE41EC1A0B02F01EFC7B
:103BA00009EE900A29482A49096800EB011080EDC6
:103BB000009A26482649096800EB0110C0ED019AD9
:103BC0009FED260A21482249096800EB011080ED8B
:103BD000020A234801681D481D4A126800EB0210C2
:103BE000C16000201E49086019480068401C4FF45D
:103BF0004861B0FBF1F201FB120015490860A9E031
:103C00000F48007900EE900AF8EE600A0C48C07880
:103C100001EE100AB8EE411ADFED131A41EE210A47
:103C20009FED121A30EEC11ADFED101AC1EE210A13
:103C30009FED0F1A60EE810A38E00000800000203E
:103C40001C0B0020F4090020700000203C0B002019
:103C50009C000020A0000020A80000200000000020
:103C600084000020880000200000804300003443CE
:103C7000D00F4940E7B4813EDCCB96409A999999A0
:103C80009999B93F000000000000244000000000A6
:103C900000002240D00FC93FEC267D3ECDCCCCCCDD
:103CA000CCCCFC3F00000080DDA4CF3FB0EE600A2A
:103CB000DFED300A60EE200AB0EE600A5FED190A0F
:103CC0002D482E49096800EB0110C0ED000A5FED98
:103CD0001D0A29482949096800EB0110C0ED010AB5
:103CE00025482649096800EB011080ED020A0020F2
:103CF0002149224A126801EB0211C8601F4800687E
:103D0000401C4FF44861B0FBF1F201FB12001B496B
:103D100008601FE01A48C078012806D0022808D0A1
:103D200003280BD0042811D10CE05A2000F086F9AA
:103D30000DE06FF0590000F081F908E0B42000F0C8
:103D40007DF904E0002000F095F900E000BF00BF1D
:103D500000E000BF00BF00200A49086008480A468A
:103D60001268811801220848FEF7EAFBBDEC0E8BB1
:103D700010BD0000CDCC34413C0B00209C00002045
:103D80001C0B002080000020F409002010B59B4887
:103D90000078552802D1002098490870984800887A
:103DA00001280BDB9548007840B9FFF7D7F9934815
:103DB0000078401C40B2914908701EE1904800888C
:103DC00002281DDB8D480078012819D14FF4487274
:103DD0004FF4A07100F0ACFA4FF44872BE210220FB
:103DE00000F0A6FA4FF448724FF47A71032000F005
:103DF0009FFA82480078401C40B280490870FCE07D
:103E00007F480088572811DB7C48007802280DD1B4
:103E10004FF4FA7240F2A911012000F089FA7748B4
:103E20000078401C40B275490870E6E0744800888C
:103E3000BB280DDB71480078032809D14FF4967236
:103E40001146012000F074FA67206C490870D4E034
:103E50006B480088C82810DB6848007867280CD1B8
:103E60004FF4C8629621032000F062FA812000F02E
:103E7000D1F8042061490870BFE061480088ED284E
:103E800016DB5E480078042812D14FF42F72A0216F
:103E9000022000F04DFAFFF75BFA28B9FFF7BCF8F3
:103EA000892057490880A8E0682054490870A4E098
:103EB00053480088B0F58F7F0FDD504800786828A0
:103EC0000BD15048008881B24FF4FA72042000F000
:103ED0002FFA0520494908708FE049480088B0F55D
:103EE000AF7F1EDB4548007805281AD14FF42F72AA
:103EF0004FF4FA71012000F01BFA4FF47A7240F28D
:103F00009E21022000F014FA4FF49672CD21032076
:103F100000F00EFA39480078401C40B2374908706A
:103F20006BE037480088B0F5E67F10DB3348007857
:103F300006280CD1C82240F23111032000F0F8F914
:103F40002E480078401C40B22C49087055E02C489F
:103F50000088B0F5FC7F0CDD28480078072808D1E0
:103F6000FFF778F925480078401C40B223490870D3
:103F700043E023480088B0F50D7F0CDD1F48007832
:103F8000082808D1FFF708F91C480078401C40B207
:103F90001A49087031E01A48008840F267218842C7
:103FA0000CDB16480078092808D1FFF74FF81348B2
:103FB0000078401C40B2114908701EE0104800888B
:103FC000B0F53F7F0DDD0D4800780A2809D1852026
:103FD00000F020F809480078401C40B207490870FA
:103FE0000BE007480088B0F5856F06DD03480078D0
:103FF0000B2802D1FF200149087010BD6600002087
:10400000640000206800002001490880704700001B
:104010006800002010B50446662006490870487004
:10402000084684704FF0FF3303220348FEF7A8FAD6
:1040300010BD00002C0B0020F409002010B5044630
:104040000B48006820440A490860084600684FF49D
:10405000B47190FBF1F201FB120000F5B47090FB1B
:10406000F1F201FB120002490860FFF789FA10BD66
:104070006C00002010B504460948046000684FF445
:10408000B47190FBF1F201FB120000F5B47090FBEB
:10409000F1F201FB120002490860FFF771FA10BD4E
:1040A0006C00002070B52DED028B95480068022849
:1040B0007ED30026002565E005EB051101EB4511D7
:1040C000904A02EBC10000F079FFF0EE408A05EB68
:1040D000051101EB45118B4A02EBC10000F06BFFAB
:1040E00038EEC00AB0EE408AB0EE480A01F00AFE8F
:1040F000DFED850AB4EEE00AF1EE10FA40D2701C52
:10410000C6B200243AE004EB041101EB44117D4AED
:1041100002EBC10000F04FFFF0EE408A04EB041107
:1041200001EB4411774A02EBC10000F04AFF04EBB7
:10413000041101EB4411734A02EBC1009FED730AB5
:1041400000F042FF04EB041101EB44116D4A02EB55
:10415000C10101F168009FED6D0A01F073FC04EBF1
:10416000041101EB4411674A02EBC10101F1BC00EB
:10417000B3EE0E0A01F088FD601CC4B2042CC2DB51
:10418000681CC5B2042D97DB002E7CD06048006807
:104190006049096888422ED05F485D49096800EB94
:1041A0000110C46834B1012C13D0022C20D100E0DE
:1041B00090E000BF5948B0F90000401C40B900F041
:1041C000E7F828B1012055490880002054490870BB
:1041D0000FE05248B0F90000401C40B9FFF7A8F8C2
:1041E00028B901204D49088000204D49087000E0A1
:1041F00000BF00BF6AE04A48007830BB444800680E
:1042000000F67F404FF44861B0FBF1F201FB12046D
:10421000414800EB041090ED020AB0EE408A41489C
:10422000006870B93C4800EB0410C06830B9B6EEC5
:10423000000AB4EEC08AF1EE10FA02DC8220FFF729
:10424000E9FE01203649087000BF00243CE004EB81
:10425000041101EB44112B4A02EBC10000F0ABFE4C
:10426000B0EE408A04EB041101EB4411254A02EB45
:10427000C10000F0A6FE04EB041101EB4411214A39
:1042800002EBC10000E024E09FED200A00F09CFE5C
:1042900004EB041101EB44111A4A02EBC10101F1D4
:1042A00068009FED1A0A01F0CDFB04EB041101EB4D
:1042B0004411144A02EBC10101F1BC00B3EE0E0A35
:1042C00001F0E2FC601CC4B2042CC0DB00200C49ED
:1042D000086000BF1148008801280DD1124800680D
:1042E00050B1FFF71FFA4FF0FF300C490880002053
:1042F0000D4908600D490860BDEC028B70BD0000DF
:104300008C000020A8000020CDCC4C3E0000000016
:10431000A00000209C0000203C0B00209800002002
:10432000A4000020880000209000002094000020BD
:1043300070B506460C46154655201349087048705E
:10434000084686700720C870012008714C71201241
:104350008871CD712812087208460022022103E0FC
:10436000435C13449AB2491CC3789B1C8B42F7DC14
:10437000D14305484172C078C21C4FF0FF33024957
:104380000248FEF7FDF870BDFC0A0020AC090020D1
:10439000094890F90000401C48B1074890F9000016
:1043A000042806DB044890F90000642801DA0120A3
:1043B00070470020FCE700006600002010B50020D8
:1043C0000649086006490860B7EE000AFEF71EFFBE
:1043D000012211460348FCF7E7FB10BD1400002042
:1043E000180000200018024010B50122510319489E
:1043F000FCF7DAFB0122D1021648FCF7D5FB0122BB
:10440000D1031448FCF7D0FB012000F039F800225A
:1044100001211148FCF7C8FBB7EE000AFEF7F6FED3
:1044200000210E48FDF722FD4FF400410C48FCF737
:10443000B3FB70B90A20FCF77DFAFEF7EDFD01E051
:10444000FEF7E0FF4FF400410548FCF7A5FB00280C
:10445000F6D010BD0014024000180240B40700203E
:104460000004024010B54FF480410448FCF794FB6F
:1044700008B9012010BD0020FCE700000014024034
:1044800010B50446012C05D1002281030448FCF735
:104490008BFB04E0012291030148FCF785FB10BD72
:1044A0000014024010B50446B4F5804F03D0B4F5B3
:1044B000004F27D113E04FF480411448FCF76CFB08
:1044C00001280BD1FFF7CEFF012807D100220121DF
:1044D0000F48FCF769FB0020FFF7D2FF13E04FF411
:1044E00000410A48FCF758FB01280AD1FFF7BAFF40
:1044F00038B9002201210648FCF756FB0120FFF7DE
:10450000BFFF00E000BF00BF10BD0000000402407C
:104510000018024010B54FF480410648FCF73CFB00
:10452000012800D110BD0120FFF7AAFFFFF746FFC9
:1045300000BFF7E700040240014691F858007047B9
:1045400080F85810704770B50446606E60B9B4F8D2
:104550004A100022E06CFCF727FBB4F85010002250
:10456000606DFCF721FB1EE0606E00280CDDB4F8E6
:104570004A100122E06CFCF717FBB4F8501000223F
:10458000606DFCF711FB0EE0606E00280BDAB4F8EA
:104590004A100022E06CFCF707FBB4F8501001222F
:1045A000606DFCF701FB606E01F011FF054640F6FF
:1045B0006B718D4200DA0D4640F2B570854200DA2B
:1045C000002594F8480010B9206845630FE094F87E
:1045D0004800042802D12068856308E094F8480068
:1045E000082802D12068C56301E02068056470BD19
:1045F00030B52DED048B85B00546B0EE408AF0EE67
:10460000608AB0EE419A00240DE004EB041101EB46
:10461000441105EBC10000F0CEFC01A800EB8400C2
:1046200080ED000A641C042CEFDB9DED010A30EEE6
:10463000480A8DED010A9DED020A30EE480A8DED23
:10464000020A9DED030A30EE080A8DED030A9DED86
:10465000040A30EE080A8DED040A9DED010A30EEE1
:10466000280A8DED010A9DED020A30EE680A8DEDF3
:10467000020A9DED030A30EE280A8DED030A9DED36
:10468000040A30EE680A8DED040A9DED010A30EE51
:10469000090A8DED010A9DED020A30EE490A8DED01
:1046A000020A9DED030A30EE490A8DED030A9DEDE5
:1046B000040A30EE090A8DED040A002427E001A95E
:1046C00001EB8401D1ED000AB0EE600A04EB0411A5
:1046D00001EB441105EBC10000F073FC04EB041185
:1046E00001EB441105EBC10101F1BC009FED0B0A88
:1046F00001F0CAFA04EB041101EB441105EBC1010E
:1047000001F168009FED060A01F09CF9641C042C7D
:10471000D5DB05B0BDEC048B30BD00000000484384
:104720000000000070B504460E4684F8B06600250F
:1047300009E005EB051101EB451104EBC100314621
:1047400000F045FC6D1C042DF3DB70BD70B5054613
:104750000C46082C03D1284600F03CFC14E0B4F5CC
:10476000005F04D105F5C47000F034FC0CE0102C9F
:1047700004D105F5447000F02DFC05E0012C03D1B7
:1047800005F5936000F026FC70BD000070B52DEDBE
:10479000108B0446F7EE080ABFEE080A04F2B46074
:1047A00001F0EAFDF7EE080ABFEE080A04F5D7604B
:1047B00001F0E2FDF0EE080AB8EE080A04F2BC606F
:1047C00001F0DAFD2046FFF7B7FE08B9012001E04D
:1047D0004FF0FF30054602F06EF841EC1A0B94F9E9
:1047E000C00602F068F841EC1F0B9FED9F0B53ECE5
:1047F000102B02F0B3F841EC1D0B04F5806090ED36
:10480000AD0A04F2B460D0ED020A9FED991A01EEF0
:10481000200AD0ED010A30EE600A10EE101A0846A8
:1048200002F084FA41EC1E0B53EC1D2B01F008FE44
:1048300041EC1C0B9FED8F0B53EC102B01F0B4FEE1
:1048400041EC1B0B53EC1A2B02F088F841EC190BCE
:1048500001F0C4FD08EE100AB0EE480A204600F050
:10486000B3FB04F5C470FFF767FE08B9012001E04F
:104870004FF0FF30054602F01EF841EC1A0B94F998
:10488000C10602F018F841EC1F0B9FED770B53ECBB
:10489000102B02F063F841EC1D0B04F5806090EDE5
:1048A000AD0A04F2B460D0ED020A9FED711A11EE68
:1048B000200AD0ED010A30EE600A10EE101A084608
:1048C00002F034FA41EC1E0B53EC1D2B01F0B8FD45
:1048D00041EC1C0B9FED670B53EC102B01F064FEB9
:1048E00041EC1B0B53EC1A2B02F038F841EC190B7E
:1048F00001F074FD08EE100AB0EE480A04F5C47029
:1049000000F062FB04F54470FFF716FE08B90120C1
:1049100001E04FF0FF30054601F0CDFF41EC1A0BEE
:1049200094F9C20601F0C7FF41EC1F0B9FED4E0B3F
:1049300053EC102B02F012F841EC1D0B04F58060D3
:1049400090EDAD0A04F2B460D0ED020A9FED4B1A6F
:1049500001EE200AD0ED010A30EE600A10EE101AC6
:10496000084602F0E3F941EC1E0B53EC1D2B01F05D
:1049700067FD41EC1C0B9FED3F0B53EC102B01F03E
:1049800013FE41EC1B0B53EC1A2B01F0E7FF41EC3B
:10499000190B01F023FD08EE100AB0EE480A04F5E9
:1049A000447000F011FB04F59360FFF7C5FD08B9F2
:1049B000012001E04FF0FF30054601F07CFF41ECA3
:1049C0001A0B94F9C30601F076FF41EC1F0B9FED23
:1049D000260B53EC102B01F0C1FF41EC1D0B04F52D
:1049E000806090EDAD0A04F2B460D0ED020A9FED54
:1049F000231A11EE200AD0ED010A30EE600A10EE03
:104A0000101A084602F092F941EC1E0B53EC1D2BD4
:104A100001F016FD41EC1C0B9FED160B53EC102B17
:104A200001F0C2FD41EC1B0B53EC1A2B01F096FF79
:104A300041EC190B01F0D2FC08EE100AB0EE480A66
:104A400004F5936000F0C0FA002508E005EB0511BD
:104A500001EB451104EBC10000F0DCFA6D1C042DE4
:104A6000F4DBBDEC108B70BD7B14AE47E17A843F64
:104A700048E1DABE000000403333B33F48E1DA3E9C
:104A80000FB430B5CFB004463D2253A904F5C4603D
:104A9000FBF763FC9DF8891184F85D169DF88A1177
:104AA00084F85E169DF88B1184F85F169DF88C11C2
:104AB00084F860169DF88D1184F861169DF88E11AA
:104AC00084F862169DF88F1184F863169DF8901192
:104AD00084F864169DF8911184F865169DF892117A
:104AE00084F866163D2265A904F5CD60FBF735FC18
:104AF0009DF8D11184F8A5169DF8D21184F8A61658
:104B00009DF8D31184F8A7169DF8D41184F8A8163F
:104B10009DF8D51184F8A9169DF8D61184F8AA1627
:104B20009DF8D71184F8AB169DF8D81184F8AC160F
:104B30009DF8D91184F8AD169DF8DA1184F8AE16F7
:104B40003D2265A93DA8FBF708FC9DF8D1018DF831
:104B500031019DF8D2018DF832019DF8D3118DF805
:104B600033119DF8D4118DF834119DF8D5118DF8BD
:104B700035119DF8D6018DF836019DF8D7118DF8C5
:104B800037119DF8D8118DF838119DF8D9118DF88D
:104B900039119DF8DA018DF83A013D2253A92BA86D
:104BA000FBF7DBFB9DF889018DF8E9009DF88A0190
:104BB0008DF8EA009DF88B118DF8EB109DF88C11A3
:104BC0008DF8EC109DF88D118DF8ED109DF88E018B
:104BD0008DF8EE009DF88F118DF8EF109DF8901173
:104BE0008DF8F0109DF891118DF8F1109DF892015B
:104BF0008DF8F200E5484021E54A0823CDE9263248
:104C0000CDE9281048223DA914A8FBF7A6FBDF48F0
:104C100004210823CDE91030CDE9121000203C22F8
:104C20002EA90F906846FBF798FB20462BA90EC9CA
:104C300000F090FA3D2265A93DA8FBF78EFB9DF898
:104C4000D1018DF831019DF8D2018DF832019DF826
:104C5000D3118DF833119DF8D4118DF834119DF8CE
:104C6000D5118DF835119DF8D6018DF836019DF8D6
:104C7000D7118DF837119DF8D8118DF838119DF89E
:104C8000D9118DF839119DF8DA018DF83A013D22DC
:104C900053A92BA8FBF761FB9DF889018DF8E9006A
:104CA0009DF88A018DF8EA009DF88B118DF8EB10C4
:104CB0009DF88C118DF8EC109DF88D118DF8ED108C
:104CC0009DF88E018DF8EE009DF88F118DF8EF1094
:104CD0009DF890118DF8F0109DF891118DF8F1105C
:104CE0009DF892018DF8F200A9480421A94ACB024F
:104CF000CDE92632CDE9281048223DA914A8FBF7BA
:104D00002CFBA24820211023CDE91030CDE9121050
:104D100004203C222EA90F906846FBF71EFB04F5E9
:104D2000C4702BA90EC900F015FA3D2265A93DA853
:104D3000FBF713FB9DF8D1018DF831019DF8D201ED
:104D40008DF832019DF8D3118DF833119DF8D411EF
:104D50008DF834119DF8D5118DF835119DF8D601D7
:104D60008DF836019DF8D7118DF837119DF8D811BF
:104D70008DF838119DF8D9118DF839119DF8DA01A7
:104D80008DF83A013D2253A92BA8FBF7E6FA9DF8CE
:104D900089018DF8E9009DF88A018DF8EA009DF8F7
:104DA0008B118DF8EB109DF88C118DF8EC109DF89F
:104DB0008D118DF8ED109DF88E018DF8EE009DF8A7
:104DC0008F118DF8EF109DF890118DF8F0109DF86F
:104DD00091118DF8F1109DF892018DF8F2006B4859
:104DE00002216D4A1023CDE92632CDE92810482250
:104DF0003DA914A8FBF7B1FA674880218315CDE9D6
:104E00001030CDE9121008203C222EA90F906846E0
:104E1000FBF7A3FA04F544702BA90EC900F09AF928
:104E2000012104F54470FFF78BFB3D2265A93DA8E5
:104E3000FBF793FA9DF8D1018DF831019DF8D2016D
:104E40008DF832019DF8D3118DF833119DF8D411EE
:104E50008DF834119DF8D5118DF835119DF8D601D6
:104E60008DF836019DF8D7118DF837119DF8D811BE
:104E70008DF838119DF8D9118DF839119DF8DA01A6
:104E80008DF83A013D2253A92BA8FBF766FA9DF84D
:104E900089018DF8E9009DF88A018DF8EA009DF8F6
:104EA0008B118DF8EB109DF88C118DF8EC109DF89E
:104EB0008D118DF8ED109DF88E018DF8EE009DF8A6
:104EC0008F118DF8EF109DF890118DF8F0109DF86E
:104ED00091118DF8F1109DF892018DF8F2002E4895
:104EE00008212A4A0123CDE92632CDE9281048229B
:104EF0003DA914A8FBF731FA274840212023CDE92A
:104F00001030CDE912100C203C222EA90F906846DB
:104F1000FBF723FA04F593602BA90EC900F01AF9E8
:104F2000012104F59360FFF70BFB002528E005EB5A
:104F3000051101EB451104EBC10101F168009FED82
:104F4000172ADFED161A9FED161ADFED160A9FEDF0
:104F5000160A00F08BFE05EB051101EB451104EB81
:104F6000C10101F1BC00B3EE0E2ADFED0C1A9FED7A
:104F70000C1ADFED0B0A9FED0D0A00F077FE6D1C99
:104F8000042DD4DB4FB030BC5DF814FB00100240A0
:104F90000014024000080240000402400000804F5C
:104FA000000000000000C8420000484400004843E0
:104FB0000021C160704790ED600A704790ED610A72
:104FC000704780ED610A704780ED5F0A704780F896
:104FD0006811704710B50446B4F86011D4F8640144
:104FE000FBF7DAFD08B9012000E0002094F8581022
:104FF00009B9012100E00021484028B9D4F86C012A
:10500000401EC4F86C0104E0D4F86C01401CC4F8E4
:105010006C0110BD10B52DED028B044604F5B4747F
:10502000D4E90101401A08EE100A94ED030AF8EEE3
:10503000C80A80EE801A94ED060A31EE000A84ED6B
:10504000060A94ED030AB8EEC81AC1EE000A9FEDF5
:10505000400A80EE801A84ED041A6068A06020780F
:10506000A4F5B47480B9D4ED5F0A94ED180AB8EED3
:10507000C00A20EE800AD4ED170A80EE201ABDEE99
:10508000C10A84ED190A56E094F8680101281CD180
:10509000D4ED5E0AB0EE600A04F1680000F0F7FD9E
:1050A000D4ED5F0AB0EE600A04F1680000F0C4FCC1
:1050B00004F1680000F0CAFC04F1680000F0E1FDB2
:1050C000BDEEC00A84ED190A35E094F868010228A3
:1050D00031D1D4ED610AB0EE600A04F1BC0000F0F9
:1050E000ABFCD4ED600AB0EE600A04F1BC0000F045
:1050F000CEFD04F1BC0000F0A9FC04F1BC0000F0FE
:10510000C0FDF0EE408A04F1680000F095FCD4ED9B
:105110005E0AB0EE600A04F1680000F0B8FD04F128
:10512000680000F093FC04F1680000F0AAFDBDEEF9
:10513000C00A84ED190A47F6FF72514204F1640077
:1051400001F02EF92046FFF7FEF9BDEC028B10BDF1
:105150000AD7A33B0FB42DE9F05F0446DDE934AB79
:105160001DAD95E8E0033D220BA92046FBF7F5F8BD
:105170009DF8690084F83D009DF86A0084F83E00BF
:105180009DF86B103F2001559DF86C104020015593
:105190009DF86D10412001559DF86E0084F8420085
:1051A0009DF86F10432001559DF870104420015563
:1051B0009DF87110452001559DF8720084F8460055
:1051C00084F84850A4F84A60E764A4F85080C4F812
:1051D00054903D2222A904F58870FBF7BEF89DF893
:1051E000C51084F84D119DF8C61084F84E119DF835
:1051F000C71084F84F119DF8C81084F850119DF81D
:10520000C91084F851119DF8CA1084F852119DF804
:10521000CB1084F853119DF8CC1084F854119DF8EC
:10522000CD1084F855119DF8CE1084F85611A4F8CD
:1052300058A1C4F85CB13698A4F860013798C4F856
:10524000640129460BA8FCF711FEBDE8F01F5DF8CC
:1052500014FB000010B50446002184F858109FED9F
:10526000190A84ED170A47F6FF712166002104F13F
:105270006800616600F00EFDA0F16804543000F093
:1052800009FDA0F1BC04012084F868010020C4F8E5
:105290006C019FED0D0AC4F8700184ED5D0A9FED6D
:1052A0000B0A84ED5E0A9FED090A84ED5F0A9FED0B
:1052B000070A84ED600A9FED050A84ED610A204625
:1052C00010BD000027AFC04127745F4200000000FE
:1052D000014600208A6A8B69CBB932B1012A0DD010
:1052E000022A03D0032A10D10EE000BFCB6A03F0DC
:1052F0008073B3F1807F00D1012007E0CB6AB3F166
:10530000C07F00D1012001E000E000BF34E08B69E4
:10531000B3F5005F1AD132B1012A07D0022A03D0B7
:10532000032A11D10AE000BF01200EE0CB6A03F08E
:105330008073B3F1807F00D1012006E0CB6AB3F126
:10534000C07F00D1012000E000BF15E032B1012A8A
:1053500005D0022A04D0032A0CD103E000BF00BF0D
:10536000012008E0CB6A03F08073B3F1807F00D1A5
:10537000012000E000BF00BF704700000146087830
:1053800010381823B0FBF3F20848805CC865032A84
:1053900005D908686FF30900001D886503E00868F7
:1053A0006FF309008865886D70470000346E00084F
:1053B00030B5026A056A25F0010505624368846913
:1053C00024F0700424F003040D682C4322F0020240
:1053D0008D682A43104DA84200D103E00F4DA8422A
:1053E00006D100BF22F00802CD682A4322F0040251
:1053F000094DA84202D0094DA84207D123F4807379
:1054000023F400734D692B438D692B434360846102
:105410004D684563026230BD000001400004014058
:1054200030B5026A056A25F4807505624368C4696F
:1054300024F0700424F003040D682C4322F400725D
:105440008D6842EA0522124DA84200D103E0114DB9
:10545000A84207D100BF22F40062CD6842EA0522CB
:1054600022F480620A4DA84202D00A4DA84209D116
:1054700023F4805323F400534D6943EA05138D69E7
:1054800043EA05134360C4614D68C563026230BDE1
:10549000000001400004014030B5036A056A25F4AC
:1054A000805505624468C26922F4E04222F44072E9
:1054B0000D6842EA052223F400538D6843EA053360
:1054C000084DA84202D0084DA84204D124F48044DB
:1054D0004D6944EA85144460C2614D680564036205
:1054E00030BD000000000140000401400A46816810
:1054F00021F0700142F0070319438160704730B515
:105500000B461446026A056A25F0010505628169A9
:1055100021F0F00141EA041122F00A021A438161EC
:10552000026230BD30B50B461446026A056A25F0AA
:1055300010050562816921F4704141EA043122F0CD
:10554000A00242EA03128161026230BD2DE9F84FE8
:1055500004462068006920F44050E168084321684F
:1055600008612169A068084361690843E16908434B
:1055700000902068C06849F20C6188430099084394
:105580002168C8602068406920F44070A169084320
:105590002168486176492068884203D075492068AF
:1055A000884203D1FBF7C6FC814602E0FBF7B2FC60
:1055B0008146E069B0F5004F6CD102206168A0FB24
:1055C000015003461920A9FB007001462A463846BF
:1055D000FAF74CFE6421B0FBF1F04FEA001A02200A
:1055E0006168A0FB01510B461920A9FB00712A46F6
:1055F0003846FAF73BFE834602206168A0FB015063
:1056000003461920A9FB00712A463846FAF72EFEF8
:105610006421B0FBF1F000EBC00101EB0010ABEB3B
:105620008000322101EBC0006421B0FBF1F000F0FA
:10563000F8000AEB400A02206168A0FB0150034613
:105640001920A9FB007001462A463846FAF70EFEDB
:10565000834602206168A0FB015003461920A9FB84
:1056600000712A463846FAF701FE6421B0FBF1F0DA
:1056700000EBC00101EB0010ABEB8000322101EB2D
:10568000C0006421B0FBF1F000F007005044216835
:1056900088606AE004206168A0FB0150034619207D
:1056A000A9FB007001462A463846FAF7DFFD82461C
:1056B00004206168A0FB015003461920A9FB00707B
:1056C00001462A463846FAF7D1FD6421B0FBF1F0D5
:1056D00000EBC00101EB0010AAEB8000322101EBCE
:1056E00000106421B0FBF1F000F0F00A04206168C2
:1056F000A0FB017003461920A9FB00513A46284639
:10570000FAF7B4FD6421B0FBF1F00AEB001A0420B3
:105710006168A0FB01510B461920A9FB00712A46C4
:105720003846FAF7A3FD834604206168A0FB0150C8
:1057300003461920A9FB007001462A463846FAF7AD
:1057400095FD6421B0FBF1F000EBC00101EB00100E
:10575000ABEB8000322101EB00106421B0FBF1F0D3
:1057600000F00F00504421688860BDE8F88F000009
:105770000010014000140140F8B5044694F84200BE
:10578000222875D1A068B0F5805F0CD1206950B98E
:105790000025A66A20684068C0F308003080A06A2F
:1057A000801CA06215E0A56A0026A068B0F5805FA5
:1057B00003D0A06828B9206918B92068406828700B
:1057C00004E02068406800F07F002870A06A401C58
:1057D000A062E08D401E80B2E085002846D120689E
:1057E000C06820F020002168C8602068C06820F4EC
:1057F00080702168C8602068406920F0010021683D
:105800004861202084F8420000206063206B01285A
:1058100026D10020206300BF00BF21680C3151E871
:10582000001F21F0100021680C3141E80002002A1D
:10583000F3D100BF2068006800F0100010280AD1E2
:1058400000BF002000902068006800902068406839
:10585000009000BF00BFA18D2046FCF79EFB02E038
:105860002046FCF783FE0020F8BD01E00020FBE7A6
:105870000220F9E7014691F84100212828D18868E3
:10588000B0F5805F0BD1086948B90A6A1088C0F387
:1058900008000B685860086A801C086205E00B6A03
:1058A000581C086218780B685860C88C401E80B27B
:1058B000C88458B90868C06820F080000B68D860B8
:1058C0000868C06840F040000B68D860002070474E
:1058D0000220FCE700BF00BF02680C3252E8002F34
:1058E00022F4907102680C3242E80013002BF3D1CD
:1058F00000BF00BF00BF0268143252E8002F22F040
:1059000001010268143242E80013002BF3D100BFFA
:10591000016B01290ED100BF00BF02680C3252E8B2
:10592000002F22F0100102680C3242E80013002B15
:10593000F3D100BF202180F842100021016370479D
:1059400010B504462068C06820F040002168C86097
:10595000202084F841002046FCF771FE002010BD95
:1059600070B50546AC6B0020E085E0842046FCF76E
:1059700015FB70BD2DE9F84304460D4617469846C1
:10598000089E31E0701C70B3FBF714F9A0EB08001F
:10599000B04200D816B90320BDE8F8832068C0687B
:1059A00000F00400F8B1802D1ED0402D1CD02068DE
:1059B0000068C0F3C000B0B100BF002000902068B4
:1059C0000068009020684068009000BF00BF20463B
:1059D000FFF780FF0820606400BF002084F84000CB
:1059E00000BF0120D8E7FFE7206800682840A842F0
:1059F00001D1012000E00020B842C3D00020CBE755
:105A000010B5002804DB0A07130E054A135406E0FC
:105A10000A07140E034A00F00F031B1FD45410BDD5
:105A200000E400E018ED00E002480068C0F3022046
:105A3000704700000CED00E080ED070A704780ED34
:105A4000060A704780ED000A7047000010B52DED82
:105A5000048B044694ED070AD4ED080A30EE600A80
:105A600084ED090AD4ED090AB0EE600A00F0A2FC48
:105A7000B0EE408A94ED100AB4EEC80AF1EE10FAC6
:105A800006DD9FED790A84ED0A0ABDEC048B10BD9A
:105A900094ED020AD4ED090A20EE200A84ED0D0AE5
:105AA00094ED110AB5EEC00AF1EE10FA09D194EDA9
:105AB000110AB5EEC00AF1EE10FA02D1F7EE008A33
:105AC00039E094ED120AB4EEC80AF1EE10FA02DDE4
:105AD000F7EE008A24E094ED110AD4ED120A70EE7C
