:020000040800F2
:10000000D80F00202D0200087D270008EB200008F3
:1000100079270008AB0400089929000800000000B7
:10002000000000000000000000000000852700081C
:10003000AF0400080000000081270008872700089F
:10004000470200084702000847020008470200086C
:100050004702000883270008B1040008CF04000805
:1000600047020008D9040008E3040008470200081A
:10007000470200084702000847020008470200083C
:10008000470200084702000847020008470200082C
:10009000470200084702000847020008470200081C
:1000A000470200084702000847020008470200080C
:1000B00047020008A5270008B527000847020008E6
:1000C00047020008470200084702000847020008EC
:1000D0004702000847020008892900084702000873
:1000E000BB04000847020008470200084702000856
:1000F00047020008D5270008470200084702000809
:100100004702000847020008C52700084702000808
:10011000470200084702000847020008470200089B
:10012000470200084702000847020008470200088B
:10013000470200084702000847020008470200087B
:10014000470200084702000847020008470200086B
:10015000470200084702000847020008470200085B
:10016000470200084702000847020008470200084B
:10017000470200084702000847020008000000008C
:10018000470200084702000800F002F800F03EF8BD
:100190000AA090E8000C82448344AAF10107DA45E2
:1001A00001D100F033F8AFF2090EBAE80F0013F0F6
:1001B000010F18BFFB1A43F001031847E05200007B
:1001C00000530000103A24BF78C878C1FAD852070B
:1001D00024BF30C830C144BF04680C6070470000C1
:1001E0000023002400250026103A28BF78C1FBD840
:1001F000520728BF30C148BF0B6070471FB505F0DC
:10020000FEF800F007F91FBD10B510BD00F014F99D
:100210001146FFF7F3FF04F09BFA00F032F903B444
:10022000FFF7F2FF03BC00F039F9000009488047EE
:1002300009480047FEE7FEE7FEE7FEE7FEE7FEE7C8
:10024000FEE7FEE7FEE7FEE704480549054A064BE0
:10025000704700009127000889010008D809002094
:10026000D80F0020D80B0020D80B002053EA020C36
:1002700000F069802DE9F04B4FF00006002B1FBF06
:10028000B3FA83F503FA05F424FA05F65E4012BFCB
:100290001643B2FA82F502FA05F4C5F120051EBF35
:1002A00022FA05FC44EA0C04203556EA044C4FEAD5
:1002B000144418BF641C4FF000084FF0000990422E
:1002C00071EB030C39D3002919BFB1FA81F701FA98
:1002D00007F6B0FA80F700FA07F6C7F120071EBF4D
:1002E00020FA07FC46EA0C062037B6FBF4FCA7EB25
:1002F0000507103F07F01F0BCBF120060CFA0BFB94
:100300002CFA06F644BFB3460026202FA4BF5E4653
:100310004FF0000B5BEA060C08BF4FF0010B19EB26
:100320000B09ABFB027C48EB0608C01B06FB02CCAA
:100330000BFB03CC71EB0C01C1E70B4602464146B7
:100340004846BDE8F08B13B54FF000004FF00001B8
:10035000AFF30080BDE81C40704710B5203AC0F0F4
:100360000B80B1E81850203AA0E81850B1E81850B6
:10037000A0E81850BFF4F5AF5FEA027C24BFB1E8F3
:100380001850A0E8185044BF18C918C0BDE8104064
:100390005FEA827C24BF51F8043B40F8043B08BF6D
:1003A0007047D20728BF31F8023B48BF11F8012B34
:1003B00028BF20F8023B48BF00F8012B70474FF0E0
:1003C000000200B5134694469646203922BFA0E8A5
:1003D0000C50A0E80C50B1F12001BFF4F7AF0907B1
:1003E00028BFA0E80C5048BF0CC05DF804EB8900A2
:1003F00028BF40F8042B08BF704748BF20F8022BE5
:1004000011F0804F18BF00F8012B704770477047FC
:100410007047000070B5064C7C44064D7D4403E0F7
:10042000206820448047241DAC42F9D170BD0000F3
:10043000A0500000A0500000754600F02BF8AE461A
:1004400005006946534620F00700854618B020B5E0
:10045000FFF7FAFEBDE820404FF000064FF000071E
:100460004FF000084FF0000B21F00701AC46ACE85C
:10047000C009ACE8C009ACE8C009ACE8C0098D46C9
:10048000704710B50446AFF300802046BDE8104029
:10049000FFF7C5BE004870477409002001491820C5
:1004A000ABBEFEE726000200704700BFFEE77047C4
:1004B00010B5012000F0B0F810BD10B54FF4804029
:1004C00000F0AAF84FF4004000F0A6F810BD10B5F7
:1004D000022000F0A1F810BD10B5082000F09CF833
:1004E00010BD10B5102000F097F810BD72B600BF17
:1004F000FEE770B50446A56D00F0A4F9064694F831
:100500003500022808D08020606500BF002084F8F4
:10051000340000BF012070BD2068006820F0160084
:10052000216808602068406920F0800021684861E7
:10053000206C08B9A06C28B12068006820F0080081
:10054000216808602068006820F0010021680860C8
:1005500010E000F077F9801B05280BD9202060659A
:10056000032084F8350000BF002084F8340000BF69
:100570000320D0E72068006800F001000028E8D1DF
:1005800094F85C103F208840A860012084F8350072
:1005900000BF002084F8340000BF00BFBBE7014665
:1005A00091F83500022803D080204865012070476B
:1005B000052081F835000868006820F001000A680D
:1005C00010600020F3E7000070B5044600F03AF92F
:1005D00006462546681C10B104480078054400BF53
:1005E00000F030F9801BA842FAD370BD080000204B
:1005F00010B50446204602F07DFD012C05D0022CEA
:1006000003D0102C01D0082C03D12146014802F060
:1006100034FE10BD5000002010B5044604480068A8
:10062000204020B1024804602046FFF7E1FF10BDE2
:10063000143C0140F8B502460B460025002400207A
:100640000021D6E0012606FA01F51E6806EA050437
:10065000AC4274D11E7906F00306012E04D01E7937
:1006600006F00306022E13D190684F000326BE4009
:10067000B0434F00DE68BE403043906050680126B2
:100680008E40B0431E79C6F300168E403043506052
:100690001E7906F00306032E09D0D0684F0003260A
:1006A000BE40B0434F009E68BE403043D0601E79CC
:1006B00006F00306022E13D1CF0802F1200656F8E9
:1006C00027004E07F70E0F26BE40B0434F07FF0E20
:1006D0001E69BE403043CF0802F1200646F82700CD
:1006E00010684F000326BE40B0431E7906F0030693
:1006F0004F00BE40304310605E6806F44036002E66
:1007000076D000BF002600963C4E366846F4804600
:100710003A4F3E603E46366806F48046009600BF7B
:1007200000BF374E8F0856F827008E07370F0F2669
:10073000BE40B043334EB24202D1002624E057E01F
:10074000314EB24201D101261EE0304EB24201D1FB
:10075000022619E02E4EB24201D1032614E02D4E9E
:10076000B24201D104260FE02B4EB24201D1052640
:100770000AE02A4EB24201D1062605E0284EB242D6
:1007800001D1072600E008268F073F0FBE40304307
:100790001B4E8F0846F82700224E3068A0435E6843
:1007A00006F4801606B120431E4E3060361D3068B8
:1007B000A0435E6806F4001606B12043194E361DAC
:1007C0003060184E361F3068A0435E6806F400366D
:1007D00006B12043134E361F3060361F3068A043E9
:1007E0005E6806F4803606B120430E4E083E306047
:1007F000491C1029FFF426AFF8BD00004438024020
:100800000838014000000240000402400008024095
:10081000000C024000100240001402400018024088
:10082000001C0240083C0140024613690B400BB11A
:10083000012000E0002070470AB1816101E00B0453
:100840008361704701480068704700000000002085
:100850000348006803490978084401490860704763
:10086000000000200800002010B50D48006840F48A
:1008700000700B4908600846006840F4806008601A
:100880000846006840F480700860032000F0AEF86D
:100890000F2000F007F800F02BF8002010BD00003A
:1008A000003C024070B504460E4800784FF47A715F
:1008B000B1FBF0F00C490968B1FBF0F5284600F0F7
:1008C00037FC08B1012070BD102C07D20022214650
:1008D000501E00F04DF80548046001E00120F2E7E9
:1008E0000020F0E7080000200C0000200400002099
:1008F00008B500BF002000901248006840F4804016
:10090000104908600846006800F48040009000BF6D
:1009100000BF00BF00200090081F006840F080501A
:10092000091F08600846006800F08050009000BF72
:1009300000BF00221146052000F01AF8052000F043
:1009400003F808BD443802400146084600280DDB84
:1009500000BF00BF00F01F0301229A4043099B0023
:1009600003F1E023C3F8002100BF00BF00BF7047C0
:100970002DE9F05F80460D461646002703F056FD30
:10098000074639462A46334601F00700C0F1070AF8
:10099000BAF1040F02D94FF0040A01E0C0F1070ACE
:1009A000D14600F1040ABAF1070F02D24FF0000A53
:1009B00001E0A0F1030AD4464FF0010A0AFA09FA4D
:1009C000AAF1010A0AEA020A0AFA0CFA4FF0010B2C
:1009D0000BFA0CFBABF1010B0BEA030B4AEA0B041D
:1009E0002146404603F00EFDBDE8F09F00BF00F039
:1009F0000702064B19684FF6FF031940044B0B43DF
:100A000043EA0221014B196000BF70470CED00E082
:100A10000000FA0570B504460D460CB9012070BD02
:100A20005848006800F00700A84209D255490D70E7
:100A30000846006800F00700A84201D00120EEE758
:100A4000207800F0020002281DD1207800F0040078
:100A5000042805D14C48006840F4E0504A49086039
:100A6000207800F00800082805D14748006840F4C5
:100A70006040454908604448006820F0F000A168E3
:100A8000084341490860207800F00100A8B360687D
:100A9000012807D13C4808380068C0F34040B8B985
:100AA0000120BCE76068022802D06068032807D1F3
:100AB000354808380068C0F3406048B90120AEE707
:100AC000314808380068C0F3400008B90120A6E7A3
:100AD0002D48006820F00300616808432A49086037
:100AE000FFF7B0FE064609E0FFF7ACFE801B41F2BF
:100AF0008831884202D9032091E707E02248006844
:100B000000F00C006168B0EB810FEDD11D4800686A
:100B100000F00700A84209D91A490D70084600687C
:100B200000F00700A84201D0012078E7207800F00B
:100B30000400042807D11448006820F4E050E1685C
:100B4000084311490860207800F00800082808D1FF
:100B50000D48006820F46040216940EAC1000A495C
:100B6000086000F03FF808490968C1F30311074A1B
:100B7000515CC8400649086006480068FFF792FECD
:100B800000204CE7003C0240083802408454000832
:100B90000C0000200400002001480068704700009D
:100BA0000C00002000B5FFF7F7FF04490968C1F306
:100BB0008221034A515CC84000BD00000838024051
:100BC0009454000800B5FFF7E7FF04490968C1F332
:100BD0004231034A515CC84000BD00000838024061
:100BE000945400082DE9F047002400250026A14672
:100BF0002548006800F00C0020B1042805D0082822
:100C00003AD105E0DFF8849039E0DFF8849036E0EF
:100C10001D48001F006800F03F041B48001F0068CB
:100C200000F4800078B11A481749091F0968C1F318
:100C30008811A0FB01700146224600233846FFF7C9
:100C400015FB05460EE011480F49091F0968C1F35D
:100C50008811A0FB01700146224600233846FFF7A9
:100C600005FB05460848001F0068C0F30140401C12
:100C70004600B5FBF6F902E0DFF8109000BF00BFB8
:100C80004846BDE8F0870000083802400024F40020
:100C900040787D01F8B504460CB90120F8BD2078F4
:100CA00000F00100002874D0F948006800F00C0042
:100CB00004280DD0F648006800F00C00082813D175
:100CC000F348001F006800F48000B0F5800F0BD1DE
:100CD000EF4808380068C0F34040002859D06068E9
:100CE000002856D10120D9E700BF6068B0F5803FE9
:100CF00008D1E7480838006840F48030E4490839F2
:100D000008601EE06068B0F5A02F0DD1E0480838FB
:100D1000006840F48020DE49083908600846006811
:100D200040F4803008600CE0D9480838006820F4AE
:100D30008030D749083908600846006820F48020D0
:100D4000086000BF606890B1FFF77CFD054606E0D3
:100D5000FFF778FD401B642801D903209EE7CC48AB
:100D600008380068C0F340400028F1D011E0FFF7D8
:100D700069FD054606E0FFF765FD401B642801D9C3
:100D800003208BE7C24808380068C0F340400028C1
:100D9000F1D1207800F0020002285FD1BC48006841
:100DA00000F00C0058B1BA48006800F00C000828A8
:100DB0001CD1B748001F006800F48000B0B9B448E7
:100DC00008380068C0F3400020B1E068012801D075
:100DD000012063E7AE480838006820F0F800216978
:100DE00040EAC100AA490839086037E0E06800B36A
:100DF0000120A8490860FFF725FD054606E0FFF73A
:100E000021FD401B022801D9032047E7A0480838EC
:100E10000068C0F340000028F1D09D480838006801
:100E200020F0F800216940EAC100994908390860BA
:100E300014E0002097490860FFF704FD054606E02E
:100E4000FFF700FD401B022801D9032026E7904848
:100E500008380068C0F340000028F1D1207800F085
:100E6000080008282CD16069A8B101208A490860CF
:100E7000FFF7E8FC054606E0FFF7E4FC401B02280C
:100E800001D903200AE782486C300068C0F34000B3
:100E90000028F1D014E000207F490860FFF7D2FC61
:100EA000054606E0FFF7CEFC401B022801D90320CF
:100EB000F4E677486C300068C0F340000028F1D1B8
:100EC000207800F00400042870D1002770483830E2
:100ED000006800F0805090B900BF002000906C487E
:100EE0003830006840F08050694938310860084661
:100EF000006800F08050009000BF00BF01276748E5
:100F0000006800F48070B0B96448006840F48070F4
:100F100062490860FFF796FC054606E0FFF792FC81
:100F2000401B022801D90320B8E65C48006800F4A1
:100F300080700028F2D000BFA068012808D1544872
:100F40006830006840F001005149683108601DE0D8
:100F5000A06805280DD14E486830006840F00400B4
:100F60004B49683108600846006840F0010008609D
:100F70000CE047486830006820F0010044496831BF
:100F800008600846006820F00400086000BFA06800
:100F9000A8B1FFF757FC054609E0FFF753FC401BDB
:100FA00041F28831884202D9032077E626E03848AA
:100FB00068300068C0F340000028EED013E0FFF76F
:100FC00041FC054608E0FFF73DFC401B41F288313B
:100FD000884201D9032061E62D4868300068C0F3DB
:100FE00040000028EFD1012F07D129483830006890
:100FF00020F0805026493831086000BFA0690028E1
:1010000045D02348006800F00C0008285DD0A06996
:10101000022845D100201F490866FFF713FC05464A
:1010200006E0FFF70FFC401B022801D9032035E63C
:10103000174808380068C0F340600028F1D1D4E9AF
:1010400007010843616A40EA81110122A06AC2EBEC
:10105000500041EA00412C20005D41EA00600C494B
:10106000091F086001200B490866FFF7EBFB0546E6
:1010700006E0FFF7E7FB401B022801D903200DE63D
:10108000034808380068C0F340600028F1D049E008
:101090000838024000004742800E4742007000407E
:1010A000002021490866FFF7CDFB054606E0FFF763
:1010B000C9FB401B022801D90320EFE51B4800684B
:1010C000C0F340600028F2D12CE0A069012800D1D3
:1010D000E4E51648001D0668A069012820D006F442
:1010E0008001E06981421BD106F03F01206A814204
:1010F00016D147F6C0703040616AB0EB811F0FD146
:1011000006F440310122A06AC2EB5000B1EB004F5F
:1011100006D106F070612C20005DB1EB006F01D0AC
:101120000120BBE50020B9E500004742003802403D
:1011300070B504462546681EB0F1807F01D30120BA
:101140000FE0681E4FF0E02148610F214FF0FF30A3
:1011500003F058F900204FF0E02188610720086172
:10116000002070BD7047704710B50346002200BFD5
:1011700093F83C00012801D1022010BD012083F822
:101180003C0000BF22F0FF00CC6840EA040222F4D9
:1011900040708C6840EA040222F480604C6840EAA7
:1011A000040222F400600C6840EA040222F4805039
:1011B0000C6940EA040222F400504C6940EA04023F
:1011C00022F48040CC6940EA04021868426400BFFF
:1011D000002083F83C0000BF00BFCEE730B50246D8
:1011E0000B4600BF92F83C00012801D1022030BD1F
:1011F000012082F83C0000BF022082F83D00106808
:1012000044681068816824F070041868044310680A
:101210004460184D1068A8421BD01068B0F1804F90
:1012200017D0154D1068A84213D0144D1068A8426D
:101230000FD0134D1068A8420BD0124D1068A84271
:1012400007D0114D1068A84203D0104D1068A84275
:1012500005D121F0800158680143106881600120A8
:1012600082F83D0000BF002082F83C0000BF00BFB4
:10127000BDE70000000001400004004000080040FD
:10128000000C0040000401400040014000180040F4
:1012900010B504460CB9012010BD94F83D0028B9E2
:1012A000002084F83C00204600F026F8022084F854
:1012B0003D00211D206801F099FA012084F84600C4
:1012C00000BF84F83E0001213F2001554020015518
:1012D0004120015500BF00BF012084F84200432097
:1012E0000155442001554520015500BF012084F8D7
:1012F0003D000020D0E7000038B504464049206892
:10130000884218D100BF002000903E48006840F09D
:1013100004003C4908600846006800F004000090A2
:1013200000BF00BF002211461E20FFF721FB1E2038
:10133000FFF70AFB62E034492068884218D100BFF9
:10134000002000902F48006840F008002D490860F8
:101350000846006800F00800009000BF00BF0022AF
:1013600011463220FFF704FB3220FFF7EDFA45E08B
:1013700026492068884211D100BF002000902148F2
:10138000001D006840F480201E49091D08600846C1
:10139000006800F48020009000BF2FE01C49206806
:1013A00088420FD100BF002000901648006840F02E
:1013B0008000144908600846006800F08000009032
:1013C00000BF1BE013492068884217D100BF0020EE
:1013D00000900C48006840F480700A490860084694
:1013E000006800F48070009000BF00BF002211462A
:1013F0002D20FFF7BDFA2D20FFF7A6FA38BD00001B
:101400000008004040380240000C00400048014005
:10141000001C004000200040014691F83D000128DA
:1014200001D001207047022081F83D000868C068A3
:1014300040F001000B68D8601A4B086898421BD036
:101440000868B0F1804F17D0174B0868984213D046
:10145000164B086898420FD0154B086898420BD07D
:10146000144B0868984207D0134B0868984203D081
:10147000124B086898420CD10868806800F0070297
:10148000062A0CD00868006840F001000B6818605C
:1014900005E00868006840F001000B681860002053
:1014A000C0E70000000001400004004000080040C8
:1014B000000C0040000401400040014000180040C2
:1014C0002DE9F04104460D46002700BF94F83C008A
:1014D000012802D10220BDE8F081012084F83C00FF
:1014E00000BF022084F83D002068866826F0770659
:1014F00026F47F46206886602868502833D00CDCAC
:10150000202850D004DC00284BD0102851D149E0CD
:10151000302849D040284CD139E060282DD070289F
:1015200007D0B0F5805F03D0B0F5005F41D10DE08A
:1015300041E0D5E902136A68206801F0DCF920680F
:10154000866846F077062068866034E0D5E90213A5
:101550006A68206801F0CFF92068806840F4804014
:101560002168886027E0EA686968206802F0C9FCA1
:101570005021206802F0BCFC1DE0EA686968206820
:1015800002F0D2FC6021206802F0B2FC13E0EA68AD
:101590006968206802F0B5FC4021206802F0A8FCD0
:1015A00009E000BF00BF00BF2968206802F0A0FC6E
:1015B00001E0012700BF00BF012084F83D0000BF0B
:1015C000002084F83C0000BF384684E7704770B5BF
:1015D00004462068C5682068066906F002000228F3
:1015E00019D105F00200022815D1401F21680861B9
:1015F000012020772068806900F0030018B12046A0
:10160000FFF7E4FF05E0204600F07CF9204600F0FB
:1016100073FA0020207706F00400042819D105F0A1
:101620000400042815D1C0432168086102202077F6
:101630002068806900F4407018B12046FFF7C6FFAB
:1016400005E0204600F05EF9204600F055FA002043
:10165000207706F00800082819D105F008000828AE
:1016600015D1C04321680861042020772068C06933
:1016700000F0030018B12046FFF7A8FF05E0204660
:1016800000F040F9204600F037FA0020207706F0FD
:101690001000102819D105F01000102815D1C043F2
:1016A00021680861082020772068C06900F4407034
:1016B00018B12046FFF78AFF05E0204600F022F926
:1016C000204600F019FA0020207706F0010048B10A
:1016D00005F0010030B16FF001002168086120467B
:1016E00000F092FA06F08000802809D105F0800011
:1016F000802805D1C043216808612046FFF732FDEC
:1017000006F04000402809D105F04000402805D1EE
:10171000C04321680861204600F086FA06F02000E8
:10172000202809D105F02000202805D1C0432168D8
:1017300008612046FFF717FD70BD000010B586B0A8
:101740000446142101A8FEF73AFE63492068884246
:1017500039D100BF002000906048006840F00100CF
:101760005E4908600846006800F00100009000BF74
:1017700000BF00BF002000900846006840F0020053
:1017800008600846006800F00200009000BF00BF3B
:10179000C0200190022002900020039004900220BB
:1017A000059001A94E48FEF745FF03200190022055
:1017B00002900020039004900220059001A949485E
:1017C000FEF738FF86E04849206888421DD100BFF7
:1017D000002000904148006840F008003F49086040
:1017E0000846006800F00800009000BF00BF8814A1
:1017F00001900220029000200390049002200590A6
:1018000001A93A48FEF716FF64E03949206888428A
:101810001DD100BF002000903048006840F0040057
:101820002E4908600846006800F00400009000BFE0
:1018300000BFC0200190022002900020039004907D
:101840000320059001A92B48FEF7F4FE42E02A4947
:10185000206888421DD100BF002000901F4800680A
:1018600040F020001D4908600846006800F0200094
:10187000009000BF00BF8020019002200290002055
:10188000039004900320059001A91C48FEF7D2FEA6
:1018900020E01B49206888421CD100BF0020009036
:1018A0000E48006840F020000C49086008460068B7
:1018B00000F02000009000BF00BF881501900220BA
:1018C00002900020039004900920059001A90B4884
:1018D000FEF7B0FE06B010BD0004004030380240F4
:1018E000000002400004024000080040000C0240DA
:1018F000000401400008024000480140001402407A
:10190000001C004070472DE9F04104460D46164684
:10191000002700BF94F83C00012802D10220BDE856
:10192000F081012084F83C0000BF36B1042E1BD0AA
:10193000082E31D00C2E5ED145E02946206802F0F9
:1019400039FA2068806940F00800216888612068C1
:10195000806920F004002168886120688069296915
:1019600008432168886148E02946206800F0CEFFDE
:101970002068806940F4006021688861206880697F
:1019800020F480602168886120688069296940EAC4
:1019900001202168886130E02946206802F042FA7F
:1019A0002068C06940F008002168C8612068C069EB
:1019B00020F004002168C8612068C06929690843D3
:1019C0002168C86119E02946206802F067FA20689A
:1019D000C06940F400602168C8612068C06920F4D3
:1019E00080602168C8612068C069296940EA0120D7
:1019F0002168C86101E0012700BF00BF00BF0020CF
:101A000084F83C0000BF384689E710B504460CB99D
:101A1000012010BD94F83D0028B9002084F83C0056
:101A2000204600F025F8022084F83D00211D2068A2
:101A300000F0DCFE012084F8460000BF84F83E0080
:101A400001213F200155402001554120015500BF93
:101A500000BF012084F84200432001554420015575
:101A60004520015500BF012084F83D000020D0E74B
:101A700038B504461D492068884218D100BF0020AF
:101A800000901B48006840F00200194908600846B1
:101A9000006800F00200009000BF00BF0022114665
:101AA0001D20FEF765FF1D20FEF74EFF1DE01149CA
:101AB0002068884219D100BF002000900C48001D0A
:101AC000006840F002000A49091D086008460068E5
:101AD00000F00200009000BF00BF002211462D2040
:101AE000FEF746FF2D20FEF72FFF38BD0004004013
:101AF00040380240000401407047000070B50446C1
:101B00000D4615B994F83E000BE0042D02D13F209C
:101B1000005D06E0082D02D14020005D01E041207B
:101B2000005D012801D0012070BD1DB9022084F89C
:101B30003E000EE0042D03D102213F20015508E0B4
:101B4000082D03D102214020015502E0022141204D
:101B5000015501222946206800F0BCFE2349206877
:101B6000884203D022492068884201D1012000E048
:101B7000002028B12068406C40F40040216848648F
:101B80001A49206888421BD02068B0F1804F17D0D6
:101B900018492068884213D01749206888420FD01E
:101BA0001649206888420BD011492068884207D026
:101BB00013492068884203D01249206888420CD11A
:101BC0002068806800F00706062E0CD020680068A8
:101BD00040F001002168086005E02068006840F0DE
:101BE00001002168086000209EE70000000001401D
:101BF000000401400004004000080040000C0040C8
:101C0000004001400018004010B50446204600F096
:101C1000E9FF0348844202D1024801F04DFB10BDA8
:101C2000A407002050000020704770477047000054
:101C30002DE9F84F0446206805682068C6682068CA
:101C400047694FF00009CA4605F00F09B9F1000FC6
:101C50000AD105F0200038B106F0200020B120465E
:101C600002F08CFABDE8F88FB9F1000F7CD007F0D4
:101C7000010018B906F49070002875D005F0010035
:101C800030B106F4807018B1606C40F001006064FF
:101C900005F0040030B107F0010018B1606C40F0AD
:101CA0000200606405F0020030B107F0010018B1D5
:101CB000606C40F00400606405F0080048B106F074
:101CC000200010B907F0010018B1606C40F0080066
:101CD0006064606C002846D005F0200028B106F052
:101CE000200010B1204602F049FA20684069C0F394
:101CF000801A606C00F0080010B9BAF1000F2DD006
:101D0000204602F0E9FA2068406900F040004028CF
:101D100020D100BF00BF2168143151E8001F21F01D
:101D200040002168143141E80002002AF3D100BFCD
:101D3000E06B50B17748E16B0865E06BFEF72FFC74
:101D400088B1E06B016D88470DE02046FFF76EFF1C
:101D500009E009E02046FFF769FF04E02046FFF7AD
:101D600065FF002060647DE7206B012878D105F0D5
:101D70001000002874D006F010000028FAD000BF30
:101D80000020009020680068009020684068009063
:101D900000BF00BF2068406900F04000402860D1CB
:101DA000E06B006840681FFA80F8B8F1000F56D069
:101DB000A08D404553DDA4F82E80E06BC069B0F5DE
:101DC000807F43D000BF00BF21680C3151E8001F65
:101DD00021F4807021680C3141E80002002AF3D11F
:101DE00000BF00BF00BF2168143151E8001F21F07F
:101DF00001002168143141E80002002AF3D100BF3C
:101E000000BF00BF2168143151E8001F21F04000DD
:101E10002168143141E80002002AF3D100BF2020DC
:101E200084F842000020206300BF00BF21680C310D
:101E300051E8001F21F0100021680C3141E8000238
:101E4000002AF3D100BFE06BFEF753FB0220606372
:101E5000A08DE28D801A81B22046FFF7E6FE01E7F1
:101E600042E0A08DE18D401A1FFA80F8E08DD0B3DA
:101E7000B8F1000F37D000BF00BF21680C3151E826
:101E8000001F21F4907021680C3141E80002002A03
:101E9000F3D100BF00BF00BF2168143151E8001F1B
:101EA00021F001002168143141E80002002AF3D139
:101EB00000BF202084F842000020206300BF00BF44
:101EC00021680C3151E8001F21F0100021680C310D
:101ED00041E80002002AF3D100BF022060634146BE
:101EE0002046FFF7A2FEBDE605F0800030B106F007
:101EF000800018B1204602F0BFF9B3E605F04000BB
:101F000030B106F0400018B1204602F01BFAA9E6F5
:101F100000BFA7E66543000810B504460CB90120D0
:101F200010BDA06900B100E000BF94F8410028B9DD
:101F3000002084F84000204600F02AF8242084F88D
:101F400041002068C06820F400502168C860204625
:101F500001F0FEFF2068006920F4904021680861CC
:101F60002068406920F02A00216848612068C06824
:101F700040F400502168C86000206064202084F88C
:101F8000410084F842000020606300BFC8E7000001
:101F900010B586B00446142101A8FEF710FA1F49B7
:101FA0002068884237D100BF002000901C4800689C
:101FB00040F400301A4908600846006800F4003018
:101FC000009000BF00BF00BF0020009014481038F0
:101FD000006840F0010012491039086008460068A6
:101FE00000F00100009000BF00BF0C200190022013
:101FF000029000200390032004900720059001A97F
:102000000848FEF717FB002211462620FEF7B0FC19
:102010002620FEF799FC06B010BD000000440040E9
:10202000403802400000024070472DE9F84F044656
:102030000E46174699464FF0000A94F841002028B2
:1020400050D106B117B90120BDE8F88F00206064B7
:10205000212084F84100FEF7F5FB8246A784E7843F
:10206000A068B0F5805F04D1206910B90025B046A2
:1020700002E035464FF000081EE053460022802162
:102080002046CDF8009002F077F920B1202084F8A6
:1020900041000320D8E745B9B8F80000C0F30800B4
:1020A0002168486008F1020803E028782168486048
:1020B0006D1CE08C401EE084E08C0028DDD153468E
:1020C000002240212046CDF8009002F055F920B1C1
:1020D000202084F841000320B6E7202084F8410046
:1020E0000020B1E70220AFE7704700BFFEE7000025
:1020F00000B587B0142102A8FEF761F900BF0020E7
:102100000190A548006840F01000A3490860084607
:10211000006800F01000019000BF00BF00BF002069
:1021200001900846006840F0040008600846006816
:1021300000F00400019000BF00BF00BF002001902C
:102140000846006840F0200008600846006800F07B
:102150002000019000BF00BF00BF00200190084692
:10216000006840F0800008600846006800F08000C9
:10217000019000BF00BF00BF00200190084600682A
:1021800040F0010008600846006800F0010001907E
:1021900000BF00BF00BF002001900846006840F06B
:1021A000020008600846006800F00200019000BFCD
:1021B00000BF00BF002001900846006840F04000CA
:1021C00008600846006800F04000019000BF00BFB2
:1021D00000BF002001900846006840F00800086039
:1021E0000846006800F00800019000BF00BF002210
:1021F0003C216A48FEF720FB01224FF42841684841
:10220000FEF71AFB00224FF480416548FEF714FBED
:10221000002241F601616348FEF70EFB00224FF4F5
:1022200040716148FEF708FB0022C0215F48FEF7BD
:1022300003FB01224FF420415A48FEF7FDFA002229
:102240004FF4F0715A48FEF7F7FA3C200290012053
:10225000039000200490059002A95048FEF7EAF987
:1022600043200290002003900220049002A94B48D2
:10227000FEF7E0F94FF40050029000200390022096
:10228000049002A94848FEF7D5F9032002904FF4C4
:10229000881003900020049002A94148FEF7CAF973
:1022A0004FF46840029001200390002004900590B4
:1022B00002A93B48FEF7BEF94BF6016002900120EF
:1022C000039000200490059002A93648FEF7B2F969
:1022D0004FF4404002904FF4881003900220049085
:1022E00002A93348FEF7A6F94FF44070029001208E
:1022F000039000200490059002A92B48FEF79AF95C
:10230000C02002900120039000200490059002A9B3
:102310002648FEF78FF9182002904FF4881003909A
:102320000020049002A92248FEF784F94FF4F070CF
:1023300002900120039000200490059002A91C48FF
:10234000FEF778F9002211460620FEF711FB062061
:10235000FEF7FAFA002211460720FEF709FB0720D4
:10236000FEF7F2FA002211460920FEF701FB0920D0
:10237000FEF7EAFA002211460A20FEF7F9FA0A20CF
:10238000FEF7E2FA002211462820FEF7F1FA282093
:10239000FEF7DAFA07B000BD303802400010024004
:1023A000001402400018024000080240000C0240E5
:1023B0000004024000B587B01C216846FDF7FFFF0E
:1023C000154816490860A72048600021134881601D
:1023D00044F61F61C160002101618161FEF758FF71
:1023E00008B1FEF783F80D48FFF70FFB08B1FEF7C1
:1023F0007DF860200090002001900290049000225F
:1024000069460648FFF77FFA08B1FEF76FF8034800
:10241000FFF794F907B000BD0048014034080020E0
:1024200000B587B01C216846FDF7C9FF164817495B
:102430000860A720486000211448816044F61F61AD
:10244000C1600021016180218161FEF721FF08B197
:10245000FEF74CF80D48FFF7D8FA08B1FEF746F83A
:1024600060200090002001900290049000226946B4
:102470000648FFF748FA08B1FEF738F80348FFF7B7
:102480005DF907B000BD0000001C00407C08002082
:1024900010B50A480A490860A7204860002108488A
:1024A000816041F28731C160002101618161FEF7E5
:1024B000EFFE08B1FEF71AF810BD00000020004042
:1024C000C408002000B589B00020079008901C21A6
:1024D0006846FDF774FF24482449086000204860DE
:1024E00000212248816047F6FF71C160002101612F
:1024F00080218161FFF789FA08B1FDF7F7FF00201D
:102500000790089007A91948FEF768FE08B1FDF783
:10251000EDFF6020009000200190029004900022C6
:1025200069461248FFF7EFF908B1FDF7DFFF042213
:1025300069460E48FFF7E7F908B1FDF7D7FF082213
:1025400069460A48FFF7DFF908B1FDF7CFFF0C2213
:1025500069460648FFF7D7F908B1FDF7C7FF0348FA
:10256000FFF7ECF809B000BD00040040140700209C
:1025700000B58DB0002009900A900B900C90079048
:1025800008901C216846FDF71AFF20482049086082
:10259000A720486000211E48816040F2CF71C160D1
:1025A0000021016180218161FEF772FE08B1FDF713
:1025B0009DFF4FF48050099009A91548FEF780FF50
:1025C00008B1FDF793FF1248FFF71FFA08B1FDF7B6
:1025D0008DFF00200790089007A90D48FEF7FEFD2B
:1025E00008B1FDF783FF6020009000200190029069
:1025F0000490002269460648FFF785F908B1FDF707
:1026000075FF0348FFF79AF80DB000BD00080040C1
:102610005C07002000B587B000200390049005906F
:10262000069001900290144814490860A720486061
:1026300000211248816042F20F71C16000210161E6
:102640008161FEF725FE08B1FDF750FF4FF4805081
:10265000039003A90948FEF733FF08B1FDF746FFD1
:1026600000200190029001A90448FEF7B7FD08B1CF
:10267000FDF73CFF07B000BD000C0040A4070020A0
:1026800000B591B000200F9010901C2108A8FDF714
:1026900096FE20216846FDF792FE274827490860EC
:1026A000A720486000212548816040F2CF71C160B9
:1026B0000021016141618161FFF7A7F908B1FDF7D0
:1026C00015FF00200F9010900FA91C48FEF786FD03
:1026D00008B1FDF70BFF60200890002009900A90D8
:1026E0000B900C900D900E90002208A91348FFF754
:1026F0000AF908B1FDF7FAFE042208A90F48FFF70E
:1027000002F908B1FDF7F2FE00200090019002905E
:10271000039004904FF40050059000200790694604
:102720000648FEF721FD08B1FDF7E0FE0348FFF77C
:1027300005F811B000BD000000040140EC070020C6
:1027400010B50B480B4908604FF4E1304860002198
:1027500008488160C16001610C21416100218161F3
:10276000C161FFF7D9FB08B1FDF7C0FE10BD000045
:10277000004400400C09002000BFFEE700BFFEE758
:1027800070477047704710B5FEF762F810BD000043
:102790000348006840F47000014908607047000079
:1027A00088ED00E010B50248FEF711FF10BD0000F3
:1027B0001407002010B50248FEF709FF10BD000005
:1027C0005C07002010B50248FEF701FF10BD0000B5
:1027D000A407002010B50348FEF7F9FE0248FEF7F3
:1027E000F6FE10BDEC070020C408002010B50268FA
:1027F0002D4B98420ED0B0F1804F0BD02B4B98420E
:1028000008D02B4B984205D02A4B984202D02A4B35
:10281000984203D122F070024B681A43224B98422F
:1028200020D0B0F1804F1DD0204B98421AD0204BC1
:10283000984217D01F4B984214D01F4B984211D08A
:102840001E4B98420ED01E4B98420BD01D4B984207
:1028500008D01D4B984205D01C4B984202D01C4B0F
:10286000984203D122F44072CB681A4322F08003CD
:102870004C6943EA040202608B68C3620B6883629E
:10288000094B984202D00C4B984201D10B6903636B
:1028900001234361036903F001031BB1036923F0C2
:1028A0000103036110BD000000000140000400406E
:1028B00000080040000C00400004014000400140BE
:1028C000004401400048014000180040001C004046
:1028D0000020004030B501F01F05012404FA05F383
:1028E000046A9C430462046A01F01F0502FA05F5BC
:1028F0002C43046230BD30B50C46816821F47F4121
:1029000042EA032525432943816030BD30B5026A80
:10291000056A25F0100505624368846924F4E044E3
:1029200024F440740D6844EA052422F020028D68E6
:1029300042EA0512124DA84200D103E0114DA8420F
:1029400007D100BF22F08002CD6842EA051222F0D2
:1029500040020B4DA84202D00A4DA84209D123F4EF
:10296000806323F400634D6943EA85038D6943EA7C
:102970008503436084614D688563026230BD000059
:10298000000001400004014010B50248FFF750F973
:1029900010BD00000C09002000BFFEE710B54FF489
:1029A00000410648FDF740FF012800D110BD00207E
:1029B00000F08EFB00F022FB00BFF7E700040240AE
:1029C00010B500F039FB00F0EFF800F015F810BD7D
:1029D000044800680A2804DA03480068401C0249D9
:1029E00008607047140000201000002010B500F0AF
:1029F0002FF800F063F810BD10B5FA2000F07AF857
:102A000000210748FFF77AF804210548FFF776F818
:102A100040F6B830FDF7D8FD00F004F810BD000016
:102A2000EC07002000B5FA2000F064F800BD0000BB
:102A300006480088B0F57A7F00DD704703480088BB
:102A4000401C0249088000BFF7E700004400002056
:102A500010B5002240211048FDF7EEFE0022802133
:102A60000D48FDF7E9FE012251020C48FDF7E4FE96
:102A7000012291020948FDF7DFFE00224FF40061B8
:102A80000648FDF7D9FE00224FF480510348FDF7B8
:102A9000D3FE00F069F810BD000C0240001802409F
:102AA00010B5012240210448FDF7C6FE0022802116
:102AB0000148FDF7C1FE10BD000C024010B54FF4F7
:102AC000FA6240F23A21012000F068FA4FF4FA620B
:102AD000F021022000F062FA4FF4FA625110032054
:102AE00000F05CFA4FF4FA624FF45C71042000F0DD
:102AF00055FA10BD4100044A126851634100024A70
:102B00001268916370470000EC07002010B500F0D8
:102B100079F800F001F900F071F910BD10B5024824
:102B2000FEF77AFC10BD0000C408002010B5014675
:102B3000012901DB0F2900DD10BD4FF47A7292FBF1
:102B4000F1F000BF074A1268D062064AD06000BFA9
:102B5000024600EBD2735B10024C2468636300BF33
:102B6000EAE700005C07002010B50022402104487D
:102B7000FDF762FE012280210148FDF75DFE10BDD8
:102B8000000C0240064890F90000401C00B9704754
:102B900004480088401C0349088000BFF7E7000094
:102BA0004E0000204C00002010B540F24C4004497B
:102BB0000968486300210248FEF7A0FF10BD00002D
:102BC0007C08002040F24C40014909684863704786
:102BD0007C0800204FF4527001490968486370472F
:102BE0007C08002010B504460548844200D010BD82
:102BF000FFF71EFFFFF7ECFEFFF7C4FF00BFF6E78D
:102C0000C408002000B50C4800680A2812DA0B48F6
:102C10000949096850F8210009490968884209DC16
:102C200005480068401CFFF781FF03480068401C0E
:102C30000149086000BD00001400002018000020B9
:102C40001000002010B54FF4FA7004490968486379
:102C500000210248FEF752FF10BD0000340800209A
:102C600000B593B0302107A8FDF7A9FB142102A8F5
:102C7000FDF7A5FB00BF002001902548006840F04B
:102C80008050234908600846006800F08050019099
:102C900000BF00BF00BF002001901E48006840F444
:102CA00080401C4908600846006800F4804001909C
:102CB00000BF00BF0220079001200A9010200B9057
:102CC00002200D9000210E9108210F91A821109152
:102CD000022111910421129107A8FDF7DBFF08B131
:102CE000FDF704FC0F2002900220039000200490C6
:102CF0004FF4A05005904FF480500690052102A893
:102D0000FDF788FE08B1FDF7F1FB13B000BD000030
:102D1000403802400070004010B535480088002857
:102D20000BDB3448007840B9FFF754FF3148007896
:102D3000401C40B22F49087058E02D4800881428E4
:102D40000CDB2C480078012808D100F00BFA294848
:102D50000078401C40B22749087047E024480088AA
:102D6000DC280EDB2348007802280AD122480068BC
:102D7000FFF7C0FE1F480078401C40B21D49087094
:102D800034E01B480088B0F5EB7F0CDB1948007875
:102D9000032808D1FFF746FE16480078401C40B2D1
:102DA0001449087022E012480088B0F5027F0CDB5D
:102DB00010480078042808D1FFF7F0FD0D4800788E
:102DC000401C40B20B49087010E009480088B0F57B
:102DD000027F0BDB07480078052807D1FFF7F2FEDA
:102DE00004480078401C40B20249087010BD000041
:102DF00044000020460000204800002010B565482F
:102E0000008801280BDB6448007840B9FFF748FED2
:102E100061480078401C40B25F490870B8E05D48E6
:102E20000088022824DB5C480078012820D14FF478
:102E3000487240F23A2100F0B1F84FF44872F021A4
:102E4000022000F0ABF84FF448724FF47A7103207F
:102E500000F0A4F84FF448724FF45C71042000F0C5
:102E60009DF84D480078401C40B24B4908708FE0F7
:102E700048480088572811DB4748007802280DD1C0
:102E80004FF4FA7240F27B21012000F087F84248AB
:102E90000078401C40B24049087079E03D48008805
:102EA000BB2816DB3C480078032812D1C82240F228
:102EB0003A21012000F072F84FF4E16296210320DC
:102EC00000F06CF834480078401C40B23249087079
:102ED0005EE030480088ED2816DB2F480078042893
:102EE00012D14FF42F721146012000F057F84FF421
:102EF0002F72A021022000F051F827480078401CD2
:102F000040B22549087043E022480088B0F5C37FED
:102F10001EDB2148007805281AD14FF42F7240F2A9
:102F20008A21012000F03AF84FF42F7240F23A2142
:102F3000022000F033F84FF42F72CD21032000F06F
:102F40002DF815480078401C40B2134908701FE066
:102F500010480088B0F5E87F0CDD0F48007806289F
:102F600008D1FFF701FE0C480078401C40B20A4926
:102F700008700DE007480088B0F5F07F08DB0648D0
:102F80000078072804D1FFF799FDFF200249087057
:102F900010BD00004C0000204E00002070B5064619
:102FA0000C4615465520134908704870084686702F
:102FB0000720C870012008714C7120128871CD71F2
:102FC0002812087208460022022103E0435C1344E1
:102FD0009AB2491CC3789B1C8B42F7DCD14305484D
:102FE0004172C078C21C4FF0FF3302490248FFF71C
:102FF0001CF870BD540900200C09002010B50121F7
:103000000A48FDF711FC012800D110BD0020084935
:103010000860084908600120FFF788FD0122114679
:103020000248FDF709FC00BFEFE70000001802406E
:10303000100000201400002010B50122510319488F
:10304000FDF7FAFB0122D1021648FDF7F5FB01223C
:10305000D1031448FDF7F0FB012000F039F80022FD
:1030600001211148FDF7E8FB0120FFF75FFD00217A
:103070000E48FEF743FD4FF400410D48FDF7D4FB29
:1030800070B90A20FDF7A0FAFFF788FC01E0FFF70E
:10309000B9FD4FF400410648FDF7C6FB0028F6D005
:1030A00010BD000000140240001802405C07002020
:1030B0000004024010B54FF480410448FDF7B4FB12
:1030C00008B9012010BD0020FCE7000000140240F8
:1030D00010B50446012C05D1002281030448FDF7F8
:1030E000ABFB04E0012291030148FDF7A5FB10BDF5
:1030F0000014024010B50446B4F5804F03D0B4F577
:10310000004F27D113E04FF480411448FDF78CFBAA
:1031100001280BD1FFF7CEFF012807D100220121A2
:103120000F48FDF789FB0020FFF7D2FF13E04FF4B3
:1031300000410A48FDF778FB01280AD1FFF7BAFFE2
:1031400038B9002201210648FDF776FB0120FFF780
:10315000BFFF00E000BF00BF10BD00000004024040
:103160000018024010B54FF480410648FDF75CFBA3
:10317000012800D110BD0120FFF7AAFFFFF73EFF95
:1031800000BFF7E700040240014691F8580070477D
:1031900080F85810704710B50446606E60B9B4F8F6
:1031A0004A100022E06CFDF747FBB4F850100022F3
:1031B000606DFDF741FB1EE0606E00280CDDB4F889
:1031C0004A100122E06CFDF737FBB4F850100022E2
:1031D000606DFDF731FB0EE0606E00280BDAB4F88D
:1031E0004A100022E06CFDF727FBB4F850100122D2
:1031F000606DFDF721FB94F8480028B9606E01F07E
:1032000054FC2168486318E094F84800042805D16C
:10321000606E01F04AFC216888630EE094F8480073
:10322000082805D1606E01F040FC2168C86304E005
:10323000606E01F03AFC2168086410BD0FB430B52F
:1032400000F5D06104AA3CCA34313CC130BC5DF801
:1032500014FB70B504460E4684F8B066002509E0FC
:1032600005EB051101EB451104EBC100314600F0FF
:1032700020FC6D1C042DF3DB70BD70B505460C46BB
:10328000012C03D1284600F017FC13E0022C04D1D6
:1032900005F5C47000F010FC0CE0102C04D105F50D
:1032A000447000F009FC05E0082C03D105F593609B
:1032B00000F002FC70BD000070B52DED108B0446CF
:1032C000F7EE080ABFEE080A04F2B46001F0C2FB90
:1032D000F7EE080ABFEE080A04F5D76001F0BAFB62
:1032E000F0EE080AB8EE080A04F2BC6001F0B2FB86
:1032F0002046FFF749FF08B9012001E04FF0FF30F9
:10330000054601F00BFE41EC1A0B94F9C00601F0E2
:1033100005FE41EC1F0B9FED9F0B53EC102B01F0B2
:1033200015FE41EC1D0B04F5806090EDAD0A04F232
:10333000B460D0ED020A9FED991A01EE200AD0ED9B
:10334000010A30EE600A10EE101A084601F0E6FF9E
:1033500041EC1E0B53EC1D2B01F0E0FB41EC1C0B70
:103360009FED8F0B53EC102B01F080FC41EC1B0BFD
:1033700053EC1A2B01F0EAFD41EC190B01F09CFB18
:1033800008EE100AB0EE480A204600F08FFB04F564
:10339000C470FFF7F9FE08B9012001E04FF0FF30DB
:1033A000054601F0BBFD41EC1A0B94F9C10601F092
:1033B000B5FD41EC1F0B9FED770B53EC102B01F08B
:1033C000C5FD41EC1D0B04F5806090EDAD0A04F2E3
:1033D000B460D0ED020A9FED711A11EE200AD0ED13
:1033E000010A30EE600A10EE101A084601F096FF4E
:1033F00041EC1E0B53EC1D2B01F090FB41EC1C0B20
:103400009FED670B53EC102B01F030FC41EC1B0BD4
:1034100053EC1A2B01F09AFD41EC190B01F04CFB17
:1034200008EE100AB0EE480A04F5C47000F03EFB46
:1034300004F54470FFF7A8FE08B9012001E04FF041
:10344000FF30054601F06AFD41EC1A0B94F9C20603
:1034500001F064FD41EC1F0B9FED4E0B53EC102B64
:1034600001F074FD41EC1D0B04F5806090EDAD0A98
:1034700004F2B460D0ED020A9FED4B1A01EE200A6F
:10348000D0ED010A30EE600A10EE101A084601F085
:1034900045FF41EC1E0B53EC1D2B01F03FFB41ECB3
:1034A0001C0B9FED3F0B53EC102B01F0DFFB41ECAD
:1034B0001B0B53EC1A2B01F049FD41EC190B01F0E9
:1034C000FBFA08EE100AB0EE480A04F5447000F06A
:1034D000EDFA04F59360FFF757FE08B9012001E00B
:1034E0004FF0FF30054601F019FD41EC1A0B94F93D
:1034F000C30601F013FD41EC1F0B9FED260B53ECAF
:10350000102B01F023FD41EC1D0B04F5806090EDC4
:10351000AD0A04F2B460D0ED020A9FED231A11EE59
:10352000200AD0ED010A30EE600A10EE101A0846AB
:1035300001F0F4FE41EC1E0B53EC1D2B01F0EEFAF2
:1035400041EC1C0B9FED160B53EC102B01F08EFB86
:1035500041EC1B0B53EC1A2B01F0F8FC41EC190B5E
:1035600001F0AAFA08EE100AB0EE480A04F59360DA
:1035700000F09CFA002508E005EB051101EB451170
:1035800004EBC10000F0B8FA6D1C042DF4DBBDECB7
:10359000108B70BD7B14AE47E17A843F48E1DABE00
:1035A000000000403333B33F48E1DA3E0FB430B59A
:1035B000CFB004463D2253A904F5C460FCF7CDFE0C
:1035C0009DF8891184F85D169DF88A1184F85E16BD
:1035D0009DF88B1184F85F169DF88C1184F86016A5
:1035E0009DF88D1184F861169DF88E1184F862168D
:1035F0009DF88F1184F863169DF8901184F8641675
:103600009DF8911184F865169DF8921184F866165C
:103610003D2265A904F5CD60FCF79FFE9DF8D11110
:1036200084F8A5169DF8D21184F8A6169DF8D3113A
:1036300084F8A7169DF8D41184F8A8169DF8D51122
:1036400084F8A9169DF8D61184F8AA169DF8D7110A
:1036500084F8AB169DF8D81184F8AC169DF8D911F2
:1036600084F8AD169DF8DA1184F8AE163D2265A9EE
:103670003DA8FCF772FE9DF8D1018DF831019DF84F
:10368000D2018DF832019DF8D3118DF833119DF8D8
:10369000D4118DF834119DF8D5118DF835119DF8A0
:1036A000D6018DF836019DF8D7118DF837119DF8A8
:1036B000D8118DF838119DF8D9118DF839119DF870
:1036C000DA018DF83A013D2253A92BA8FCF745FEFB
:1036D0009DF889018DF8E9009DF88A018DF8EA00CE
:1036E0009DF88B118DF8EB109DF88C118DF8EC1076
:1036F0009DF88D118DF8ED109DF88E018DF8EE007E
:103700009DF88F118DF8EF109DF890118DF8F01045
:103710009DF891118DF8F1109DF892018DF8F2004D
:10372000DC484021DC4A0123CDE92632CDE92810CE
:1037300048223DA914A8FCF710FED648042108230E
:10374000CDE91030CDE9121000203C222EA90F90B7
:103750006846FCF702FE20462BA90EC900F06CFA61
:103760003D2265A93DA8FCF7F8FD9DF8D1018DF833
:1037700031019DF8D2018DF832019DF8D3118DF8F9
:1037800033119DF8D4118DF834119DF8D5118DF8B1
:1037900035119DF8D6018DF836019DF8D7118DF8B9
:1037A00037119DF8D8118DF838119DF8D9118DF881
:1037B00039119DF8DA018DF83A013D2253A92BA861
:1037C000FCF7CBFD9DF889018DF8E9009DF88A0191
:1037D0008DF8EA009DF88B118DF8EB109DF88C1197
:1037E0008DF8EC109DF88D118DF8ED109DF88E017F
:1037F0008DF8EE009DF88F118DF8EF109DF8901167
:103800008DF8F0109DF891118DF8F1109DF892014E
:103810008DF8F200A1484FF400519F4A0223CDE9F0
:103820002632CDE9281048223DA914A8FCF795FDC1
:10383000984820211023CDE91030CDE91210042042
:103840003C222EA90F906846FCF787FD04F5C47052
:103850002BA90EC900F0F0F93D2265A93DA8FCF79F
:103860007CFD9DF8D1018DF831019DF8D2018DF8D4
:1038700032019DF8D3118DF833119DF8D4118DF8D4
:1038800034119DF8D5118DF835119DF8D6018DF8BC
:1038900036019DF8D7118DF837119DF8D8118DF8A4
:1038A00038119DF8D9118DF839119DF8DA018DF88C
:1038B0003A013D2253A92BA8FCF74FFD9DF8890141
:1038C0008DF8E9009DF88A018DF8EA009DF88B11CA
:1038D0008DF8EB109DF88C118DF8EC109DF88D1182
:1038E0008DF8ED109DF88E018DF8EE009DF88F118A
:1038F0008DF8EF109DF890118DF8F0109DF8911152
:103900008DF8F1109DF892018DF8F20061480221C6
:10391000634A1023CDE92632CDE9281048223DA97B
:1039200014A8FCF71AFD5E4881158023CDE91030FC
:10393000CDE9121008203C222EA90F906846FCF712
:103940000CFD04F544702BA90EC900F075F9012196
:1039500004F54470FFF71CFC3D2265A93DA8FCF767
:10396000FCFC9DF8D1018DF831019DF8D2018DF854
:1039700032019DF8D3118DF833119DF8D4118DF8D3
:1039800034119DF8D5118DF835119DF8D6018DF8BB
:1039900036019DF8D7118DF837119DF8D8118DF8A3
:1039A00038119DF8D9118DF839119DF8DA018DF88B
:1039B0003A013D2253A92BA8FCF7CFFC9DF88901C1
:1039C0008DF8E9009DF88A018DF8EA009DF88B11C9
:1039D0008DF8EB109DF88C118DF8EC109DF88D1181
:1039E0008DF8ED109DF88E018DF8EE009DF88F1189
:1039F0008DF8EF109DF890118DF8F0109DF8911151
:103A00008DF8F1109DF892018DF8F2002148012106
:103A1000234A0823CDE92632CDE9281048223DA9C2
:103A200014A8FCF79AFC1E4840212023CDE9103051
:103A3000CDE912100C203C222EA90F906846FCF70D
:103A40008CFC04F593602BA90EC900F0F5F8012158
:103A500004F59360FFF79CFB002514E005EB0511CE
:103A600001EB451104EBC10101F168009FED0D2A46
:103A7000DFED0C1A9FED0C1ADFED0B0A9FED0A0A21
:103A800000F0F0FD6D1C042DE8DB4FB030BC5DF89C
:103A900014FB000000100240001402400008024025
:103AA000000402400000804F0000000080ED5F0A2B
:103AB000704780F86811704710B50446B4F860117B
:103AC000D4F86401FCF7B0FE08B9012000E0002042
:103AD00094F8581009B9012100E00021484028B9A4
:103AE000D4F86C01401EC4F86C0104E0D4F86C01F9
:103AF000401CC4F86C0110BD10B52DED028B0446BE
:103B000004F5B474D4E90101401A08EE100A94EDEA
:103B1000030AF8EEC80A80EE801A94ED060A31EE28
:103B2000000A84ED060A94ED030AB8EEC81AC1EE45
:103B3000000A9FED400A80EE801A84ED041A606846
:103B4000A0602078A4F5B47480B9D4ED5F0A94ED38
:103B5000180AB8EEC00A20EE800AD4ED170A80EEEB
:103B6000201ABDEEC10A84ED190A56E094F86801E6
:103B700001281CD1D4ED5E0AB0EE600A04F16800A1
:103B800000F07EFDD4ED5F0AB0EE600A04F168003B
:103B900000F054FC04F1680000F054FC04F16800EB
:103BA00000F06BFDBDEEC00A84ED190A35E094F813
:103BB0006801022831D1D4ED610AB0EE600A04F147
:103BC000BC0000F03BFCD4ED600AB0EE600A04F1EA
:103BD000BC0000F055FD04F1BC0000F033FC04F122
:103BE000BC0000F04AFDF0EE408A04F1680000F0ED
:103BF00025FCD4ED5E0AB0EE600A04F1680000F026
:103C00003FFD04F1680000F01DFC04F1680000F0C5
:103C100034FDBDEEC00A84ED190A47F6FF72514229
:103C200004F1640000F02AFF2046FFF7B4FABDEC6F
:103C3000028B10BD0AD7233C0FB42DE9F05F044678
:103C4000DDE934AB1DAD95E8E0033D220BA920462C
:103C5000FCF783FB9DF8690084F83D009DF86A003D
:103C600084F83E009DF86B103F2001559DF86C10C4
:103C7000402001559DF86D10412001559DF86E00C2
:103C800084F842009DF86F10432001559DF8701094
:103C9000442001559DF87110452001559DF8720092
:103CA00084F8460084F84850A4F84A60E764A4F811
:103CB0005080C4F854903D2222A904F58870FCF786
:103CC0004CFB9DF8C51084F84D119DF8C61084F882
:103CD0004E119DF8C71084F84F119DF8C81084F854
:103CE00050119DF8C91084F851119DF8CA1084F83C
:103CF00052119DF8CB1084F853119DF8CC1084F824
:103D000054119DF8CD1084F855119DF8CE1084F80B
:103D10005611A4F858A1C4F85CB13698A4F8600113
:103D20003798C4F8640129460BA8FDF7E7FEBDE803
:103D3000F01F5DF814FB000010B50446002184F864
:103D400058109FED190A84ED170A47F6FF71216696
:103D5000002104F16800616600F096FCA0F168049F
:103D6000543000F091FCA0F1BC04012084F86801FB
:103D70000020C4F86C019FED0D0AC4F8700184EDB9
:103D80005D0A9FED0B0A84ED5E0A9FED090A84ED42
:103D90005F0A9FED070A84ED600A9FED050A84ED36
:103DA000610A204610BD000027AFC04127745F4262
:103DB0000000000030B5026A056A25F001050562C1
:103DC0004368846924F0700424F003040D682C43D4
:103DD00022F002028D682A43104DA84200D103E070
:103DE0000F4DA84206D100BF22F00802CD682A4339
:103DF00022F00402094DA84202D0094DA84207D181
:103E000023F4807323F400734D692B438D692B4396
:103E1000436084614D684563026230BD000001402B
:103E20000004014030B5026A056A25F48075056218
:103E30004368C46924F0700424F003040D682C4323
:103E400022F400728D6842EA0522124DA84200D188
:103E500003E0114DA84207D100BF22F40062CD68F3
:103E600042EA052222F480620A4DA84202D00A4D9D
:103E7000A84209D123F4805323F400534D6943EA47
:103E800005138D6943EA05134360C4614D68C5633A
:103E9000026230BD000001400004014030B5036AF9
:103EA000056A25F4805505624468C26922F4E0423F
:103EB00022F440720D6842EA052223F400538D6813
:103EC00043EA0533084DA84202D0084DA84204D168
:103ED00024F480444D6944EA85144460C2614D680D
:103EE0000564036230BD0000000001400004014091
:103EF0000A46816821F0700142F00703194381608E
:103F0000704730B50B461446026A056A25F0010574
:103F10000562816921F0F00141EA041122F00A02F0
:103F20001A438161026230BD30B50B461446026A05
:103F3000056A25F010050562816921F4704141EAA6
:103F4000043122F0A00242EA03128161026230BD14
:103F50002DE9F84F04462068006920F44050E168DC
:103F60000843216808612169A06808436169084322
:103F7000E169084300902068C06849F20C618843F9
:103F8000009908432168C8602068406920F44070A7
:103F9000A16908432168486176492068884203D0B6
:103FA00075492068884203D1FCF70CFE814602E087
:103FB000FCF7F8FD8146E069B0F5004F6CD10220B6
:103FC0006168A0FB015003461920A9FB007001465F
:103FD0002A463846FCF74AF96421B0FBF1F04FEA73
:103FE000001A02206168A0FB01510B461920A9FBB1
:103FF00000712A463846FCF739F983460220616889
:10400000A0FB015003461920A9FB00712A4638463F
:10401000FCF72CF96421B0FBF1F000EBC00101EBDF
:104020000010ABEB8000322101EBC0006421B0FB3B
:10403000F1F000F0F8000AEB400A02206168A0FBF2
:10404000015003461920A9FB007001462A46384654
:10405000FCF70CF9834602206168A0FB015003467F
:104060001920A9FB00712A463846FCF7FFF86421A5
:10407000B0FBF1F000EBC00101EB0010ABEB8000F6
:10408000322101EBC0006421B0FBF1F000F0070029
:104090005044216888606AE004206168A0FB0150F8
:1040A00003461920A9FB007001462A463846FCF752
:1040B000DDF8824604206168A0FB01500346192008
:1040C000A9FB007001462A463846FCF7CFF8642168
:1040D000B0FBF1F000EBC00101EB0010AAEB800097
:1040E000322101EB00106421B0FBF1F000F0F00A86
:1040F00004206168A0FB017003461920A9FB005150
:104100003A462846FCF7B2F86421B0FBF1F00AEB1E
:10411000001A04206168A0FB01510B461920A9FB7D
:1041200000712A463846FCF7A1F8834604206168EE
:10413000A0FB015003461920A9FB007001462A4646
:104140003846FCF793F86421B0FBF1F000EBC001B6
:1041500001EB0010ABEB8000322101EB0010642179
:10416000B0FBF1F000F00F00504421688860BDE81A
:10417000F88F00000010014000140140F8B504461B
:1041800094F84200222875D1A068B0F5805F0CD168
:10419000206950B90025A66A20684068C0F308006D
:1041A0003080A06A801CA06215E0A56A0026A06885
:1041B000B0F5805F03D0A06828B9206918B92068DD
:1041C0004068287004E02068406800F07F00287094
:1041D000A06A401CA062E08D401E80B2E0850028ED
:1041E00046D12068C06820F020002168C86020689F
:1041F000C06820F480702168C8602068406920F0A1
:10420000010021684861202084F84200002060639A
:10421000206B012826D10020206300BF00BF216849
:104220000C3151E8001F21F0100021680C3141E8E9
:104230000002002AF3D100BF2068006800F01000DF
:1042400010280AD100BF002000902068006800906C
:1042500020684068009000BF00BFA18D2046FDF798
:10426000E4FC02E02046FDF7DFFE0020F8BD01E09F
:104270000020FBE70220F9E7014691F841002128E0
:1042800028D18868B0F5805F0BD1086948B90A6AFF
:104290001088C0F308000B685860086A801C086228
:1042A00005E00B6A581C086218780B685860C88CC7
:1042B000401E80B2C88458B90868C06820F08000E9
:1042C0000B68D8600868C06840F040000B68D86090
:1042D000002070470220FCE700BF00BF02680C32DC
:1042E00052E8002F22F4907102680C3242E8001369
:1042F000002BF3D100BF00BF00BF0268143252E8A8
:10430000002F22F001010268143242E80013002B52
:10431000F3D100BF016B01290ED100BF00BF0268BD
:104320000C3252E8002F22F0100102680C3242E8F1
:104330000013002BF3D100BF202180F84210002190
:104340000163704710B504462068C06820F0400043
:104350002168C860202084F841002046FDF7C4FE93
:10436000002010BD70B50546AC6B0020E085E084F0
:104370002046FDF75BFC70BD2DE9F84304460D4671
:1043800017469846089E31E0701C70B3FCF75AFA45
:10439000A0EB0800B04200D816B90320BDE8F883AE
:1043A0002068C06800F00400F8B1802D1ED0402DB8
:1043B0001CD020680068C0F3C000B0B100BF00206E
:1043C000009020680068009020684068009000BF5E
:1043D00000BF2046FFF780FF0820606400BF002078
:1043E00084F8400000BF0120D8E7FFE7206800689C
:1043F0002840A84201D1012000E00020B842C3D0EB
:104400000020CBE710B5002804DB0A07130E054A8D
:10441000135406E00A07140E034A00F00F031B1F93
:10442000D45410BD00E400E018ED00E0024800683C
:10443000C0F30220704700000CED00E080ED060A9A
:104440007047000010B52DED048B044694ED060A6C
:10445000D4ED070A30EE600A84ED080AD4ED080AAC
:10446000B0EE600A00F014FBB0EE408A94ED100A42
:10447000B4EEC80AF1EE10FA06DD9FED790A84ED7C
:10448000090ABDEC048B10BD94ED010AD4ED080AB5
:1044900020EE200A84ED0D0A94ED110AB5EEC00A53
:1044A000F1EE10FA09D194ED110AB5EEC00AF1EE61
:1044B00010FA02D1F7EE008A39E094ED120AB4EE58
:1044C000C80AF1EE10FA02DDF7EE008A24E094ED5E
:1044D000110AD4ED120A70EE200A94ED120AB4EE1D
:1044E000C80AF1EE10FA01D8012000E0002000EE29
:1044F000100AB8EEC00AF4EEC00AF1EE10FA0BDDB5
:1045000094ED110AD4ED120A30EE200A30EE480A7A
:10451000D4ED110AC0EE208A94ED120AB4EEC80A56
:10452000F1EE10FA03D89FED4E0AF0EE408A94EDBA
:104530000B0AD4ED000A60EEA80A94ED081A00EE0A
:10454000810A84ED0B0A94ED040AB5EEC00AF1EE7F
:1045500010FA19D094ED040AD4ED020A80EE201A64
:10456000B0EE419A94ED040AB1EE400AD4ED020A8D
:1045700080EE201AF0EE419AF0EE490AB0EE690A98
:1045800004F12C0000F066FA94ED130AB5EEC00AAF
:10459000F1EE10FA08D194ED020AD4ED0B0A20EEE8
:1045A000200A84ED0E0A13E094ED130AB4EEC80A53
:1045B000F1EE10FA08DD94ED020AD4ED0B0A20EEBC
:1045C000200A84ED0E0A03E09FED250A84ED0E0A11
:1045D00094F8500001280CD194ED070AD4ED0A0A92
:1045E00030EE600AD4ED030A20EE200A84ED0F0AB3
:1045F0000BE094ED080AD4ED0C0A30EE600AD4ED1D
:10460000030A20EE200A84ED0F0A94ED080A84EDD7
:104610000C0A94ED070A84ED0A0A94ED0D0AD4ED14
:104620000E0A30EE200AD4ED0F0A30EE200A84ED97
:10463000090A94ED050AB5EEC00AF1EE10FA0DD0A4
:1046400094ED051AF0EE410A94ED051AB1EE411A07
:10465000B0EE410A04F1240000F0FCF900BF10E7BD
:104660000000000080ED010AC0ED020A80ED031A8F
:10467000C0ED041A80ED052A704790ED090A7047D5
:1046800080ED070A704700009FED190A80ED000ACF
:104690009FED180A80ED060A9FED160A80ED070AC5
:1046A0009FED140A80ED080A9FED120A80ED090AB9
:1046B0009FED100A80ED0D0A9FED0E0A80ED0E0AA7
:1046C0009FED0C0A80ED0F0A9FED0A0A80ED100A9B
:1046D0009FED080A80ED110A9FED060A80ED120A8F
:1046E0009FED040A80ED130A002180F850107047F6
:1046F0000AD7233C000000002DE9F0411C46174674
:104700000E00804607D0054602E02846B0473D44EB
:104710002046641EF9D24046BDE8F08170B5094CD0
:1047200004234FF4C47208492046FFF7E5FF04460E
:10473000012084F8B00604F5D060044D2ECD34304D
:104740002EC070BD50000020393D00087454000890
:10475000E2B0FCF789F8FEF783FAFDF7C9FCFDF734
:1047600007FFFDF757FFFDF793FEFDF759FEFDF735
:10477000A9FEFDF7E5FFFDF71DFEFDF781FFFEF742
:10478000CDF9FEF71DF9FEF75DFAFEF72FF90021CE
:10479000AC48FDF7B3F93D22AB4934A8FBF7DDFD8A
:1047A000A94890F83D008DF80D01A74890F83E000B
:1047B0008DF80E01A44890F83F108DF80F1190F875
:1047C00040108DF8101190F841108DF8111190F8EB
:1047D00042008DF812019C4890F843108DF8131197
:1047E00090F844108DF8141190F845108DF81511BB
:1047F00090F846008DF816013D22924922A8FBF759
:10480000ACFD904890F83D008DF8C5008D4890F8BB
:104810003E008DF8C6008B4890F83F108DF8C71009
:1048200090F840108DF8C81090F841108DF8C9101C
:1048300090F842008DF8CA00824890F843108DF835
:10484000CB1090F844108DF8CC1090F845108DF8EE
:10485000CD1090F846008DF8CE00482234A90FA85C
:10486000FBF77BFD3C2225A96846FBF776FD7748E0
:1048700022A90EC9FEF79AFE00217448FEF7E9FC52
:104880007148FCF7C9FD724B0FCB61935EAB07C358
:104890006F4A1032D2E90030D2E902125A935BAB70
:1048A00007C36B4B2033D3E901021968DB685993C6
:1048B000589256915790664A303292E80B00D2686F
:1048C0005493559253915290614B40330FCB519377
:1048D0004EAB07C35E4B5033D3E901021968DB6866
:1048E0004D934C924A914B900020469047904890AF
:1048F0004990A6E0FEF70AF949980090534846A966
:104900000EC9FEF79BFC4FF4FA60FBF75DFE5D9865
:1049100000904E485AA90EC9FEF790FC4FF4FA6079
:10492000FBF752FE49980090484846A90EC9FEF789
:1049300085FC4FF47A70FBF747FE6198009043487E
:104940005EA90EC9FEF77AFC4FF4FA60FBF73CFE55
:10495000499800903D4846A90EC9FEF76FFC4FF4F8
:104960007A70FBF731FE59980090384856A90EC965
:10497000FEF764FC4FF4FA60FBF726FE49980090BE
:10498000324846A90EC9FEF759FC4FF47A70FBF77E
:104990001BFE519800902D484EA90EC9FEF74EFC03
:1049A0004FF4FA60FBF710FE49980090274846A99B
:1049B0000EC9FEF743FC4FF47A70FBF705FE4D98E5
:1049C000009022484AA90EC9FEF738FC4FF4FA605D
:1049D000FBF7FAFD499800901C4846A90EC9FEF75E
:1049E0002DFC4FF47A70FBF7EFFD559800901748B7
:1049F00052A90EC9FEF722FC4FF4FA60FBF7E4FD62
:104A000049980090114846A90EC9FEF717FC4FF4CB
:104A10007A70FBF7D9FD5D9800900C485AA90EC931
:104A2000FEF70CFC4FF4FA60FBF7CEFD49980090BE
:104A3000064846A90EC9FEF701FC4FF47A70FBF751
:104A4000C3FD57E714070020A407002050000020F2
:104A50001454000890ED001AB4EEC01AF1EE10FAEA
:104A600002D280ED000A08E090ED001AB4EEE01AE0
:104A7000F1EE10FA01DDC0ED000A704703688B42C9
:104A800001DA016003E00368934200DD02607047D1
:104A9000F0EE400AF5EEC00AF1EE10FA02DDB0EEDB
:104AA000600A7047B1EE600AFBE70146002901DDAC
:104AB000084670474842FCE721F00042A2F16052EC
:104AC000B2F5801F01F0004328BFD2F17F6C0BD9F3
:104AD0005FEA001C43EAC20242EB507018BF704705
:104AE00028BF20F001007047B2F5801FBCBF1846F8
:104AF00070474FEA410C1CF5001F02D2084600F037
:104B000083BC70B500F0CCFA00000089FFF7F6BF57
:104B10004FF00040A0F580007047000010B591EA0A
:104B2000030F48BF83F0004300F11683841A71EB32
:104B3000030C05D2121943EB0C03001B61EB0C01B3
:104B4000DFF824E14FEA1154A4EB135C1EEA430F93
:104B500018BF9EEA445F73D023EA0E03DCF1200EF7
:104B600021EA045143F4801332D322FA0CFE10EBF5
:104B70000E0023FA0CFE41EB0E01CCF1200E03FADD
:104B80000EFE10EB0E0051F10001B1F5801FCCF1CB
:104B9000200E32D201EB045112FA0EF2BDE81040A1
:104BA00058BF7047401C38BF5FEA420218BF7047C9
:104BB000002814BF20F0010041F100014FEA410339
:104BC00013F5001F38BF7047A1F1C04100F0B6BA1D
:104BD000012A43EB0302ACF1200CDCF11F0E32BFC3
:104BE0004FF0000E23FA0CF310EB030041EB0451DD
:104BF000B4EB115FD0D0A1EB045101F5801149084D
:104C00005FEA300001EB04510ED350F1000038BFD1
:104C100012FA0EFE08D1BDE81040C9E7401C38BFAB
:104C20005FEA4202CAD1C3E7BDE810404FEA410340
:104C300013F5001F38BF7047A1F1C04100F07EBAE4
:104C40009EEA445F08D011EA5E0FBDE8104004BF41
:104C500001F0004100207047BDE8104070B500F041
:104C60001FFA00BF64FBBE3E0000E0FF2DE9C0411B
:104C700030B4DFF8A0C23CEA111418BF3CEA1314A8
:104C800000F0EC8081EA03051CEA111444EAD574B3
:104C900018BF1CEA131500F0C780A4EB05044FF001
:104CA000004545EAC12145EAC32341EA505143EAA0
:104CB000525304F17F74994204F500344FEAC02046
:104CC0004FEAC22208BF904200F09C804FEA136571
:104CD0000FF24016765D4FEA134506FB05F7C7F164
:104CE000807706FB07F74FEAD737A7FB03687642C2
:104CF000C8F58038A7FB06CE38BFA8F1010807FB2E
:104D000008E64FF0000EA6FB028CE6FB03CEDCF1BA
:104D1000000CCEF1004E38BFAEF1010EA6FB0C58D0
:104D20004FF000074FF00005E6FB0E87A1FB08C619
:104D3000A0FB07CE16EB0E0645F10005E1FB07656B
:104D400015F1E04E7EBFA4F580345FEA46066D4162
:104D500016F1800745F100054FEA17274FEA06666E
:104D600047EA0567A6F1DE46B6F1805F4FEA1525F2
:104D70001FD9384624F0010C05EBC471BCF1FE6F5D
:104D800001EB0C1102D8F0BCBDE8008124425CBFED
:104D900001F5801E9EEAC47F02D4F0BCBDE800810C
:104DA000244238D4F0BCA1F1C041BDE8004100F07C
:104DB000C5B94FEAD22242EA43524FEAD323A7FBB6
:104DC00002864FEAD02040EA415007FB03661EEA04
:104DD0000E0F4FEAD12105FB026658BFA6EB005625
:104DE000B6EB00564FEA520E4EEAC37E18EB0E0E9B
:104DF00056EB530EBDD518EB02085E417F1C55F1F2
:104E00000005B6E74FF480154FF000074FF000069D
:104E10004FF00008ADE7F0BC4FF0000001F1C041D9
:104E200001F00041BDE8008111EA0C1F0CEA1315E6
:104E300000D00CE013EA0C1F00F025804FF00000BA
:104E4000F0BC81EA030101F00041BDE80081F0BC43
:104E5000BDE8004181EA030100F070B9F0BCBDE893
:104E6000004170B500F01CF9097EFC3E00F007B867
:104E700081EA03014FF0000001F00041704781EA30
:104E8000030100F05BB9F0BCBDE800414FF0000049
:104E900021497047FFFDFBF9F7F5F4F2F0EEEDEB79
:104EA000E9E8E6E4E3E1E0DEDDDBDAD8D7D5D4D328
:104EB000D1D0CFCDCCCBCAC8C7C6C5C4C2C1C0BF74
:104EC000BEBDBCBBBAB9B8B7B6B5B4B3B2B1B0AF7A
:104ED000AEADACABAAA9A8A8A7A6A5A4A3A3A2A15E
:104EE000A09F9F9E9D9C9C9B9A9999989797969519
:104EF00095949393929191908F8F8E8E8D8C8C8BB5
:104F00008B8A89898888878786858584848383823C
:104F1000828181800000FF070000F87F10F00042CE
:104F200048BF4042B0FA80F310FA03F10AD0C3F14F
:104F30001D0303F580634FEA415002EB035202EB7D
:104F4000D12170474FF0000070470000DFF848C1E2
:104F500070B51CEA111E1EBF1CEA13159EEA0C0F49
:104F600095EA0C0F00F06F8081EA030423EA4C13EA
:104F70004EEAD47E21EA4C1141F4801143F48013AF
:104F8000AE44A1FB024CA0FB0365AEF17F7E361957
:104F900055EB0C05A1FB034C4CF10003A0FB021CDC
:104FA00016EB0C06654153F10003094218BF46F0A9
:104FB000010613F4007F0BD14FEA03314FEA0530AD
:104FC000340341EA155140EA16506FF003020AE03B
:104FD0004FEAC3214FEAC520F40241EA555140EAA5
:104FE00056506FF0020202EB2E4201EB025585EAA9
:104FF000CE710AD05FEA440C18BF24F0004450F18F
:10500000000041F1000120EAD47040F2FE7C6245CC
:1050100000D270BDA84214BF4FF080444FF040440E
:10502000002E08BF0024BEF1806FA8BFA1F1C041CF
:10503000BDE8704080F282804FF0000001F1C04175
:1050400001F0004170479EEA0C0F0CEA131518BFDF
:1050500095EA0C0F06D04FF0000081EA030E0EF027
:10506000004170BD00F01CF88900013E00F007B857
:1050700000F009B84FEA430C5FEA5C5C08D081EAB3
:10508000030100F05BB84FEA410C5FEA5C5CF6D1CB
:105090004FF00000014970470000FF070000F87F53
:1050A0000EF1020E2EF0030E5EF8046B364205D4AC
:1050B000012A43EB030515F5001F12D8012841EB27
:1050C000010C1CF5001F0CD80ED14FEAD17C15F550
:1050D000001F0CEB4C0C0CF1020C08BF4CEBD37C0A
:1050E00004E04FF0080C01E04FEAD37C0CEB4C05D8
:1050F00026FA05F606F00706B6F1040C06D20EEB0A
:10510000860CBDE870404CF0010C6047DFE80CF005
:10511000090B02024FF000414FF00000A1F5002101
:1051200070BD19461046012851EB010418BFD4F593
:10513000001484BF002001F0004170BD0808A0F5F4
:1051400000114FEA3101704710B591EA030F48BFD3
:1051500083F000433FF5EAAC841A71EB030C07D2ED
:1051600012198CF0004C43EB0C03001B61EB0C019B
:10517000DFF8A4E14FEA1154A4EB135C1EEA430FDD
:1051800018BF9EEA445F00F0B08023EA6E035242EB
:1051900021EA0451C3EB6E0338BF5B1EDCF1200E25
:1051A00025D322FA0CFE10EB0E0043FA0CFE41EB65
:1051B0000E01CCF1200E03FA0EFE10EB0E0051F1A1
:1051C0000001CCF1200E29D412FA0EF201EB0451A9
:1051D000BDE8104058BF7047401C1CBFB2F1004FE3
:1051E000704700280CBF491C20F00100704712EBEB
:1051F000020E43EB030218BF4FF0010E4EEA4202CB
:10520000ACF1200CDCF11E0E54D943FA0CFE10EB6D
:105210000E0051F1FF31CCF11E0ED5D50EF1010E6D
:1052200012FA0EFE404141EB010101EB445C5FEAE2
:105230005C5C10D910EBDE7001EB045138BFBEF19D
:10524000004FBDE8104018BF704700280CBF491C34
:1052500020F00100704730D24FEAD42C11F5001134
:1052600024F400641BD0B1FA81F20B3AA41AA41EF4
:10527000D2F12003914030FA03F31943904001EB3F
:10528000CC71002C01EB0451BDE81040A8BF704761
:1052900001F1C0414FF0000001F000417047B0FA49
:1052A00080F310FA03F100D110BDE41A173C480551
:1052B000C90AE4E701EB045110BD491001EB0451A8
:1052C000BDE810404FEA300002E04FF000017047A7
:1052D0004A0008BF0042F8D0B2F5001F28BF70474F
:1052E00001F000414FF0000070479EEA445F07D094
:1052F00011EA5E0FBDE8104004BF00210020704796
:10530000BDE8104070B5FFF7CBFE00BF40DFF63EB2
:1053100083F00041104670470000E0FF43004FEA71
:10532000D30C4FEA3C0C43401FBF40070CF16051C7
:1053300013F0FE4F70471CF0006F03D100200CF0FB
:10534000004170470CF0004343EA507010B540EA4A
:10535000CC0000F00EF800BF000000924FEA000100
:10536000FFF7ECBE4FF000414FF00000A1F5002127
:1053700070470EF1020E2EF0030E5EF8044B24422D
:1053800004D44FEA4102B2F17F4F11D84FEA4003F3
:10539000B3F17F4F0CD80ED14FEAD07CB2F17F4FE2
:1053A0000CEB4C0C0CF1020C08BF4CEBD17C04E074
:1053B0004FF0080C01E04FEAD17C0CEB4C0324FACF
:1053C00003F404F00704B4F1040C06D20EEB840CD1
:1053D000BDE810404CF0010C6047DFE80CF0070816
:1053E00002024FF00040A0F5800010BD08464200C8
:1053F00018BFD2F1807288BF00F0004010BD4FF09E
:105400004070E1EE100A7047FF2141EAD050C0051C
:105410007047000000000000CDCCCC3E0000000032
:105420000000000000000000CDCCCCBE0000000059
:1054300000000000CDCCCC3E0000000000000000C9
:1054400000000000CDCCCCBE000000000000000039
:105450000000000000000000000000000000803F8D
:10546000000000000000000000000000000080BFFD
:10547000000000000000000000000000000000002C
:105480000000000000000000000000000102030412
:10549000060708090000000001020304C0540008C8
:1054A0000000002050000000C40100081055000852
:1054B00050000020880F0000E001000861F2FFFFAB
:1054C0000000000010000000010000000024F400B3
:1054D0004200000042000000020000000400000042
:1054E00006000000080000000A0000000C00000098
:1054F0000E00000010000000120000001400000068
:1055000016000000E803FF00EE0200001027FF0075
:040000050800018965
:00000001FF
