:020000040800F2
:10000000882500202D020008D92D0008612600084F
:10001000D52D0008CB040008553000080000000072
:10002000000000000000000000000000E12D0008BA
:10003000F104000800000000DD2D0008E32D000899
:10004000470200084702000847020008470200086C
:1000500047020008DF2D0008F304000847020008EB
:100060004702000819050008230500084702000898
:10007000D104000847020008E10400084702000814
:10008000470200084702000847020008470200082C
:10009000470200084702000847020008470200081C
:1000A000470200084702000847020008470200080C
:1000B00047020008012E0008112E00084702000820
:1000C00047020008470200084702000847020008EC
:1000D0004702000847020008353000084530000894
:1000E000FD04000847020008470200084702000814
:1000F00047020008312E00084702000847020008A6
:100100004702000847020008212E000847020008A5
:1001100047020008E52F00084702000847020008D0
:10012000470200084702000847020008470200088B
:10013000470200084702000847020008470200087B
:10014000470200084702000847020008470200086B
:10015000470200084702000847020008470200085B
:10016000470200084702000847020008470200084B
:10017000470200084702000847020008000000008C
:10018000470200084702000800F002F800F03EF8BD
:100190000AA090E8000C82448344AAF10107DA45E2
:1001A00001D100F033F8AFF2090EBAE80F0013F0F6
:1001B000010F18BFFB1A43F001031847186C000029
:1001C000386C0000103A24BF78C878C1FAD85207BA
:1001D00024BF30C830C144BF04680C6070470000C1
:1001E0000023002400250026103A28BF78C1FBD840
:1001F000520728BF30C148BF0B6070471FB506F0DB
:10020000B6FD00F007F91FBD10B510BD00F028F9CC
:100210001146FFF7F3FF05F0A7FF00F046F903B41E
:10022000FFF7F2FF03BC00F049F9000009488047DE
:1002300009480047FEE7FEE7FEE7FEE7FEE7FEE7C8
:10024000FEE7FEE7FEE7FEE704480549054A064BE0
:1002500070470000ED2D000889010008881F00206C
:1002600088250020882100208821002053EA020CE4
:1002700000F069802DE9F04B4FF00006002B1FBF06
:10028000B3FA83F503FA05F424FA05F65E4012BFCB
:100290001643B2FA82F502FA05F4C5F120051EBF35
:1002A00022FA05FC44EA0C04203556EA044C4FEAD5
:1002B000144418BF641C4FF000084FF0000990422E
:1002C00071EB030C39D3002919BFB1FA81F701FA98
:1002D00007F6B0FA80F700FA07F6C7F120071EBF4D
:1002E00020FA07FC46EA0C062037B6FBF4FCA7EB25
:1002F0000507103F07F01F0BCBF120060CFA0BFB94
:100300002CFA06F644BFB3460026202FA4BF5E4653
:100310004FF0000B5BEA060C08BF4FF0010B19EB26
:100320000B09ABFB027C48EB0608C01B06FB02CCAA
:100330000BFB03CC71EB0C01C1E70B4602464146B7
:100340004846BDE8F08B13B54FF000004FF00001B8
:10035000AFF30080BDE81C40704710B5203AC0F0F4
:100360000B80B1E81850203AA0E81850B1E81850B6
:10037000A0E81850BFF4F5AF5FEA027C24BFB1E8F3
:100380001850A0E8185044BF18C918C0BDE8104064
:100390005FEA827C24BF51F8043B40F8043B08BF6D
:1003A0007047D20728BF31F8023B48BF11F8012B34
:1003B00028BF20F8023B48BF00F8012B70474FF0E0
:1003C000000200B5134694469646203922BFA0E8A5
:1003D0000C50A0E80C50B1F12001BFF4F7AF0907B1
:1003E00028BFA0E80C5048BF0CC05DF804EB8900A2
:1003F00028BF40F8042B08BF704748BF20F8022BE5
:1004000011F0804F18BF00F8012B704770477047FC
:100410007047000070B5064C7C44064D7D4403E0F7
:10042000206820448047241DAC42F9D170BD0000F3
:10043000D8690000DC69000010B500F009F8006818
:1004400010BD10B5044600F003F8046010BD0000B4
:1004500000487047281F002000487047281F0020D0
:100460007546FFF7F9FFAE4605006946534620F092
:100470000700854618B020B5FFF7E6FEBDE820402E
:100480004FF000064FF000074FF000084FF0000B50
:1004900021F00701AC46ACE8C009ACE8C009ACE803
:1004A000C009ACE8C0098D46704710B50446AFF3EB
:1004B00000802046BDE81040FFF7B1BE014918207A
:1004C000ABBEFEE726000200704700BFFEE700005B
:1004D00010B5024800F098F810BD0000280A00206E
:1004E00010B5024800F090F810BD0000880A002006
:1004F000704710B5012000F047FA10BD10B54FF459
:10050000005000F041FA4FF4804000F03DFA4FF403
:10051000004000F039FA10BD10B5082000F034FAA0
:1005200010BD10B5102000F02FFA10BD72B600BF3C
:10053000FEE770B50446A56D00F03CFB064694F856
:100540003500022808D08020606500BF002084F8B4
:10055000340000BF012070BD2068006820F0160044
:10056000216808602068406920F0800021684861A7
:10057000206C08B9A06C28B12068006820F0080041
:10058000216808602068006820F001002168086088
:1005900010E000F00FFB801B05280BD920206065C0
:1005A000032084F8350000BF002084F8340000BF29
:1005B0000320D0E72068006800F001000028E8D19F
:1005C00094F85C103F208840A860012084F8350032
:1005D00000BF002084F8340000BF00BFBBE7014625
:1005E00091F83500022803D080204865012070472B
:1005F000052081F835000868006820F001000A68CD
:1006000010600020F3E70000F8B5044600200090D9
:100610008C4800684FF41651B0FBF1F7A56D2E68B9
:1006200094F85C1008208840304098B12068006839
:1006300000F0040070B12068006820F00400216818
:10064000086094F85C1008208840A860606D40F055
:100650000100606594F85C1001208840304068B16A
:100660002068406900F0800040B194F85C100120DF
:100670008840A860606D40F00200606594F85C10EE
:1006800004208840304068B12068006800F0020013
:1006900040B194F85C1004208840A860606D40F080
:1006A0000400606594F85C1010208840304078B3F6
:1006B0002068006800F0080050B394F85C10102027
:1006C0008840A8602068006800F4802080B120681D
:1006D000006800F4002028B9206CC8B12046216CC5
:1006E000884715E0A06C98B12046A16C88470FE0C0
:1006F0002068006800F4807028B92068006820F045
:10070000080021680860206C10B12046216C8847E1
:1007100094F85C10202088403040002865D0206884
:10072000006800F0100000285FD094F85C102020D2
:100730008840A86094F83500052828D12068006812
:1007400020F01600216808602068406920F08000D1
:1007500021684861206C08B9A06C28B12068006845
:1007600020F008002168086094F85C103F20884061
:10077000A860012084F8350000BF002084F8340010
:1007800000BF206D10B12046216D8847F8BD20685C
:10079000006800F4802080B12068006800F4002028
:1007A00028B9606C10B12046616C88471DE0E06B91
:1007B000D8B12046E16B884717E02068006800F454
:1007C000807068B92068006820F010002168086017
:1007D000012084F8350000BF002084F8340000BFF9
:1007E000E06B10B12046E16B8847606D38B3606DF7
:1007F00000F00100F0B1052084F8350020680068A1
:1008000020F001002168086000BF0098401C0090A3
:10081000B84200D905E02068006800F00100002817
:10082000F3D100BF012084F8350000BF002084F818
:10083000340000BFE06C10B12046E16C884700BF77
:10084000A4E70000100000202DE9F0410446002537
:1008500000F0B0F9074614B90120BDE8F081606AE4
:1008600000B100BF022084F8350000BF002084F8EA
:10087000340000BF2068006820F001002168086093
:100880000AE000F097F9C01B052805D92020606513
:10089000032084F83500E0E72068006800F00100DC
:1008A0000028EED12068056821480540D4E90101FF
:1008B0000843E16808432169084361690843A16965
:1008C0000843E1690843216A08430543606A042834
:1008D00003D1D4E90B010843054320680560206873
:1008E000456925F00705606A0543606A04280DD153
:1008F000A06A0543E06A48B1204604F099FC28B19B
:1009000040206065012084F83500A6E72068456135
:10091000204604F0E3FC064694F85C103F20884033
:10092000B06000206065012084F83500002094E765
:100930003F8010F070B5044600F03CF906462546AD
:10094000681C10B104480078054400BF00F032F97B
:10095000801BA842FAD370BD0C00002010B50446DD
:10096000204603F05DFD082C06D0B4F5005F03D0EF
:10097000102C01D0012C03D12146024803F096FE31
:1009800010BD00009400002010B504460448006823
:10099000204020B1024804602046FFF7DFFF10BD71
:1009A000143C0140F8B502460B4600250024002007
:1009B0000021D6E0012606FA01F51E6806EA0504C4
:1009C000AC4274D11E7906F00306012E04D01E79C4
:1009D00006F00306022E13D190684F000326BE4096
:1009E000B0434F00DE68BE4030439060506801263F
:1009F0008E40B0431E79C6F300168E4030435060DF
:100A00001E7906F00306032E09D0D0684F00032696
:100A1000BE40B0434F009E68BE403043D0601E7958
:100A200006F00306022E13D1CF0802F1200656F875
:100A300027004E07F70E0F26BE40B0434F07FF0EAC
:100A40001E69BE403043CF0802F1200646F8270059
:100A500010684F000326BE40B0431E7906F003061F
:100A60004F00BE40304310605E6806F44036002EF2
:100A700076D000BF002600963C4E366846F480468D
:100A80003A4F3E603E46366806F48046009600BF08
:100A900000BF374E8F0856F827008E07370F0F26F6
:100AA000BE40B043334EB24202D1002624E057E0AC
:100AB000314EB24201D101261EE0304EB24201D188
:100AC000022619E02E4EB24201D1032614E02D4E2B
:100AD000B24201D104260FE02B4EB24201D10526CD
:100AE0000AE02A4EB24201D1062605E0284EB24263
:100AF00001D1072600E008268F073F0FBE40304394
:100B00001B4E8F0846F82700224E3068A0435E68CF
:100B100006F4801606B120431E4E3060361D306844
:100B2000A0435E6806F4001606B12043194E361D38
:100B30003060184E361F3068A0435E6806F40036F9
:100B400006B12043134E361F3060361F3068A04375
:100B50005E6806F4803606B120430E4E083E3060D3
:100B6000491C1029FFF426AFF8BD000044380240AC
:100B70000838014000000240000402400008024022
:100B8000000C024000100240001402400018024015
:100B9000001C0240083C0140024613690B400BB1A7
:100BA000012000E0002070470AB1816101E00B04E0
:100BB000836170470148006870470000040000200E
:100BC00003480068034909780844014908607047F0
:100BD000040000200C00002010B50D48006840F40F
:100BE00000700B4908600846006840F480600860A7
:100BF0000846006840F480700860032000F0AEF8FA
:100C00000F2000F007F800F02BF8002010BD0000C6
:100C1000003C024070B504460E4800784FF47A71EB
:100C2000B1FBF0F00C490968B1FBF0F5284600F083
:100C300037FC08B1012070BD102C07D200222146DC
:100C4000501E00F04DF80548046001E00120F2E775
:100C50000020F0E70C000020100000200800002019
:100C600008B500BF002000901248006840F48040A2
:100C7000104908600846006800F48040009000BFFA
:100C800000BF00BF00200090081F006840F08050A7
:100C9000091F08600846006800F08050009000BFFF
:100CA00000BF00221146052000F01AF8052000F0D0
:100CB00003F808BD443802400146084600280DDB11
:100CC00000BF00BF00F01F0301229A4043099B00B0
:100CD00003F1E023C3F8002100BF00BF00BF70474D
:100CE0002DE9F05F80460D461646002704F04CFEC5
:100CF000074639462A46334601F00700C0F1070A85
:100D0000BAF1040F02D94FF0040A01E0C0F1070A5A
:100D1000D14600F1040ABAF1070F02D24FF0000ADF
:100D200001E0A0F1030AD4464FF0010A0AFA09FAD9
:100D3000AAF1010A0AEA020A0AFA0CFA4FF0010BB8
:100D40000BFA0CFBABF1010B0BEA030B4AEA0B04A9
:100D50002146404604F004FEBDE8F09F00BF00F0CD
:100D60000702064B19684FF6FF031940044B0B436B
:100D700043EA0221014B196000BF70470CED00E00F
:100D80000000FA0570B504460D460CB9012070BD8F
:100D90005848006800F00700A84209D255490D7074
:100DA0000846006800F00700A84201D00120EEE7E5
:100DB000207800F0020002281DD1207800F0040005
:100DC000042805D14C48006840F4E0504A490860C6
:100DD000207800F00800082805D14748006840F452
:100DE0006040454908604448006820F0F000A16870
:100DF000084341490860207800F00100A8B360680A
:100E0000012807D13C4808380068C0F34040B8B911
:100E10000120BCE76068022802D06068032807D17F
:100E2000354808380068C0F3406048B90120AEE793
:100E3000314808380068C0F3400008B90120A6E72F
:100E40002D48006820F00300616808432A490860C3
:100E5000FFF7B0FE064609E0FFF7ACFE801B41F24B
:100E60008831884202D9032091E707E022480068D0
:100E700000F00C006168B0EB810FEDD11D480068F7
:100E800000F00700A84209D91A490D700846006809
:100E900000F00700A84201D0012078E7207800F098
:100EA0000400042807D11448006820F4E050E168E9
:100EB000084311490860207800F00800082808D18C
:100EC0000D48006820F46040216940EAC1000A49E9
:100ED000086000F03FF808490968C1F30311074AA8
:100EE000515CC8400649086006480068FFF792FE5A
:100EF00000204CE7003C0240083802409C6D00088E
:100F00001000002008000020014800687047000021
:100F10001000002000B5FFF7F7FF04490968C1F38E
:100F20008221034A515CC84000BD000008380240DD
:100F3000AC6D000800B5FFF7E7FF04490968C1F38D
:100F40004231034A515CC84000BD000008380240ED
:100F5000AC6D00082DE9F047002400250026A146CD
:100F60002548006800F00C0020B1042805D00828AE
:100F70003AD105E0DFF8849039E0DFF8849036E07C
:100F80001D48001F006800F03F041B48001F006858
:100F900000F4800078B11A481749091F0968C1F3A5
:100FA0008811A0FB01700146224600233846FFF756
:100FB0005DF905460EE011480F49091F0968C1F3A4
:100FC0008811A0FB01700146224600233846FFF736
:100FD0004DF905460848001F0068C0F30140401C59
:100FE0004600B5FBF6F902E0DFF8109000BF00BF45
:100FF0004846BDE8F0870000083802400024F400AD
:1010000040787D01F8B504460CB90120F8BD207880
:1010100000F00100002874D0F948006800F00C00CE
:1010200004280DD0F648006800F00C00082813D101
:10103000F348001F006800F48000B0F5800F0BD16A
:10104000EF4808380068C0F34040002859D0606875
:10105000002856D10120D9E700BF6068B0F5803F75
:1010600008D1E7480838006840F48030E44908397E
:1010700008601EE06068B0F5A02F0DD1E048083888
:10108000006840F48020DE4908390860084600689E
:1010900040F4803008600CE0D9480838006820F43B
:1010A0008030D749083908600846006820F480205D
:1010B000086000BF606890B1FFF77CFD054606E060
:1010C000FFF778FD401B642801D903209EE7CC4838
:1010D00008380068C0F340400028F1D011E0FFF765
:1010E00069FD054606E0FFF765FD401B642801D950
:1010F00003208BE7C24808380068C0F3404000284E
:10110000F1D1207800F0020002285FD1BC480068CD
:1011100000F00C0058B1BA48006800F00C00082834
:101120001CD1B748001F006800F48000B0B9B44873
:1011300008380068C0F3400020B1E068012801D001
:10114000012063E7AE480838006820F0F800216904
:1011500040EAC100AA490839086037E0E06800B3F6
:101160000120A8490860FFF725FD054606E0FFF7C6
:1011700021FD401B022801D9032047E7A048083879
:101180000068C0F340000028F1D09D48083800688E
:1011900020F0F800216940EAC10099490839086047
:1011A00014E0002097490860FFF704FD054606E0BB
:1011B000FFF700FD401B022801D9032026E79048D5
:1011C00008380068C0F340000028F1D1207800F012
:1011D000080008282CD16069A8B101208A4908605C
:1011E000FFF7E8FC054606E0FFF7E4FC401B022899
:1011F00001D903200AE782486C300068C0F3400040
:101200000028F1D014E000207F490860FFF7D2FCED
:10121000054606E0FFF7CEFC401B022801D903205B
:10122000F4E677486C300068C0F340000028F1D144
:10123000207800F00400042870D10027704838306E
:10124000006800F0805090B900BF002000906C480A
:101250003830006840F080506949383108600846ED
:10126000006800F08050009000BF00BF0127674871
:10127000006800F48070B0B96448006840F4807081
:1012800062490860FFF796FC054606E0FFF792FC0E
:10129000401B022801D90320B8E65C48006800F42E
:1012A00080700028F2D000BFA068012808D15448FF
:1012B0006830006840F001005149683108601DE065
:1012C000A06805280DD14E486830006840F0040041
:1012D0004B49683108600846006840F0010008602A
:1012E0000CE047486830006820F00100444968314C
:1012F00008600846006820F00400086000BFA0688D
:10130000A8B1FFF757FC054609E0FFF753FC401B67
:1013100041F28831884202D9032077E626E0384836
:1013200068300068C0F340000028EED013E0FFF7FB
:1013300041FC054608E0FFF73DFC401B41F28831C7
:10134000884201D9032061E62D4868300068C0F367
:1013500040000028EFD1012F07D12948383000681C
:1013600020F0805026493831086000BFA06900286D
:1013700045D02348006800F00C0008285DD0A06923
:10138000022845D100201F490866FFF713FC0546D7
:1013900006E0FFF70FFC401B022801D9032035E6C9
:1013A000174808380068C0F340600028F1D1D4E93C
:1013B00007010843616A40EA81110122A06AC2EB79
:1013C000500041EA00412C20005D41EA00600C49D8
:1013D000091F086001200B490866FFF7EBFB054673
:1013E00006E0FFF7E7FB401B022801D903200DE6CA
:1013F000034808380068C0F340600028F1D049E095
:101400000838024000004742800E4742007000400A
:10141000002021490866FFF7CDFB054606E0FFF7EF
:10142000C9FB401B022801D90320EFE51B480068D7
:10143000C0F340600028F2D12CE0A069012800D15F
:10144000E4E51648001D0668A069012820D006F4CE
:101450008001E06981421BD106F03F01206A814290
:1014600016D147F6C0703040616AB0EB811F0FD1D2
:1014700006F440310122A06AC2EB5000B1EB004FEC
:1014800006D106F070612C20005DB1EB006F01D039
:101490000120BBE50020B9E50000474200380240CA
:1014A00070B504462546681EB0F1807F01D3012047
:1014B0000FE0681E4FF0E02148610F214FF0FF3030
:1014C00004F04EFA00204FF0E02188610720086107
:1014D000002070BD7047704710B50346002200BF62
:1014E00093F83C00012801D1022010BD012083F8AF
:1014F0003C0000BF22F0FF00CC6840EA040222F466
:1015000040708C6840EA040222F480604C6840EA33
:10151000040222F400600C6840EA040222F48050C5
:101520000C6940EA040222F400504C6940EA0402CB
:1015300022F48040CC6940EA04021868426400BF8B
:10154000002083F83C0000BF00BFCEE730B5024664
:101550000B4600BF92F83C00012801D1022030BDAB
:10156000012082F83C0000BF022082F83D00106894
:1015700044681068816824F0700418680443106897
:101580004460184D1068A8421BD01068B0F1804F1D
:1015900017D0154D1068A84213D0144D1068A842FA
:1015A0000FD0134D1068A8420BD0124D1068A842FE
:1015B00007D0114D1068A84203D0104D1068A84202
:1015C00005D121F080015868014310688160012035
:1015D00082F83D0000BF002082F83C0000BF00BF41
:1015E000BDE700000000014000040040000800408A
:1015F000000C004000040140004001400018004081
:1016000010B504460CB9012010BD94F83D0028B96E
:10161000002084F83C00204600F026F8022084F8E0
:101620003D00211D206801F00FFC012084F84600D8
:1016300000BF84F83E0001213F20015540200155A4
:101640004120015500BF00BF012084F84200432023
:101650000155442001554520015500BF012084F863
:101660003D000020D0E7000038B50446404920681E
:10167000884218D100BF002000903E48006840F02A
:1016800004003C4908600846006800F0040000902F
:1016900000BF00BF002211461E20FFF721FB1E20C5
:1016A000FFF70AFB62E034492068884218D100BF86
:1016B000002000902F48006840F008002D49086085
:1016C0000846006800F00800009000BF00BF00223C
:1016D00011463220FFF704FB3220FFF7EDFA45E018
:1016E00026492068884211D100BF0020009021487F
:1016F000001D006840F480201E49091D086008464E
:10170000006800F48020009000BF2FE01C49206892
:1017100088420FD100BF002000901648006840F0BA
:101720008000144908600846006800F080000090BE
:1017300000BF1BE013492068884217D100BF00207A
:1017400000900C48006840F480700A490860084620
:10175000006800F48070009000BF00BF00221146B6
:101760002D20FFF7BDFA2D20FFF7A6FA38BD0000A7
:101770000008004040380240000C00400048014092
:10178000001C004000200040014691F83D00012867
:1017900001D001207047022081F83D000868C06830
:1017A00040F001000B68D8601A4B086898421BD0C3
:1017B0000868B0F1804F17D0174B0868984213D0D3
:1017C000164B086898420FD0154B086898420BD00A
:1017D000144B0868984207D0134B0868984203D00E
:1017E000124B086898420CD10868806800F0070224
:1017F000062A0CD00868006840F001000B681860E9
:1018000005E00868006840F001000B6818600020DF
:10181000C0E7000000000140000400400008004054
:10182000000C00400004014000400140001800404E
:101830002DE9F04104460D46002700BF94F83C0016
:10184000012802D10220BDE8F081012084F83C008B
:1018500000BF022084F83D002068866826F07706E5
:1018600026F47F46206886602868502833D00CDC38
:10187000202850D004DC00284BD0102851D149E05A
:10188000302849D040284CD139E060282DD070282C
:1018900007D0B0F5805F03D0B0F5005F41D10DE017
:1018A00041E0D5E902136A68206801F052FB206824
:1018B000866846F077062068866034E0D5E9021332
:1018C0006A68206801F045FB2068806840F4804029
:1018D0002168886027E0EA686968206803F0BFFD36
:1018E0005021206803F0B2FD1DE0EA6869682068B5
:1018F00003F0C8FD6021206803F0A8FD13E0EA684A
:101900006968206803F0ABFD4021206803F09EFD6C
:1019100009E000BF00BF00BF2968206803F096FD02
:1019200001E0012700BF00BF012084F83D0000BF97
:10193000002084F83C0000BF384684E7704770B54B
:1019400004462068C5682068066906F0020002287F
:1019500019D105F00200022815D1401F2168086145
:10196000012020772068806900F0030018B120462C
:10197000FFF7E4FF05E0204600F07CF9204600F088
:1019800073FA0020207706F00400042819D105F02E
:101990000400042815D1C043216808610220207783
:1019A0002068806900F4407018B12046FFF7C6FF38
:1019B00005E0204600F05EF9204600F055FA0020D0
:1019C000207706F00800082819D105F0080008283B
:1019D00015D1C04321680861042020772068C069C0
:1019E00000F0030018B12046FFF7A8FF05E02046ED
:1019F00000F040F9204600F037FA0020207706F08A
:101A00001000102819D105F01000102815D1C0437E
:101A100021680861082020772068C06900F44070C0
:101A200018B12046FFF78AFF05E0204600F022F9B2
:101A3000204600F019FA0020207706F0010048B196
:101A400005F0010030B16FF0010021680861204607
:101A500000F092FA06F08000802809D105F080009D
:101A6000802805D1C043216808612046FFF732FD78
:101A700006F04000402809D105F04000402805D17B
:101A8000C04321680861204600F086FA06F0200075
:101A9000202809D105F02000202805D1C043216865
:101AA00008612046FFF717FD70BD000010B586B035
:101AB0000446142101A8FEF782FC6349206888428D
:101AC00039D100BF002000906048006840F001005C
:101AD0005E4908600846006800F00100009000BF01
:101AE00000BF00BF002000900846006840F00200E0
:101AF00008600846006800F00200009000BF00BFC8
:101B0000C020019002200290002003900490022047
:101B1000059001A94E48FEF745FF032001900220E1
:101B200002900020039004900220059001A94948EA
:101B3000FEF738FF86E04849206888421DD100BF83
:101B4000002000904148006840F008003F490860CC
:101B50000846006800F00800009000BF00BF88142D
:101B60000190022002900020039004900220059032
:101B700001A93A48FEF716FF64E039492068884217
:101B80001DD100BF002000903048006840F00400E4
:101B90002E4908600846006800F00400009000BF6D
:101BA00000BFC0200190022002900020039004900A
:101BB0000320059001A92B48FEF7F4FE42E02A49D4
:101BC000206888421DD100BF002000901F48006897
:101BD00040F020001D4908600846006800F0200021
:101BE000009000BF00BF80200190022002900020E2
:101BF000039004900320059001A91C48FEF7D2FE33
:101C000020E01B49206888421CD100BF00200090C2
:101C10000E48006840F020000C4908600846006843
:101C200000F02000009000BF00BF88150190022046
:101C300002900020039004900920059001A90B4810
:101C4000FEF7B0FE06B010BD000400403038024080
:101C5000000002400004024000080040000C024066
:101C60000004014000080240004801400014024006
:101C7000001C004070472DE9F04104460D46164611
:101C8000002700BF94F83C00012802D10220BDE8E3
:101C9000F081012084F83C0000BF36B1042E1BD037
:101CA000082E31D00C2E5ED145E02946206803F085
:101CB0002FFB2068806940F0080021688861206857
:101CC000806920F0040021688861206880692969A2
:101CD00008432168886148E02946206801F044F9FA
:101CE0002068806940F4006021688861206880690C
:101CF00020F480602168886120688069296940EA51
:101D000001202168886130E02946206803F038FB13
:101D10002068C06940F008002168C8612068C06977
:101D200020F004002168C8612068C069296908435F
:101D30002168C86119E02946206803F05DFB20682E
:101D4000C06940F400602168C8612068C06920F45F
:101D500080602168C8612068C069296940EA012063
:101D60002168C86101E0012700BF00BF00BF00205B
:101D700084F83C0000BF384689E710B504460CB92A
:101D8000012010BD94F83D0028B9002084F83C00E3
:101D9000204600F025F8022084F83D00211D20682F
:101DA00001F052F8012084F8460000BF84F83E009C
:101DB00001213F200155402001554120015500BF20
:101DC00000BF012084F84200432001554420015502
:101DD0004520015500BF012084F83D000020D0E7D8
:101DE00038B504461D492068884218D100BF00203C
:101DF00000901B48006840F002001949086008463E
:101E0000006800F00200009000BF00BF00221146F1
:101E10001D20FEF765FF1D20FEF74EFF1DE0114956
:101E20002068884219D100BF002000900C48001D96
:101E3000006840F002000A49091D08600846006871
:101E400000F00200009000BF00BF002211462D20CC
:101E5000FEF746FF2D20FEF72FFF38BD000400409F
:101E600040380240000401407047000070B504464D
:101E70000D4615B994F83E000BE0042D02D13F2029
:101E8000005D06E0082D02D14020005D01E0412008
:101E9000005D012801D0012070BD1DB9022084F829
:101EA0003E000EE0042D03D102213F20015508E041
:101EB000082D03D102214020015502E002214120DA
:101EC000015501222946206801F032F82349206893
:101ED000884203D022492068884201D1012000E0D5
:101EE000002028B12068406C40F40040216848641C
:101EF0001A49206888421BD02068B0F1804F17D063
:101F000018492068884213D01749206888420FD0AA
:101F10001649206888420BD011492068884207D0B2
:101F200013492068884203D01249206888420CD1A6
:101F30002068806800F00706062E0CD02068006834
:101F400040F001002168086005E02068006840F06A
:101F500001002168086000209EE7000000000140A9
:101F6000000401400004004000080040000C004054
:101F7000004001400018004010B50446204601F022
:101F800045FA0348844202D1024802F0AFFB10BD7B
:101F9000E807002094000020704770477047000059
:101FA0002DE9F84F0446206805682068C668206857
:101FB00047694FF00009CA4605F00F09B9F1000F53
:101FC0000AD105F0200038B106F0200020B12046EB
:101FD00003F082FBBDE8F88FB9F1000F7CD007F069
:101FE000010018B906F49070002875D005F00100C2
:101FF00030B106F4807018B1606C40F0010060648C
:1020000005F0040030B107F0010018B1606C40F039
:102010000200606405F0020030B107F0010018B161
:10202000606C40F00400606405F0080048B106F000
:10203000200010B907F0010018B1606C40F00800F2
:102040006064606C002846D005F0200028B106F0DE
:10205000200010B1204603F03FFB20684069C0F328
:10206000801A606C00F0080010B9BAF1000F2DD092
:10207000204603F0DFFB2068406900F04000402864
:1020800020D100BF00BF2168143151E8001F21F0AA
:1020900040002168143141E80002002AF3D100BF5A
:1020A000E06B50B17748E16B0865E06BFEF797FA9B
:1020B00088B1E06B016D88470DE02046FFF76EFFA9
:1020C00009E009E02046FFF769FF04E02046FFF73A
:1020D00065FF002060647DE7206B012878D105F062
:1020E0001000002874D006F010000028FAD000BFBD
:1020F00000200090206800680090206840680090F0
:1021000000BF00BF2068406900F04000402860D157
:10211000E06B006840681FFA80F8B8F1000F56D0F5
:10212000A08D404553DDA4F82E80E06BC069B0F56A
:10213000807F43D000BF00BF21680C3151E8001FF1
:1021400021F4807021680C3141E80002002AF3D1AB
:1021500000BF00BF00BF2168143151E8001F21F00B
:1021600001002168143141E80002002AF3D100BFC8
:1021700000BF00BF2168143151E8001F21F040006A
:102180002168143141E80002002AF3D100BF202069
:1021900084F842000020206300BF00BF21680C319A
:1021A00051E8001F21F0100021680C3141E80002C5
:1021B000002AF3D100BFE06BFEF7BBF90220606399
:1021C000A08DE28D801A81B22046FFF7E6FE01E77E
:1021D00042E0A08DE18D401A1FFA80F8E08DD0B367
:1021E000B8F1000F37D000BF00BF21680C3151E8B3
:1021F000001F21F4907021680C3141E80002002A90
:10220000F3D100BF00BF00BF2168143151E8001FA7
:1022100021F001002168143141E80002002AF3D1C5
:1022200000BF202084F842000020206300BF00BFD0
:1022300021680C3151E8001F21F0100021680C3199
:1022400041E80002002AF3D100BF0220606341464A
:102250002046FFF7A2FEBDE605F0800030B106F093
:10226000800018B1204603F0B5FAB3E605F040004F
:1022700030B106F0400018B1204603F011FBA9E68A
:1022800000BFA7E6C158000810B504460CB90120EC
:1022900010BDA06900B100E000BF94F8410028B96A
:1022A000002084F84000204600F02AF8242084F81A
:1022B00041002068C06820F400502168C8602046B2
:1022C00003F0F4F82068006920F490402168086168
:1022D0002068406920F02A00216848612068C068B1
:1022E00040F400502168C86000206064202084F819
:1022F000410084F842000020606300BFC8E700008E
:1023000010B586B00446142101A8FEF758F8894993
:102310002068884255D100BF0020009086480068A0
:1023200040F48010844908600846006800F480107A
:10233000009000BF00BF00BF002000907E48103812
:10234000006840F004007C491039086008460068C5
:1023500000F00400009000BF00BF00BF002000900C
:102360000846006840F0080008600846006800F071
:102370000800009000BF00BF881401900220029066
:1023800000200390032004900820059001A96B48C9
:10239000FEF708FB04200190022002900020039029
:1023A000032004900820059001A96548FEF7FAFA79
:1023B000002211463520FEF793FC3520FEF77CFC09
:1023C000B5E060492068884238D100BF0020009005
:1023D0005948006840F400305749086008460068D2
:1023E00000F40030009000BF00BF00BF002000904C
:1023F00051481038006840F001004F49103908601A
:102400000846006800F00100009000BF00BF0C20EB
:1024100001900220029000200390032004900720E6
:10242000059001A94848FEF7BDFA002202212620A6
:10243000FEF756FC2620FEF73FFC78E04349206873
:10244000884274D100BF002000903B48006840F4EF
:102450008020394908600846006800F48020009018
:1024600000BF00BF00BF0020009033481038006854
:1024700040F002003049103908600846006800F05A
:102480000200009000BF00BF4FF4406001900220A6
:10249000029000200390032004900720059001A9DA
:1024A0002B48FEF77FFA2B482B4908604FF000605D
:1024B0004860002128488160C1604FF4806101615B
:1024C000002141618161C16101624162FEF7BCF995
:1024D00008B1FEF72BF800BF1F48E063846300BF1C
:1024E0001C4830301D4908604FF0006048604021B2
:1024F0001A4881600021C1604FF4806101610021B0
:1025000041618161C16101624162FEF79DF908B1DB
:10251000FEF70CF800BF1148A063846300BF0022DF
:1025200001212720FEF7DCFB2720FEF7C5FB06B0C4
:1025300010BD00000050004040380240000802403A
:10254000000C0240004400400000024000480040EF
:102550000004024028600240280A0020880A002067
:1025600070B504460D46164694F8420020280BD15B
:1025700005B10EB9012070BD002020633246294606
:10258000204600F037FDF6E70220F4E710B50446D8
:102590000248844201D101F065F910BDE009002034
:1025A0002DE9F84F04460E46174699464FF0000AAB
:1025B00094F84100202850D106B117B90120BDE898
:1025C000F88F00206064212084F84100FEF7F2FAC1
:1025D0008246A784E784A068B0F5805F04D12069B3
:1025E00010B90025B04602E035464FF000081EE065
:1025F0005346002280212046CDF8009003F06AF96E
:1026000020B1202084F841000320D8E745B9B8F86C
:102610000000C0F308002168486008F1020803E0E8
:102620002878216848606D1CE08C401EE084E08CB6
:102630000028DDD15346002240212046CDF80090ED
:1026400003F048F920B1202084F841000320B6E7C8
:10265000202084F841000020B1E70220AFE7704756
:1026600000BFFEE708B500BF002000900E480068DC
:1026700040F400100C4908600846006800F400109F
:10268000009000BF00BF002211460C20FEF728FB7F
:102690000C20FEF711FB002211460E20FEF720FB56
:1026A0000E20FEF709FB08BD3038024000B587B0A8
:1026B000142102A8FDF783FE00BF00200190B1485D
:1026C000006840F01000AF4908600846006800F05C
:1026D0001000019000BF00BF00BF0020019008461D
:1026E000006840F0040008600846006800F004003C
:1026F000019000BF00BF00BF0020019008460068A5
:1027000040F0200008600846006800F020000190BA
:1027100000BF00BF00BF002001900846006840F0E5
:10272000800008600846006800F08000019000BF4B
:1027300000BF00BF002001900846006840F0010083
:1027400008600846006800F00100019000BF00BF6B
:1027500000BF002001900846006840F002000860B9
:102760000846006800F00200019000BF00BF00BFF3
:10277000002001900846006840F0400008600846CC
:10278000006800F04000019000BF00BF00BF0020C3
:1027900001900846006840F008000860084600689C
:1027A00000F00800019000BF00BF00223C217648E5
:1027B000FEF7FAF901224FF428417448FEF7F4F9C4
:1027C00000224FF480417148FEF7EEF9002241F6F5
:1027D00001616F48FEF7E8F900224FF440716D483F
:1027E000FEF7E2F90022C0216B48FEF7DDF9012275
:1027F0004FF420416648FEF7D7F900224FF4F071FC
:102800006648FEF7D1F93C20029001200390002099
:102810000490059002A95C48FEF7C4F8422002909B
:10282000002003900220049002A95748FEF7BAF84E
:102830004FF4005002904FF4881003900020049051
:1028400002A95448FEF7AEF804200290002003903D
:102850000220049002A94D48FEF7A4F80820029037
:102860004FF4881003900020049002A94748FEF717
:1028700099F84FF4684002900120039000200490E2
:10288000059002A94148FEF78DF84BF601600290D1
:102890000120039000200490059002A93C48FEF717
:1028A00081F84FF4404002904FF4881003900220CA
:1028B000049002A93948FEF775F84FF44070029071
:1028C0000120039000200490059002A93148FEF7F2
:1028D00069F8C02002900120039000200490059028
:1028E00002A92D48FEF75EF8082002900020039010
:1028F0000220049002A92948FEF754F81020029003
:102900004FF4881003900020049002A92348FEF79A
:1029100049F84FF4F07002900120039000200490D9
:10292000059002A91D48FEF73DF8012002904FF4E2
:10293000881003900020049002A91348FEF732F893
:10294000002211460620FEF7CBF90620FEF7B4F967
:10295000002211460920FEF7C3F90920FEF7ACF961
:10296000002211460A20FEF7BBF90A20FEF7A4F95F
:10297000002211462820FEF7B3F92820FEF79CF923
:1029800007B000BD30380240001002400014024081
:102990000018024000080240000C024000040240FF
:1029A00000B587B01C216846FDF709FD154816499A
:1029B0000860A720486000211348816044F61F6129
:1029C000C160002101618161FEF71AFE08B1FDF7C7
:1029D000ADFD0D48FFF7D1F908B1FDF7A7FD602067
:1029E0000090002001900290049000226946064861
:1029F000FFF741F908B1FDF799FD0348FFF756F8D5
:102A000007B000BD004801407808002000B587B03D
:102A10001C216846FDF7D3FC164817490860A7201B
:102A2000486000211448816044F61F61C1600021A4
:102A3000016180218161FEF7E3FD08B1FDF776FDBC
:102A40000D48FFF79AF908B1FDF770FD602000907E
:102A50000020019002900490002269460648FFF78A
:102A60000AF908B1FDF762FD0348FFF71FF807B048
:102A700000BD0000001C0040C008002010B50A483E
:102A80000A490860A720486000210848816041F297
:102A90008731C160002101618161FEF7B1FD08B19C
:102AA000FDF744FD10BD0000002000400809002093
:102AB00000B589B00020079008901C216846FDF7FA
:102AC0007EFC2448244908600020486000212248F8
:102AD000816047F6FF71C160002101618021816141
:102AE000FFF74BF908B1FDF721FD00200790089092
:102AF00007A91948FEF72AFD08B1FDF717FD602068
:102B00000090002001900290049000226946124833
:102B1000FFF7B1F808B1FDF709FD042269460E4838
:102B2000FFF7A9F808B1FDF701FD082269460A4838
:102B3000FFF7A1F808B1FDF7F9FC0C226946064839
:102B4000FFF799F808B1FDF7F1FC0348FEF7AEFF77
:102B500009B000BD000400405807002000B58DB04A
:102B6000002009900A900B900C90079008901C216F
:102B70006846FDF724FC204820490860A7204860EB
:102B800000211E48816040F2CF71C16000210161C7
:102B900080218161FEF734FD08B1FDF7C7FC4FF4D9
:102BA0008050099009A91548FEF742FE08B1FDF7CB
:102BB000BDFC1248FFF7E1F808B1FDF7B7FC0020B3
:102BC0000790089007A90D48FEF7C0FC08B1FDF773
:102BD000ADFC602000900020019002900490002243
:102BE00069460648FFF747F808B1FDF79FFC034820
:102BF000FEF75CFF0DB000BD00080040A0070020FC
:102C000000B587B0002003900490059006900190D5
:102C10000290144814490860A72048600021124817
:102C2000816041F28731C160002101618161FEF75D
:102C3000E7FC08B1FDF77AFC4FF48050039003A93C
:102C40000948FEF7F5FD08B1FDF770FC0020019082
:102C5000029001A90448FEF779FC08B1FDF766FC73
:102C600007B000BD000C0040E807002000B591B09F
:102C700000200F9010901C2108A8FDF7A0FB202138
:102C80006846FDF79CFB274827490860A720486055
:102C900000212548816040F2CF71C16000210161AF
:102CA00041618161FFF769F808B1FDF73FFC002041
:102CB0000F9010900FA91C48FEF748FC08B1FDF7D3
:102CC00035FC60200890002009900A900B900C9031
:102CD0000D900E90002208A91348FEF7CCFF08B112
:102CE000FDF724FC042208A90F48FEF7C4FF08B131
:102CF000FDF71CFC002000900190029003900490CE
:102D00004FF4005005900020079069460648FEF7F2
:102D1000E3FB08B1FDF70AFC0348FEF7C7FE11B05C
:102D200000BD0000000401403008002010B50B4831
:102D30000B4908604FF4E130486000210848816089
:102D4000C16001610C21416100218161C161FFF716
:102D50009BFA08B1FDF7EAFB10BD000000500040EF
:102D60005009002010B50B480B4908604FF4E130C2
:102D70004860002108488160C16001610C21416107
:102D800000218161C161FFF77FFA08B1FDF7CEFB39
:102D900010BD0000004400409809002010B50B4809
:102DA0000B4908604FF4E130486000210848816019
:102DB000C16001610C21416100218161C161FFF7A6
:102DC00063FA08B1FDF7B2FB10BD000000480040F7
:102DD000E009002000BFFEE700BFFEE77047704734
:102DE000704710B5FDF7ECFE10BD00000348006809
:102DF00040F47000014908607047000088ED00E071
:102E000010B50248FEF79BFD10BD000058070020DA
:102E100010B50248FEF793FD10BD0000A00700208A
:102E200010B50248FEF78BFD10BD0000E80700203A
:102E300010B50348FEF783FD0248FEF780FD10BD84
:102E4000300800200809002010B502682D4B984278
:102E50000ED0B0F1804F0BD02B4B984208D02B4BAB
:102E6000984205D02A4B984202D02A4B984203D16F
:102E700022F070024B681A43224B984220D0B0F1E6
:102E8000804F1DD0204B98421AD0204B984217D02B
:102E90001F4B984214D01F4B984211D01E4B9842A2
:102EA0000ED01E4B98420BD01D4B984208D01D4BA4
:102EB000984205D01C4B984202D01C4B984203D13B
:102EC00022F44072CB681A4322F080034C6943EA33
:102ED000040202608B68C3620B688362094B9842EC
:102EE00002D00C4B984201D10B690363012343616B
:102EF000036903F001031BB1036923F001030361BC
:102F000010BD000000000140000400400008004027
:102F1000000C00400004014000400140004401401A
:102F20000048014000180040001C00400020004004
:102F300030B501F01F05012404FA05F3046A9C432F
:102F40000462046A01F01F0502FA05F52C430462CD
:102F500030BD30B50C46816821F47F4142EA03253B
:102F600025432943816030BD30B5026A056A25F0EA
:102F7000100505624368846924F4E04424F4407435
:102F80000D6844EA052422F020028D6842EA051209
:102F9000124DA84200D103E0114DA84207D100BF55
:102FA00022F08002CD6842EA051222F040020B4D69
:102FB000A84202D00A4DA84209D123F4806323F429
:102FC00000634D6943EA85038D6943EA85034360E5
:102FD00084614D688563026230BD000000000140DD
:102FE0000004014010B50248FEF7DAFF10BD0000F2
:102FF0005009002010B5034699629A85DA850020B1
:103000005864222083F84200186928B11868C06803
:1030100040F480701C68E0601868406940F001006E
:103020001C6860611868C06840F020001C68E0609F
:10303000002010BD10B50248FEF7B2FF10BD000021
:103040009809002010B50248FEF7AAFF10BD000045
:10305000E009002000BFFEE710B54FF4004106482C
:10306000FDF79AFD012800D110BD002001F0C6F93E
:1030700001F062F900BFF7E70004024010B501F06B
:1030800071F900F071F900F02FF810BD054890F9C2
:103090000000401C28B90020034908805520014940
:1030A000087070475C0000205E0000200448006843
:1030B000102804DA03480068401C02490860704781
:1030C000180000201400002010B500F03FF800F0B8
:1030D0001FF90A20FDF72EFC00F098F800200149A6
:1030E000087010BD6A00002010B5FA2000F0AAF8A0
:1030F00000210748FEF7BAFE04210548FEF7B6FE98
:1031000040F6B830FDF716FC00F004F810BD0000E2
:103110003008002000B5FA2000F094F800BD00004F
:10312000084890F90000401C18B10648007855285E
:1031300000D1704704480088401C0349088000BF44
:10314000F7E700005C0000205E00002010B50022C0
:1031500040211048FDF728FD002280210D48FDF791
:1031600023FD00224FF400710B48FDF71DFD0122E5
:1031700091020948FDF718FD0122D1020648FDF72A
:1031800013FD00224FF480510348FDF70DFD00F0C0
:103190009BF810BD000C02400018024010B501223F
:1031A00040210448FDF700FD002280210148FDF781
:1031B000FBFC10BD000C024010B500F0FBF850B154
:1031C000064890F90000401C18B1044800785528C2
:1031D00001D1002010BD0120FCE700005C000020B0
:1031E000074890F90000401C30B9002005490880CC
:1031F00055200349087002E0012003490870704718
:1032000066000020640000206A00002010B54FF422
:10321000FA624FF4A071012001F044F84FF4FA6211
:10322000BE21022001F03EF84FF4FA625110032053
:1032300001F038F84FF4FA624FF49671042001F06F
:1032400031F810BD4100044A126851634100024A3E
:1032500012689163704700003008002010B500F03C
:10326000E7F800F0ADFD00F0E9F900F01BFF10BD3C
:1032700010B50248FEF788FA10BD000008090020CA
:10328000F7EE000AB4EEE00AF1EE10FA00D2704751
:10329000DFED0B0A80EE801AFDEEC10A10EE900AF7
:1032A00000BF08490968C8620649C86000BF0146F6
:1032B00000EBD1725210034B1B685A6300BFE6E764
:1032C00000007A44A007002010B5002240210448E5
:1032D000FDF76AFC012280210148FDF765FC10BD65
:1032E000000C0240084890F90000401C18B1064844
:1032F0000078552800D1704704480088401C0349D5
:10330000088000BFF7E7000066000020640000208E
:1033100010B500200C4908604FF47A700B49088002
:103320004FF0FF300A49088000200A4908800A4906
:1033300008700A4908700A48034A12688118012275
:103340000848FFF70DF910BD80000020880000201C
:103350008C0000208A0000208E0000208F000020BA
:10336000080B0020E009002010B540F24C40044951
:103370000968486300210248FEF778FD10BD00008F
:10338000C008002040F24C4001490968486370477A
:10339000C0080020064890F90000401C18B10448FD
:1033A0000078552801D1002070470120FCE700007B
:1033B0006600002010B54FF400410448FDF7ECFB17
:1033C000012800D110BD0020FCE7000000040240ED
:1033D00007480088401C064908800648B0F90000EC
:1033E000401C20B104480088401C034908807047F5
:1033F000880000208C0000208A0000204FF45770C5
:103400000149096848637047C008002010B50446A8
:103410000648844200D010BDFFF782FEFFF746FE4B
:10342000FFF760FFFFF7D4FF00BFF4E708090020B3
:1034300010B52DED088B20480068102839DA1F4898
:103440001D49096850F821001D490968884230DC8F
:10345000194800680A2809DA17480068401C00EE7D
:10346000100AB8EEC00AFFF70BFF1DE01248006813
:1034700003F0D1F941EC1B0B9FED120B53EC102B19
:1034800003F01CFA41EC1A0B9FED100B53EC102BC0
:1034900002F086FF41EC190B02F050FF08EE100A13
:1034A000B0EE480AFFF7ECFE03480068401C0249F2
:1034B0000860BDEC088B10BD180000201C00002027
:1034C00014000020000000000000E03F00000000A9
:1034D0000000164010B5B4200449086000F066F8FA
:1034E00000210348FEF7C2FC10BD00006C00002064
:1034F0007808002000B593B0302107A8FCF75FFFE3
:10350000142102A8FCF75BFF00BF002001902548B2
:10351000006840F08050234908600846006800F0C9
:103520008050019000BF00BF00BF002001901E48E6
:10353000006840F480401C4908600846006800F4B8
:103540008040019000BF00BF0220079001200A9038
:1035500010200B9002200D9000210E9108210F9158
:10356000A8211091022111910421129107A8FDF7C1
:1035700049FD08B1FCF7DAFF0F200290022003900A
:10358000002004904FF4A05005904FF48050069016
:10359000052102A8FDF7F6FB08B1FCF7C7FF13B041
:1035A00000BD0000403802400070004010B52DED15
:1035B000088B1A4804684FF4B47094FBF0F100FBD8
:1035C000114000F5B4704FF4B47190FBF1F201FBBF
:1035D0001204204603F01FF941EC1B0B9FED100B6A
:1035E00053EC102B03F06AF941EC1A0B9FED0E0B14
:1035F00053EC102B02F088FF41EC190B9FED0C0BE4
:1036000053EC102B02F0CCFE41EC180B03F0D4F875
:10361000094909684863BDEC088B10BD6C000020A7
:10362000000000000088A3400000000000807640F9
:103630000000000000407F407808002010B540489E
:103640000078552805D1FFF7A5FE10B900203C49A8
:1036500008703C48008800280BDD3948007840B9E4
:10366000FFF7CCFE36480078401C40B23449087061
:1036700064E03448008814280CDB314800780128C5
:1036800008D100F005FF2E480078401C40B22C49BC
:10369000087053E02B48008878280ADB2848007817
:1036A000022806D126480078401C40B22449087000
:1036B00044E024480088DC280CDB214800780328FB
:1036C00008D1FFF75FFE1E480078401C40B21C493D
:1036D000087033E01B480088B0F5B97F0ADB184852
:1036E0000078042806D116480078401C40B21449DE
:1036F000087023E013480088B0F5C87F0CDB104841
:103700000078052808D1FFF7A7FC0D480078401C79
:1037100040B20B49087011E00A480088B0F5167FE6
:103720000CDB07480078062808D1FFF743FE28B1D4
:10373000832000F06FFCFF200149087010BD0000DD
:103740005C0000205E00002010B543484349097822
:1037500000EB0110C06830B1012868D0022834D0D5
:1037600003286AD166E000240EE004EB041101EBAB
:1037700044113B4A02EBC10101F1BC00B3EE0E0A59
:1037800002F00DF9601CC4B2042CEEDB3248334960
:10379000097800EB0110D0ED021AB0EE611A2E4844
:1037A0002E49097800EB0110D0ED011AF0EE610A04
:1037B00029482A49097800EB0110D0ED001AB0EE33
:1037C000610A274800F0D2FE38E000240EE004EB46
:1037D000041101EB4411224A02EBC10101F1BC00CA
:1037E000B2EE040A02F0DBF8601CC4B2042CEEDB7B
:1037F00019481A49097800EB0110D0ED021AB0EE11
:10380000611A15481549097800EB0110D0ED011A2D
:10381000F0EE610A10481149097800EB0110D0ED73
:10382000001AB0EE610A0E4800F0A0FE06E0FFF7B5
:10383000D7FC03E0FFF72AFC00E000BF00BF074809
:103840000078401C4FF4A07190FBF1F201FB1200D4
:103850000249087010BD0000280B00208F000020D6
:103860009400002010B52DED0E8BFE480068012855
:1038700017DCFD48FB490968405C662805D1F9481A
:103880000068401CF749086002E00020F549086024
:10389000F548F44A126881180122F448FEF760FEE8
:1038A0007EE2F048006802287ED1EF488078F04937
:1038B000085C70B10320EB490860EB488078EC4B62
:1038C0001A5CE9480B461B68C118E848FEF748FE39
:1038D00066E2E5488078052806D0062817D0072834
:1038E00028D0082871D16BE00121E248E24A127821
:1038F00000EB0210C160E0480078401C4FF4A0715A
:1039000090FBF1F201FB1200DB4908705EE003203E
:10391000D849D94A127801EB0211C860D64800781C
:10392000401C4FF4A07190FBF1F201FB1200D24950
:1039300008704BE0D0480078D049087000243CE083
:1039400004EB041101EB4411CD4A02EBC10001F07C
:10395000E2FAB0EE408A04EB041101EB4411C84ACC
:1039600002EBC10001F0DDFA04EB041101EB44119C
:10397000C34A02EBC1009FEDC30A01F0D5FA04EB84
:10398000041101EB4411BE4A02EBC10101F16800D0
:103990009FEDBC0A02F006F804EB041101EB4411A0
:1039A000B74A02EBC10100E01DE001F1BC00B3EE3B
:1039B0000E0A02F019F9601CC4B2042CC0DB05E049
:1039C0000220B149086001E0FFE700BF00BF00200E
:1039D000A4490860A4480A46126881180122A34835
:1039E000FEF7BEFDDCE19F4800680328FAD19E483F
:1039F0008078012806D002280ED003287BD0042826
:103A00007AD1A1E198480179C07801EB002004B295
:103A1000204600F0F9FAB7E19348007900EE100A69
:103A2000B8EE400A9048C07800EE900AF8EE600ABE
:103A30009FED961A00EE810A9FED951AC0EE010ADD
:103A40009FED940A20EE800AF0EE408A8648407985
:103A500000EE100AB8EE400AB0EE408AB0EE680AF6
:103A600002F02CF920EE080ADFED8B0A20EE200A86
:103A7000B0EE409A9FED830AF0EE409AB2EE040A4F
:103A8000B4EEC08AF1EE10FA7EDBDFED840A78EE48
:103A9000E00AB0EE600A02F0E5F810EE104A2046A7
:103AA00003F0F4F841EC1A0B9FED7D0B53EC102B57
:103AB00002F0C8FE21D2B2EE020A38EE400A10EE41
:103AC000101A084603F0E2F841EC1C0B9FED760B50
:103AD00053EC102B02F0F2FE41EC1B0B9FED740B2C
:103AE00053EC102B02F010FD41EC1A0B02F026FCF7
:103AF00008EE100A36E0A0E045E1DFED6F0A78EE4F
:103B0000E00AB0EE600A02F0ADF810EE104A20466E
:103B100003F0BCF841EC1A0B9FED610B53EC102B3A
:103B200002F090FE1ED2B1EE0C0A38EE400A10EE02
:103B3000101A084603F0AAF841EC1C0B9FED5A0B33
:103B400053EC102B02F0BAFE41EC1B0B9FED580B0F
:103B500053EC102B02F0D8FC41EC1A0B02F0EEFBF8
:103B600008EE100AB0EE680A02F050F9F2EE040A0C
:103B700078EE200A20EE200ADFED500A20EE200A1F
:103B8000F0EE409A2BE0FFE7B0EE680A02F03EF953
:103B900010EE104A204603F079F841EC1C0B18EEA9
:103BA000100A03F073F841EC1E0B9FED450B53EC2C
:103BB000102B02F083FE41EC1D0B53EC1C2B02F08A
:103BC0007DFE41EC1B0B9FED400B53EC102B02F0E4
:103BD00075FE41EC1A0B02F0B1FB09EE900A254884
:103BE0002549097800EB011080ED009A214822490F
:103BF000097800EB0110C0ED019A9FED220A1D48E3
:103C00001D49097800EB011080ED020A1E4800688A
:103C10001849194A127801EB0211C86000201A49AC
:103C2000086015480078401C4FF4A07190FBF1F239
:103C300001FB120010490870A6E00B48007900EE65
:103C4000900AF8EE600A0848C07801EE100AB8EE53
:103C5000411ADFED0E1A41EE210A9FED0D1A30EEEA
:103C6000C11A35E080000020080B0020E009002088
:103C700070000020280B00208E0000208F00002004
:103C80009400002000000000840000200000804319
:103C900000003443D00F4940E7B4813EDCCB96406E
:103CA0009A9999999999B93F000000000000244021
:103CB0000000000000002240D00FC93FEC267D3EEE
:103CC000333333333333F33F00000080DDA4CF3F81
:103CD0005FED111AC1EE210A1FED121A60EE810A82
:103CE000B0EE600ADFED300A60EE200AB0EE600A46
:103CF0005FED1C0A2D482E49097800EB0110C0ED3C
:103D0000000A5FED200A29482949097800EB0110D3
:103D1000C0ED010A25482649097800EB011080ED25
:103D2000020A00212148224A127800EB0210C160E9
:103D30001F480078401C4FF4A07190FBF1F201FB8A
:103D400012001B4908701FE01A48C078012806D0ED
:103D5000022808D003280BD0042811D10CE05A20E7
:103D600000F06CF90DE06FF0590000F067F908E021
:103D7000B42000F063F904E0002000F07BF900E0DB
:103D800000BF00BF00E000BF00BF00200A4908607C
:103D900008480A461268811801220848FEF7E0FB2D
:103DA000BDEC0E8B10BD0000CDCC3441280B0020A3
:103DB0008E000020080B002080000020E009002079
:103DC00010B58D480078552805D1FFF7F5F910B9E1
:103DD0000020894908708948008801280BDB864843
:103DE000007840B9FFF7DAF983480078401C40B208
:103DF00081490870FFE08148008802281DDB7E4869
:103E00000078012819D14FF448724FF4A07100F0E6
:103E100049FA4FF44872BE21022000F043FA4FF4F1
:103E200048724FF47A71032000F03CFA724800782F
:103E3000401C40B270490870DDE070480088572887
:103E400011DB6D48007802280DD14FF4FA7240F270
:103E5000A911012000F026FA67480078401C40B202
:103E600065490870C7E065480088BB280DDB6248DB
:103E70000078032809D14FF496721146012000F012
:103E800011FA67205C490870B5E05C480088C828D2
:103E900010DB5948007867280CD14FF4C86296218E
:103EA000032000F0FFF9812000F0B4F8042052490B
:103EB0000870A0E051480088ED280DDB4E480078DE
:103EC000042809D14FF42F72A021022000F0EAF952
:103ED0006820494908708EE048480088B0F58F7F17
:103EE0000FDD4548007868280BD14548008881B22D
:103EF0004FF4FA72042000F0D5F905203E4908700D
:103F000079E03E480088B0F5AF7F1EDB3A48007884
:103F100005281AD14FF42F724FF4FA71012000F0E6
:103F2000C1F94FF47A7240F29E21022000F0BAF9F2
:103F30004FF49672CD21032000F0B4F92E4800789A
:103F4000401C40B22C49087055E02C480088B0F560
:103F5000E67F10DB2848007806280CD1C82240F202
:103F60003111032000F09EF923480078401C40B234
:103F7000214908703FE021480088B0F5FC7F0CDD46
:103F80001D480078072808D1FFF79EF91A480078E5
:103F9000401C40B2184908702DE018480088B0F560
:103FA0000D7F0CDD14480078082808D1FFF72EF9A2
:103FB00011480078401C40B20F4908701BE00F48C0
:103FC000008840F23F21884215DB0B480078092821
:103FD00011D1852000F01EF80A48007840B1002079
:103FE000084908700549088055200349087002E017
:103FF000FF200149087010BD660000206400002009
:10400000680000206A000020014908807047000015
:104010006800002010B50446662006490870487004
:10402000084684704FF0FF3303220348FEF7B8FAC6
:1040300010BD0000180B0020E009002010B5044658
:104040000B48006820440A490860084600684FF49D
:10405000B47190FBF1F201FB120000F5B47090FB1B
:10406000F1F201FB120002490860FFF79FFA10BD50
:104070006C00002010B504460948046000684FF445
:10408000B47190FBF1F201FB120000F5B47090FBEB
:10409000F1F201FB120002490860FFF787FA10BD38
:1040A0006C00002070B52DED028B75480088022849
:1040B00070DB0026002565E005EB051101EB4511DD
:1040C000704A02EBC10000F029FFF0EE408A05EBD8
:1040D000051101EB45116B4A02EBC10000F01BFF1B
:1040E00038EEC00AB0EE408AB0EE480A01F0BAFDE0
:1040F000DFED650AB4EEE00AF1EE10FA40D2701C72
:10410000C6B200243AE004EB041101EB44115D4A0D
:1041100002EBC10000F0FFFEF0EE408A04EB041158
:1041200001EB4411574A02EBC10000F0FAFE04EB28
:10413000041101EB4411534A02EBC1009FED530AF5
:1041400000F0F2FE04EB041101EB44114D4A02EBC6
:10415000C10101F168009FED4D0A01F023FC04EB61
:10416000041101EB4411474A02EBC10101F1BC000B
:10417000B3EE0E0A01F038FD601CC4B2042CC2DBA1
:10418000681CC5B2042D97DB042E04D000203C49E6
:1041900008805FE05FE03E4800783E490978884249
:1041A00010D03D48B0F90000401C002852D100F06A
:1041B000A9F800284ED0012037490880002037494F
:1041C000087047E03548007828B98220FFF722FFC1
:1041D00001203249087000243AE004EB041101EB9D
:1041E0004411284A02EBC10000F095FEB0EE408A6F
:1041F00004EB041101EB4411224A02EBC10000F070
:1042000090FE04EB041101EB44111E4A02EBC100C5
:104210009FED1E0A00F088FE04EB041101EB44112F
:10422000184A02EBC10101F168009FED180A01F084
:10423000B9FB04EB041101EB4411124A02EBC1017A
:1042400001F1BC00B3EE0E0A01F0CEFC601CC4B25A
:10425000042CC2DB00BF1048008801280CD1104894
:1042600000880A2808DBFFF76FFA4FF0FF300A4991
:10427000088000200A490880BDEC028B70BD000058
:104280008800002094000020CDCC4C3E00000000AF
:104290008F0000208E0000208C0000209000002065
:1042A0008A00002070B506460C4615465520134975
:1042B00008704870084686700720C8700120087191
:1042C0004C7120128871CD712812087208460022A4
:1042D000022103E0435C13449AB2491CC3789B1C3F
:1042E0008B42F7DCD14305484172C078C21C4FF0C5
:1042F000FF3302490248FEF753F970BDE80A002077
:10430000980900200A4890F90000401C60B1084854
:1043100090F90000042809DB054890F900006428A2
:1043200004DA0448007808B9012070470020FCE74F
:10433000660000206A00002010B5002006490860D1
:1043400006490860B7EE000AFEF79AFF01221146FF
:104350000348FCF729FC10BD1400002018000020C1
:104360000018024010B5012251031948FCF71CFC4B
:104370000122D1021648FCF717FC0122D103144890
:10438000FCF712FC012000F039F80022012111484D
:10439000FCF70AFCB7EE000AFEF772FF00210E4898
:1043A000FDF764FD4FF400410C48FCF7F5FB70B9D4
:1043B0000A20FCF7BFFAFEF74FFE01E0FFF738F8DE
:1043C0004FF400410548FCF7E7FB0028F6D010BD8C
:1043D0000014024000180240A00700200004024020
:1043E00010B54FF480410448FCF7D6FB08B9012012
:1043F00010BD0020FCE700000014024010B5044688
:10440000012C05D1002281030448FCF7CDFB04E018
:10441000012291030148FCF7C7FB10BD00140240C4
:1044200010B50446B4F5804F03D0B4F5004F27D142
:1044300013E04FF480411448FCF7AEFB01280BD188
:10444000FFF7CEFF012807D1002201210F48FCF71A
:10445000ABFB0020FFF7D2FF13E04FF400410A4806
:10446000FCF79AFB01280AD1FFF7BAFF38B90022FE
:1044700001210648FCF798FB0120FFF7BFFF00E091
:1044800000BF00BF10BD0000000402400018024041
:1044900010B54FF480410648FCF77EFB012800D19F
:1044A00010BD0120FFF7AAFFFFF746FF00BFF7E7A7
:1044B00000040240014691F85800704780F85810F7
:1044C000704770B50446606E60B9B4F84A100022B7
:1044D000E06CFCF769FBB4F850100022606DFCF74B
:1044E00063FB1EE0606E00280CDDB4F84A10012268
:1044F000E06CFCF759FBB4F850100022606DFCF73B
:1045000053FB0EE0606E00280BDAB4F84A1000226C
:10451000E06CFCF749FBB4F850100122606DFCF729
:1045200043FB606E01F003FF054640F66B718D4260
:1045300000DA0D4640F2B570854200DA002594F8A5
:10454000480010B9206845630FE094F8480004283B
:1045500002D12068856308E094F84800082802D159
:104560002068C56301E02068056470BD30B52DED9D
:10457000048B85B00546B0EE408AF0EE608AB0EE5E
:10458000419A00240DE004EB041101EB441105EB0A
:10459000C10000F0C0FC01A800EB840080ED000A1F
:1045A000641C042CEFDB9DED010A30EE480A8DED12
:1045B000010A9DED020A30EE480A8DED020A9DEDDA
:1045C000030A30EE080A8DED030A9DED040A30EE71
:1045D000080A8DED040A9DED010A30EE280A8DEDE2
:1045E000010A9DED020A30EE680A8DED020A9DED8A
:1045F000030A30EE280A8DED030A9DED040A30EE21
:10460000680A8DED040A9DED010A30EE090A8DED70
:10461000010A9DED020A30EE490A8DED020A9DED78
:10462000030A30EE490A8DED030A9DED040A30EECF
:10463000090A8DED040A00241BE001A901EB8401A5
:10464000D1ED000AB0EE600A04EB041101EB441155
:1046500005EBC10000F065FC04EB041101EB441113
:1046600005EBC10101F1BC009FED050A01F0BCFAA8
:10467000641C042CE1DB05B0BDEC048B30BD0000F4
:104680000000484370B504460E4684F8B066002525
:1046900009E005EB051101EB451104EBC1003146C2
:1046A00000F045FC6D1C042DF3DB70BD70B50546B4
:1046B0000C46082C03D1284600F03CFC14E0B4F56D
:1046C000005F04D105F5C47000F034FC0CE0102C40
:1046D00004D105F5447000F02DFC05E0012C03D158
:1046E00005F5936000F026FC70BD000070B52DED5F
:1046F000108B0446F7EE080ABFEE080A04F2B46015
:1047000001F0EAFDF7EE080ABFEE080A04F5D760EB
:1047100001F0E2FDF0EE080AB8EE080A04F2BC600F
:1047200001F0DAFD2046FFF7C5FE08B9012001E0DF
:104730004FF0FF30054602F06EF841EC1A0B94F989
:10474000C00602F068F841EC1F0B9FED9F0B53EC85
:10475000102B02F0B3F841EC1D0B04F5806090EDD6
:10476000AD0A04F2B460D0ED020A9FED991A01EE91
:10477000200AD0ED010A30EE600A10EE101A084649
:1047800002F084FA41EC1E0B53EC1D2B01F008FEE5
:1047900041EC1C0B9FED8F0B53EC102B01F0B4FE82
:1047A00041EC1B0B53EC1A2B02F088F841EC190B6F
:1047B00001F0C4FD08EE100AB0EE480A204600F0F1
:1047C000B3FB04F5C470FFF775FE08B9012001E0E2
:1047D0004FF0FF30054602F01EF841EC1A0B94F939
:1047E000C10602F018F841EC1F0B9FED770B53EC5C
:1047F000102B02F063F841EC1D0B04F5806090ED86
:10480000AD0A04F2B460D0ED020A9FED711A11EE08
:10481000200AD0ED010A30EE600A10EE101A0846A8
:1048200002F034FA41EC1E0B53EC1D2B01F0B8FDE5
:1048300041EC1C0B9FED670B53EC102B01F064FE59
:1048400041EC1B0B53EC1A2B02F038F841EC190B1E
:1048500001F074FD08EE100AB0EE480A04F5C470C9
:1048600000F062FB04F54470FFF724FE08B9012054
:1048700001E04FF0FF30054601F0CDFF41EC1A0B8F
:1048800094F9C20601F0C7FF41EC1F0B9FED4E0BE0
:1048900053EC102B02F012F841EC1D0B04F5806074
:1048A00090EDAD0A04F2B460D0ED020A9FED4B1A10
:1048B00001EE200AD0ED010A30EE600A10EE101A67
:1048C000084602F0E3F941EC1E0B53EC1D2B01F0FE
:1048D00067FD41EC1C0B9FED3F0B53EC102B01F0DF
:1048E00013FE41EC1B0B53EC1A2B01F0E7FF41ECDC
:1048F000190B01F023FD08EE100AB0EE480A04F58A
:10490000447000F011FB04F59360FFF7D3FD08B984
:10491000012001E04FF0FF30054601F07CFF41EC43
:104920001A0B94F9C30601F076FF41EC1F0B9FEDC3
:10493000260B53EC102B01F0C1FF41EC1D0B04F5CD
:10494000806090EDAD0A04F2B460D0ED020A9FEDF4
:10495000231A11EE200AD0ED010A30EE600A10EEA3
:10496000101A084602F092F941EC1E0B53EC1D2B75
:1049700001F016FD41EC1C0B9FED160B53EC102BB8
:1049800001F0C2FD41EC1B0B53EC1A2B01F096FF1A
:1049900041EC190B01F0D2FC08EE100AB0EE480A07
:1049A00004F5936000F0C0FA002508E005EB05115E
:1049B00001EB451104EBC10000F0DCFA6D1C042D85
:1049C000F4DBBDEC108B70BD7B14AE47E17A843F05
:1049D00048E1DABE000000403333B33F48E1DA3E3D
:1049E0000FB430B5CFB004463D2253A904F5C460DE
:1049F000FBF7B3FC9DF8891184F85D169DF88A11C8
:104A000084F85E169DF88B1184F85F169DF88C1162
:104A100084F860169DF88D1184F861169DF88E114A
:104A200084F862169DF88F1184F863169DF8901132
:104A300084F864169DF8911184F865169DF892111A
:104A400084F866163D2265A904F5CD60FBF785FC68
:104A50009DF8D11184F8A5169DF8D21184F8A616F8
:104A60009DF8D31184F8A7169DF8D41184F8A816E0
:104A70009DF8D51184F8A9169DF8D61184F8AA16C8
:104A80009DF8D71184F8AB169DF8D81184F8AC16B0
:104A90009DF8D91184F8AD169DF8DA1184F8AE1698
:104AA0003D2265A93DA8FBF758FC9DF8D1018DF882
:104AB00031019DF8D2018DF832019DF8D3118DF8A6
:104AC00033119DF8D4118DF834119DF8D5118DF85E
:104AD00035119DF8D6018DF836019DF8D7118DF866
:104AE00037119DF8D8118DF838119DF8D9118DF82E
:104AF00039119DF8DA018DF83A013D2253A92BA80E
:104B0000FBF72BFC9DF889018DF8E9009DF88A01DF
:104B10008DF8EA009DF88B118DF8EB109DF88C1143
:104B20008DF8EC109DF88D118DF8ED109DF88E012B
:104B30008DF8EE009DF88F118DF8EF109DF8901113
:104B40008DF8F0109DF891118DF8F1109DF89201FB
:104B50008DF8F200E5484021E54A0823CDE92632E8
:104B6000CDE9281048223DA914A8FBF7F6FBDF4841
:104B700004210823CDE91030CDE9121000203C2299
:104B80002EA90F906846FBF7E8FB20462BA90EC91B
:104B900000F090FA3D2265A93DA8FBF7DEFB9DF8E9
:104BA000D1018DF831019DF8D2018DF832019DF8C7
:104BB000D3118DF833119DF8D4118DF834119DF86F
:104BC000D5118DF835119DF8D6018DF836019DF877
:104BD000D7118DF837119DF8D8118DF838119DF83F
:104BE000D9118DF839119DF8DA018DF83A013D227D
:104BF00053A92BA8FBF7B1FB9DF889018DF8E900BB
:104C00009DF88A018DF8EA009DF88B118DF8EB1064
:104C10009DF88C118DF8EC109DF88D118DF8ED102C
:104C20009DF88E018DF8EE009DF88F118DF8EF1034
:104C30009DF890118DF8F0109DF891118DF8F110FC
:104C40009DF892018DF8F200A9480421A94ACB02EF
:104C5000CDE92632CDE9281048223DA914A8FBF75A
:104C60007CFBA24820211023CDE91030CDE91210A1
:104C700004203C222EA90F906846FBF76EFB04F53A
:104C8000C4702BA90EC900F015FA3D2265A93DA8F4
:104C9000FBF763FB9DF8D1018DF831019DF8D2013E
:104CA0008DF832019DF8D3118DF833119DF8D41190
:104CB0008DF834119DF8D5118DF835119DF8D60178
:104CC0008DF836019DF8D7118DF837119DF8D81160
:104CD0008DF838119DF8D9118DF839119DF8DA0148
:104CE0008DF83A013D2253A92BA8FBF736FB9DF81E
:104CF00089018DF8E9009DF88A018DF8EA009DF898
:104D00008B118DF8EB109DF88C118DF8EC109DF83F
:104D10008D118DF8ED109DF88E018DF8EE009DF847
:104D20008F118DF8EF109DF890118DF8F0109DF80F
:104D300091118DF8F1109DF892018DF8F2006B48F9
:104D400002216D4A1023CDE92632CDE928104822F0
:104D50003DA914A8FBF701FB674880218315CDE925
:104D60001030CDE9121008203C222EA90F90684681
:104D7000FBF7F3FA04F544702BA90EC900F09AF979
:104D8000012104F54470FFF799FB3D2265A93DA878
:104D9000FBF7E3FA9DF8D1018DF831019DF8D201BE
:104DA0008DF832019DF8D3118DF833119DF8D4118F
:104DB0008DF834119DF8D5118DF835119DF8D60177
:104DC0008DF836019DF8D7118DF837119DF8D8115F
:104DD0008DF838119DF8D9118DF839119DF8DA0147
:104DE0008DF83A013D2253A92BA8FBF7B6FA9DF89E
:104DF00089018DF8E9009DF88A018DF8EA009DF897
:104E00008B118DF8EB109DF88C118DF8EC109DF83E
:104E10008D118DF8ED109DF88E018DF8EE009DF846
:104E20008F118DF8EF109DF890118DF8F0109DF80E
:104E300091118DF8F1109DF892018DF8F2002E4835
:104E400008212A4A0123CDE92632CDE9281048223B
:104E50003DA914A8FBF781FA274840212023CDE97A
:104E60001030CDE912100C203C222EA90F9068467C
:104E7000FBF773FA04F593602BA90EC900F01AF939
:104E8000012104F59360FFF719FB002528E005EBED
:104E9000051101EB451104EBC10101F168009FED23
:104EA000172ADFED161A9FED161ADFED160A9FED91
:104EB000160A00F08BFE05EB051101EB451104EB22
:104EC000C10101F1BC00B3EE0E2ADFED0C1A9FED1B
:104ED0000C1ADFED0B0A9FED0D0A00F077FE6D1C3A
:104EE000042DD4DB4FB030BC5DF814FB0010024041
:104EF0000014024000080240000402400000804FFD
:104F0000000000000000C842000048440000484380
:104F10000021C160704790ED600A704790ED610A12
:104F2000704780ED610A704780ED5F0A704780F836
:104F30006811704710B50446B4F86011D4F86401E4
:104F4000FBF72AFE08B9012000E0002094F8581071
:104F500009B9012100E00021484028B9D4F86C01CA
:104F6000401EC4F86C0104E0D4F86C01401CC4F885
:104F70006C0110BD10B52DED028B044604F5B47420
:104F8000D4E90101401A08EE100A94ED030AF8EE84
:104F9000C80A80EE801A94ED060A31EE000A84ED0C
:104FA000060A94ED030AB8EEC81AC1EE000A9FED96
:104FB000400A80EE801A84ED041A6068A0602078B0
:104FC000A4F5B47480B9D4ED5F0A94ED180AB8EE74
:104FD000C00A20EE800AD4ED170A80EE201ABDEE3A
:104FE000C10A84ED190A56E094F8680101281CD121
:104FF000D4ED5E0AB0EE600A04F1680000F0F7FD3F
:10500000D4ED5F0AB0EE600A04F1680000F0C4FC61
:1050100004F1680000F0CAFC04F1680000F0E1FD52
:10502000BDEEC00A84ED190A35E094F86801022843
:1050300031D1D4ED610AB0EE600A04F1BC0000F099
:10504000ABFCD4ED600AB0EE600A04F1BC0000F0E5
:10505000CEFD04F1BC0000F0A9FC04F1BC0000F09E
:10506000C0FDF0EE408A04F1680000F095FCD4ED3C
:105070005E0AB0EE600A04F1680000F0B8FD04F1C9
:10508000680000F093FC04F1680000F0AAFDBDEE9A
:10509000C00A84ED190A47F6FF72514204F1640018
:1050A00001F02EF92046FFF70CFABDEC028B10BD83
:1050B0000AD7A33B0FB42DE9F05F0446DDE934AB1A
:1050C0001DAD95E8E0033D220BA92046FBF745F90D
:1050D0009DF8690084F83D009DF86A0084F83E0060
:1050E0009DF86B103F2001559DF86C104020015534
:1050F0009DF86D10412001559DF86E0084F8420026
:105100009DF86F10432001559DF870104420015503
:105110009DF87110452001559DF8720084F84600F5
:1051200084F84850A4F84A60E764A4F85080C4F8B2
:1051300054903D2222A904F58870FBF70EF99DF8E2
:10514000C51084F84D119DF8C61084F84E119DF8D5
:10515000C71084F84F119DF8C81084F850119DF8BD
:10516000C91084F851119DF8CA1084F852119DF8A5
:10517000CB1084F853119DF8CC1084F854119DF88D
:10518000CD1084F855119DF8CE1084F85611A4F86E
:1051900058A1C4F85CB13698A4F860013798C4F8F7
:1051A000640129460BA8FCF761FEBDE8F01F5DF81D
:1051B00014FB000010B50446002184F858109FED40
:1051C000190A84ED170A47F6FF712166002104F1E0
:1051D0006800616600F00EFDA0F16804543000F034
:1051E00009FDA0F1BC04012084F868010020C4F886
:1051F0006C019FED0D0AC4F8700184ED5D0A9FED0E
:105200000B0A84ED5E0A9FED090A84ED5F0A9FEDAB
:10521000070A84ED600A9FED050A84ED610A2046C5
:1052200010BD000027AFC04127745F42000000009E
:10523000014600208A6A8B69CBB932B1012A0DD0B0
:10524000022A03D0032A10D10EE000BFCB6A03F07C
:105250008073B3F1807F00D1012007E0CB6AB3F106
:10526000C07F00D1012001E000E000BF34E08B6985
:10527000B3F5005F1AD132B1012A07D0022A03D058
:10528000032A11D10AE000BF01200EE0CB6A03F02F
:105290008073B3F1807F00D1012006E0CB6AB3F1C7
:1052A000C07F00D1012000E000BF15E032B1012A2B
:1052B00005D0022A04D0032A0CD103E000BF00BFAE
:1052C000012008E0CB6A03F08073B3F1807F00D146
:1052D000012000E000BF00BF7047000001460878D1
:1052E00010381823B0FBF3F20848805CC865032A25
:1052F00005D908686FF30900001D886503E0086898
:105300006FF309008865886D70470000946D000890
:1053100030B5026A056A25F00105056243688469B3
:1053200024F0700424F003040D682C4322F00202E0
:105330008D682A43104DA84200D103E00F4DA842CA
:1053400006D100BF22F00802CD682A4322F00402F1
:10535000094DA84202D0094DA84207D123F4807319
:1053600023F400734D692B438D692B4343608461A3
:105370004D684563026230BD0000014000040140F9
:1053800030B5026A056A25F4807505624368C46910
:1053900024F0700424F003040D682C4322F40072FE
:1053A0008D6842EA0522124DA84200D103E0114D5A
:1053B000A84207D100BF22F40062CD6842EA05226C
:1053C00022F480620A4DA84202D00A4DA84209D1B7
:1053D00023F4805323F400534D6943EA05138D6988
:1053E00043EA05134360C4614D68C563026230BD82
:1053F000000001400004014030B5036A056A25F44D
:10540000805505624468C26922F4E04222F4407289
:105410000D6842EA052223F400538D6843EA053300
:10542000084DA84202D0084DA84204D124F480447B
:105430004D6944EA85144460C2614D6805640362A5
:1054400030BD000000000140000401400A468168B0
:1054500021F0700142F0070319438160704730B5B5
:105460000B461446026A056A25F00105056281694A
:1054700021F0F00141EA041122F00A021A4381618D
:10548000026230BD30B50B461446026A056A25F04B
:1054900010050562816921F4704141EA043122F06E
:1054A000A00242EA03128161026230BD2DE9F84F89
:1054B00004462068006920F44050E16808432168F0
:1054C00008612169A068084361690843E1690843EC
:1054D00000902068C06849F20C6188430099084335
:1054E0002168C8602068406920F44070A1690843C1
:1054F0002168486176492068884203D07549206850
:10550000884203D1FBF716FD814602E0FBF702FD5E
:105510008146E069B0F5004F6CD102206168A0FBC4
:10552000015003461920A9FB007001462A4638465F
:10553000FAF79CFE6421B0FBF1F04FEA001A02205A
:105540006168A0FB01510B461920A9FB00712A4696
:105550003846FAF78BFE834602206168A0FB0150B3
:1055600003461920A9FB00712A463846FAF77EFE49
:105570006421B0FBF1F000EBC00101EB0010ABEBDC
:105580008000322101EBC0006421B0FBF1F000F09B
:10559000F8000AEB400A02206168A0FB01500346B4
:1055A0001920A9FB007001462A463846FAF75EFE2C
:1055B000834602206168A0FB015003461920A9FB25
:1055C00000712A463846FAF751FE6421B0FBF1F02B
:1055D00000EBC00101EB0010ABEB8000322101EBCE
:1055E000C0006421B0FBF1F000F0070050442168D6
:1055F00088606AE004206168A0FB0150034619201E
:10560000A9FB007001462A463846FAF72FFE82466B
:1056100004206168A0FB015003461920A9FB00701B
:1056200001462A463846FAF721FE6421B0FBF1F024
:1056300000EBC00101EB0010AAEB8000322101EB6E
:1056400000106421B0FBF1F000F0F00A0420616862
:10565000A0FB017003461920A9FB00513A462846D9
:10566000FAF704FE6421B0FBF1F00AEB001A042003
:105670006168A0FB01510B461920A9FB00712A4665
:105680003846FAF7F3FD834604206168A0FB015019
:1056900003461920A9FB007001462A463846FAF74E
:1056A000E5FD6421B0FBF1F000EBC00101EB00105F
:1056B000ABEB8000322101EB00106421B0FBF1F074
:1056C00000F00F00504421688860BDE8F88F0000AA
:1056D0000010014000140140F8B5044694F842005F
:1056E000222875D1A068B0F5805F0CD1206950B92F
:1056F0000025A66A20684068C0F308003080A06AD0
:10570000801CA06215E0A56A0026A068B0F5805F45
:1057100003D0A06828B9206918B9206840682870AB
:1057200004E02068406800F07F002870A06A401CF8
:10573000A062E08D401E80B2E085002846D120683E
:10574000C06820F020002168C8602068C06820F48C
:1057500080702168C8602068406920F001002168DD
:105760004861202084F8420000206063206B0128FB
:1057700026D10020206300BF00BF21680C3151E812
:10578000001F21F0100021680C3141E80002002ABE
:10579000F3D100BF2068006800F0100010280AD183
:1057A00000BF0020009020680068009020684068DA
:1057B000009000BF00BFA18D2046FCF7EEFB02E089
:1057C0002046FCF7E3FE0020F8BD01E00020FBE7E7
:1057D0000220F9E7014691F84100212828D1886884
:1057E000B0F5805F0BD1086948B90A6A1088C0F328
:1057F00008000B685860086A801C086205E00B6AA4
:10580000581C086218780B685860C88C401E80B21B
:10581000C88458B90868C06820F080000B68D86058
:105820000868C06840F040000B68D86000207047EE
:105830000220FCE700BF00BF02680C3252E8002FD4
:1058400022F4907102680C3242E80013002BF3D16D
:1058500000BF00BF00BF0268143252E8002F22F0E0
:1058600001010268143242E80013002BF3D100BF9B
:10587000016B01290ED100BF00BF02680C3252E853
:10588000002F22F0100102680C3242E80013002BB6
:10589000F3D100BF202180F842100021016370473E
:1058A00010B504462068C06820F040002168C86038
:1058B000202084F841002046FCF7D1FE002010BDD6
:1058C00070B50546AC6B0020E085E0842046FCF70F
:1058D00065FB70BD2DE9F84304460D461746984612
:1058E000089E31E0701C70B3FBF764F9A0EB080070
:1058F000B04200D816B90320BDE8F8832068C0681C
:1059000000F00400F8B1802D1ED0402D1CD020687E
:105910000068C0F3C000B0B100BF00200090206854
:105920000068009020684068009000BF00BF2046DB
:10593000FFF780FF0820606400BF002084F840006B
:1059400000BF0120D8E7FFE7206800682840A84290
:1059500001D1012000E00020B842C3D00020CBE7F5
:1059600010B5002804DB0A07130E054A135406E09D
:105970000A07140E034A00F00F031B1FD45410BD76
:1059800000E400E018ED00E002480068C0F30220E7
:10599000704700000CED00E080ED070A704780EDD5
:1059A000060A704780ED000A7047000010B52DED23
:1059B000048B044694ED070AD4ED080A30EE600A21
:1059C00084ED090AD4ED090AB0EE600A00F0A2FCE9
:1059D000B0EE408A94ED100AB4EEC80AF1EE10FA67
:1059E00006DD9FED790A84ED0A0ABDEC048B10BD3B
:1059F00094ED020AD4ED090A20EE200A84ED0D0A86
:105A000094ED110AB5EEC00AF1EE10FA09D194ED49
:105A1000110AB5EEC00AF1EE10FA02D1F7EE008AD3
:105A200039E094ED120AB4EEC80AF1EE10FA02DD84
:105A3000F7EE008A24E094ED110AD4ED120A70EE1C
:105A4000200A94ED120AB4EEC80AF1EE10FA01D859
:105A5000012000E0002000EE100AB8EEC00AF4EECB
:105A6000C00AF1EE10FA0BDD94ED110AD4ED120A22
:105A700030EE200A30EE480AD4ED110AC0EE208A3A
:105A800094ED120AB4EEC80AF1EE10FA03D89FEDB5
:105A90004E0AF0EE408A94ED000AD4ED010A60EE61
:105AA000A80A94ED091A00EE810A84ED000A94ED2B
:105AB000050AB5EEC00AF1EE10FA18D094ED050A09
:105AC000D4ED030A80EE201AB0EE419A94ED050A57
:105AD000B1EE400AD4ED030A80EE201AF0EE419AAE
