:020000040800F2
:100000005808002029020008551E0008031A00089D
:10001000511E00081F0400082120000800000000F5
:100020000000000000000000000000005D1E00084D
:100030002304000800000000591E00085F1E00088D
:10004000430200084302000843020008430200087C
:10005000430200085B1E0008430200084302000838
:10006000430200084302000843020008430200085C
:10007000430200084302000843020008430200084C
:10008000430200084302000843020008430200083C
:10009000430200084302000843020008430200082C
:1000A000430200084302000843020008430200081C
:1000B000430200084302000843020008430200080C
:1000C00043020008430200084302000843020008FC
:1000D00043020008430200084302000843020008EC
:1000E00025040008430200084302000843020008F8
:1000F000430200087D1E0008430200084302000876
:1001000043020008430200084302000843020008BB
:1001100043020008430200084302000843020008AB
:10012000430200084302000843020008430200089B
:10013000430200084302000843020008430200088B
:10014000430200084302000843020008430200087B
:10015000430200084302000843020008430200086B
:10016000430200084302000843020008430200085B
:100170004302000843020008430200080000000098
:10018000430200084302000800F002F800F03CF8C7
:100190000AA090E8000C82448344AAF10107DA45E2
:1001A00001D100F031F8AFF2090EBAE80F0013F0F8
:1001B000010F18BFFB1A43F0010318476423000026
:1001C00084230000103A24BF78C878C1FAD85207B7
:1001D00024BF30C830C144BF04680C6070470000C1
:1001E0000023002400250026103A28BF78C1FBD840
:1001F000520728BF30C148BF0B6070471FB502F0DF
:100200007DF91FBD10B510BD00F0CFF81146FFF706
:10021000F5FF02F04DF900F0EDF803B4FFF7F2FF3F
:1002200003BC00F0F5F80000094880470948004782
:10023000FEE7FEE7FEE7FEE7FEE7FEE7FEE7FEE796
:10024000FEE7FEE704480549054A064B70470000F3
:10025000691E000889010008580200205808002083
:10026000580400205804002053EA020C00F0698072
:100270002DE9F04B4FF00006002B1FBFB3FA83F5BA
:1002800003FA05F424FA05F65E4012BF1643B2FAEB
:1002900082F502FA05F4C5F120051EBF22FA05FC1D
:1002A00044EA0C04203556EA044C4FEA144418BFC3
:1002B000641C4FF000084FF00009904271EB030CF2
:1002C00039D3002919BFB1FA81F701FA07F6B0FA5C
:1002D00080F700FA07F6C7F120071EBF20FA07FCD7
:1002E00046EA0C062037B6FBF4FCA7EB0507103FE7
:1002F00007F01F0BCBF120060CFA0BFB2CFA06F6CD
:1003000044BFB3460026202FA4BF5E464FF0000B2B
:100310005BEA060C08BF4FF0010B19EB0B09ABFBB6
:10032000027C48EB0608C01B06FB02CC0BFB03CC8F
:1003300071EB0C01C1E70B46024641464846BDE859
:10034000F08B13B54FF000004FF00001AFF30080C9
:10035000BDE81C4070474FF0000200B513469446BC
:100360009646203922BFA0E80C50A0E80C50B1F10D
:100370002001BFF4F7AF090728BFA0E80C5048BF21
:100380000CC05DF804EB890028BF40F8042B08BFBF
:10039000704748BF20F8022B11F0804F18BF00F8BB
:1003A000012B7047704770477047754600F02CF876
:1003B000AE4605006946534620F00700854618B052
:1003C00020B5FFF73FFFBDE820404FF000064FF09B
:1003D00000074FF000084FF0000B21F00701AC467A
:1003E000ACE8C009ACE8C009ACE8C009ACE8C00999
:1003F0008D46704710B50446AFF300802046BDE837
:100400001040FFF70ABF000000487047F8010020C5
:1004100001491820ABBEFEE726000200704700BF6E
:10042000FEE7704710B54FF4804000F00FF84FF42E
:10043000004000F00BF810BD72B600BFFEE710B52B
:100440000446204601F012FF10BD000010B504461E
:1004500004480068204020B1024804602046FFF7AD
:10046000EEFF10BD143C0140F8B502460B460025D6
:10047000002400200021D6E0012606FA01F51E68BE
:1004800006EA0504AC4274D11E7906F00306012E7B
:1004900004D01E7906F00306022E13D190684F0097
:1004A0000326BE40B0434F00DE68BE40304390603C
:1004B000506801268E40B0431E79C6F300168E4068
:1004C000304350601E7906F00306032E09D0D06831
:1004D0004F000326BE40B0434F009E68BE403043ED
:1004E000D0601E7906F00306022E13D1CF0802F168
:1004F000200656F827004E07F70E0F26BE40B043E1
:100500004F07FF0E1E69BE403043CF0802F12006A0
:1005100046F8270010684F000326BE40B0431E79FE
:1005200006F003064F00BE40304310605E6806F4DC
:100530004036002E76D000BF002600963C4E36682E
:1005400046F480463A4F3E603E46366806F48046A2
:10055000009600BF00BF374E8F0856F827008E0761
:10056000370F0F26BE40B043334EB24202D10026B1
:1005700024E057E0314EB24201D101261EE0304E58
:10058000B24201D1022619E02E4EB24201D1032619
:1005900014E02D4EB24201D104260FE02B4EB242A0
:1005A00001D105260AE02A4EB24201D1062605E015
:1005B000284EB24201D1072600E008268F073F0FE0
:1005C000BE4030431B4E8F0846F82700224E30684D
:1005D000A0435E6806F4801606B120431E4E3060CC
:1005E000361D3068A0435E6806F4001606B120434D
:1005F000194E361D3060184E361F3068A0435E68B5
:1006000006F4003606B12043134E361F3060361F05
:100610003068A0435E6806F4803606B120430E4E73
:10062000083E3060491C1029FFF426AFF8BD0000D9
:1006300044380240083801400000024000040240F3
:1006400000080240000C024000100240001402406A
:1006500000180240001C0240083C01400246136999
:100660000B400BB1012000E0002070470AB181610E
:1006700001E00B0483617047014800687047000087
:100680000400002003480068034909780844014930
:1006900008607047040000200C00002010B50D48D1
:1006A000006840F400700B4908600846006840F498
:1006B000806008600846006840F48070086003208D
:1006C00000F0AAF80F2000F007F800F02BF8002047
:1006D00010BD0000003C024070B504460E48007892
:1006E0004FF47A71B1FBF0F00C490968B1FBF0F5F9
:1006F000284600F00DFC08B1012070BD102C07D277
:1007000000222146501E00F049F80548046001E02F
:100710000120F2E70020F0E70C000020100000208C
:100720000800002008B500BF0020009012480068B3
:1007300040F48040104908600846006800F480409A
:10074000009000BF00BF00BF00200090081F00689D
:1007500040F08050091F08600846006800F0805093
:10076000009000BF00BF00221146052000F016F8DF
:10077000052000F003F808BD443802400146084651
:10078000002809DB00F01F0301229A4043099B0067
:1007900003F1E023C3F8002100BF70472DE9F05FAB
:1007A00080460D461646002701F07AFE0746394678
:1007B0002A46334601F00700C0F1070ABAF1040FD8
:1007C00002D94FF0040A01E0C0F1070AD14600F156
:1007D000040ABAF1070F02D24FF0000A01E0A0F1BB
:1007E000030AD4464FF0010A0AFA09FAAAF1010AEB
:1007F0000AEA020A0AFA0CFA4FF0010B0BFA0CFB98
:10080000ABF1010B0BEA030B4AEA0B04214640460D
:1008100001F032FEBDE8F09F00BF00F00702064B7A
:1008200019684FF6FF031940044B0B4343EA0221BA
:10083000014B196000BF70470CED00E00000FA05A5
:1008400070B504460D460CB9012070BD58480068CB
:1008500000F00700A84209D255490D70084600680B
:1008600000F00700A84201D00120EEE7207800F058
:10087000020002281DD1207800F00400042805D1D0
:100880004C48006840F4E0504A490860207800F085
:100890000800082805D14748006840F460404549F1
:1008A00008604448006820F0F000A168084341490E
:1008B0000860207800F00100A8B36068012807D123
:1008C0003C4808380068C0F34040B8B90120BCE794
:1008D0006068022802D06068032807D135480838CC
:1008E0000068C0F3406048B90120AEE731480838DD
:1008F0000068C0F3400008B90120A6E72D48006851
:1009000020F00300616808432A490860FFF7B4FE3D
:10091000064609E0FFF7B0FE801B41F288318842AD
:1009200002D9032091E707E02248006800F00C009C
:100930006168B0EB810FEDD11D48006800F0070041
:10094000A84209D91A490D700846006800F007004E
:10095000A84201D0012078E7207800F004000428A4
:1009600007D11448006820F4E050E16808431149B9
:100970000860207800F00800082808D10D480068B9
:1009800020F46040216940EAC1000A49086000F093
:1009900019F808490968C1F30311074A515CC840B6
:1009A0000649086006480068FFF796FE00204CE7FD
:1009B000003C0240083802400625000810000020D4
:1009C000080000202DE9F047002400250026A1465C
:1009D0002548006800F00C0020B1042805D0082844
:1009E0003AD105E0DFF8849039E0DFF8849036E012
:1009F0001D48001F006800F03F041B48001F0068EE
:100A000000F4800078B11A481749091F0968C1F33A
:100A10008811A0FB01700146224600233846FFF7EB
:100A200023FC05460EE011480F49091F0968C1F370
:100A30008811A0FB01700146224600233846FFF7CB
:100A400013FC05460848001F0068C0F30140401C25
:100A50004600B5FBF6F902E0DFF8109000BF00BFDA
:100A60004846BDE8F0870000083802400024F40042
:100A700040787D01F8B504460CB90120F8BD207816
:100A800000F00100002874D0F948006800F00C0064
:100A900004280DD0F648006800F00C00082813D197
:100AA000F348001F006800F48000B0F5800F0BD100
:100AB000EF4808380068C0F34040002859D060680B
:100AC000002856D10120D9E700BF6068B0F5803F0B
:100AD00008D1E7480838006840F48030E449083914
:100AE00008601EE06068B0F5A02F0DD1E04808381E
:100AF000006840F48020DE49083908600846006834
:100B000040F4803008600CE0D9480838006820F4D0
:100B10008030D749083908600846006820F48020F2
:100B2000086000BF606890B1FFF7A6FD054606E0CB
:100B3000FFF7A2FD401B642801D903209EE7CC48A3
:100B400008380068C0F340400028F1D011E0FFF7FA
:100B500093FD054606E0FFF78FFD401B642801D991
:100B600003208BE7C24808380068C0F340400028E3
:100B7000F1D1207800F0020002285FD1BC48006863
:100B800000F00C0058B1BA48006800F00C000828CA
:100B90001CD1B748001F006800F48000B0B9B44809
:100BA00008380068C0F3400020B1E068012801D097
:100BB000012063E7AE480838006820F0F80021699A
:100BC00040EAC100AA490839086037E0E06800B38C
:100BD0000120A8490860FFF74FFD054606E0FFF732
:100BE0004BFD401B022801D9032047E7A0480838E5
:100BF0000068C0F340000028F1D09D480838006824
:100C000020F0F800216940EAC100994908390860DC
:100C100014E0002097490860FFF72EFD054606E026
:100C2000FFF72AFD401B022801D9032026E7904840
:100C300008380068C0F340000028F1D1207800F0A7
:100C4000080008282CD16069A8B101208A490860F1
:100C5000FFF712FD054606E0FFF70EFD401B0228D8
:100C600001D903200AE782486C300068C0F34000D5
:100C70000028F1D014E000207F490860FFF7FCFC59
:100C8000054606E0FFF7F8FC401B022801D90320C7
:100C9000F4E677486C300068C0F340000028F1D1DA
:100CA000207800F00400042870D100277048383004
:100CB000006800F0805090B900BF002000906C48A0
:100CC0003830006840F08050694938310860084683
:100CD000006800F08050009000BF00BF0127674807
:100CE000006800F48070B0B96448006840F4807017
:100CF00062490860FFF7C0FC054606E0FFF7BCFC50
:100D0000401B022801D90320B8E65C48006800F4C3
:100D100080700028F2D000BFA068012808D1544894
:100D20006830006840F001005149683108601DE0FA
:100D3000A06805280DD14E486830006840F00400D6
:100D40004B49683108600846006840F001000860BF
:100D50000CE047486830006820F0010044496831E1
:100D600008600846006820F00400086000BFA06822
:100D7000A8B1FFF781FC054609E0FFF77DFC401BA9
:100D800041F28831884202D9032077E626E03848CC
:100D900068300068C0F340000028EED013E0FFF791
:100DA0006BFC054608E0FFF767FC401B41F2883109
:100DB000884201D9032061E62D4868300068C0F3FD
:100DC00040000028EFD1012F07D1294838300068B2
:100DD00020F0805026493831086000BFA069002803
:100DE00045D02348006800F00C0008285DD0A069B9
:100DF000022845D100201F490866FFF73DFC054643
:100E000006E0FFF739FC401B022801D9032035E634
:100E1000174808380068C0F340600028F1D1D4E9D1
:100E200007010843616A40EA81110122A06AC2EB0E
:100E3000500041EA00412C20005D41EA00600C496D
:100E4000091F086001200B490866FFF715FC0546DD
:100E500006E0FFF711FC401B022801D903200DE634
:100E6000034808380068C0F340600028F1D049E02A
:100E70000838024000004742800E474200700040A0
:100E8000002021490866FFF7F7FB054606E0FFF75B
:100E9000F3FB401B022801D90320EFE51B48006843
:100EA000C0F340600028F2D12CE0A069012800D1F5
:100EB000E4E51648001D0668A069012820D006F464
:100EC0008001E06981421BD106F03F01206A814226
:100ED00016D147F6C0703040616AB0EB811F0FD168
:100EE00006F440310122A06AC2EB5000B1EB004F82
:100EF00006D106F070612C20005DB1EB006F01D0CF
:100F00000120BBE50020B9E500004742003802405F
:100F100070B504462546681EB0F1807F01D30120DC
:100F20000FE0681E4FF0E02148610F214FF0FF30C5
:100F300001F0A2FA00204FF0E0218861072008614B
:100F4000002070BD7047704730B502460B4600BFA9
:100F500092F83C00012801D1022030BD012082F826
:100F60003C0000BF022082F83D0010684468106811
:100F7000816824F070041868044310684460184DB8
:100F80001068A8421BD01068B0F1804F17D0154DE3
:100F90001068A84213D0144D1068A8420FD0134D0A
:100FA0001068A8420BD0124D1068A84207D0114D0E
:100FB0001068A84203D0104D1068A84205D121F056
:100FC00080015868014310688160012082F83D006B
:100FD00000BF002082F83C0000BF00BFBDE700005A
:100FE000000001400004004000080040000C0040E8
:100FF00000040140004001400018004010B50446C4
:101000000CB9012010BD94F83D0028B9002084F8E7
:101010003C00204600F026F8022084F83D00211D07
:10102000206800F037FF012084F8460000BF84F8F4
:101030003E0001213F20015540200155412001552E
:1010400000BF00BF012084F8420043200155442026
:1010500001554520015500BF012084F83D000020C6
:10106000D0E7000038B504461849206888420FD1FF
:1010700000BF002000901648006840F004001449AA
:1010800008600846006800F00400009000BF1BE004
:1010900010492068884217D100BF002000900C48FA
:1010A000006840F480700A4908600846006800F44F
:1010B0008070009000BF00BF002211462D20FFF776
:1010C0006DFB2D20FFF75AFB38BD000000080040E3
:1010D0004038024000200040014691F83D000128C0
:1010E00001D001207047022081F83D000868C068E7
:1010F00040F001000B68D8601A4B086898421BD07A
:101100000868B0F1804F17D0174B0868984213D089
:10111000164B086898420FD0154B086898420BD0C0
:10112000144B0868984207D0134B0868984203D0C4
:10113000124B086898420CD10868806800F00702DA
:10114000062A0CD00868006840F001000B6818609F
:1011500005E00868006840F001000B681860002096
:10116000C0E700000000014000040040000800400B
:10117000000C004000040140004001400018004005
:1011800001460868C06820F001000A68D06000BF0E
:101190000868006A41F21112104050B90868006AEC
:1011A0009210104028B90868006820F001000A6811
:1011B000106000BF012081F83D00002070472DE93C
:1011C000F04104460D46002700BF94F83C0001287A
:1011D00002D10220BDE8F081012084F83C0000BF6C
:1011E000022084F83D002068866826F0770626F401
:1011F0007F46206886602868502833D00CDC202881
:1012000050D004DC00284BD0102851D149E03028C0
:1012100049D040284CD139E060282DD0702807D023
:10122000B0F5805F03D0B0F5005F41D10DE041E043
:10123000D5E902136A68206800F0A9FE2068866874
:1012400046F077062068866034E0D5E902136A68C4
:10125000206800F09CFE2068806840F4804021688F
:10126000886027E0EA686968206801F0DEF85021AC
:10127000206801F0D1F81DE0EA686968206801F093
:10128000E7F86021206801F0C7F813E0EA686968B0
:10129000206801F0CAF84021206801F0BDF809E09B
:1012A00000BF00BF00BF2968206801F0B5F801E069
:1012B000012700BF00BF012084F83D0000BF0020CF
:1012C00084F83C0000BF384684E72DE9F04104462D
:1012D0000D4614B90120BDE8F08194F83D0028B90D
:1012E000002084F83C00204600F054F8022084F8E6
:1012F0003D002068806844F20701884321688860C7
:10130000211D206800F0C6FD2068D0F80880206804
:1013100086692068076A286840EA080840F20330B6
:101320008643A969A86840EA0120064340F60C40BC
:1013300086434FF2F0008643E969E86840EA0120FD
:10134000064328690001296A40EA0130064327F074
:10135000220727F088076969686840EA0110074397
:101360002068C0F808802068866120680762012034
:1013700084F8460084F83E0001213F2001550120F9
:1013800084F8420043200155012084F83D000020EC
:10139000A1E7000010B586B00446142101A8FEF7AD
:1013A000DAFF6F492068884230D100BF00200090EA
:1013B0006C48006840F001006A490860084600680F
:1013C00000F00100009000BF00BF00BF00200090AF
:1013D00064481438006840F010006249143908600D
:1013E0000846006800F01000009000BF00BF4FF4F6
:1013F00020600190022002900020039004900120C0
:10140000059001A95848FFF72FF8A6E05749206832
:10141000884231D100BF002000905248001F006870
:1014200040F002004F49091F08600846006800F0BC
:101430000200009000BF00BF00BF0020009049489C
:101440001438006840F00100464914390860084625
:10145000006800F00100009000BF00BFC0200190B4
:10146000022002900020039004900220059001A920
:101470003F48FEF7F9FF70E03E492068884231D1CD
:1014800000BF002000903748001F006840F00800AF
:101490003449091F08600846006800F00800009001
:1014A00000BF00BF00BF002000902E481438006825
:1014B00040F001002B49143908600846006800F02C
:1014C0000100009000BF00BF0320019002200290A5
:1014D0000020039004900220059001A92448FEF703
:1014E000C3FF3AE024492068884236D100BF00207B
:1014F00000901C48006840F002001A490860084645
:10150000006800F00200009000BF00BF00BF002094
:10151000009014481438006840F004001149143950
:1015200008600846006800F00400009000BF00BF9B
:10153000C02001900220029000200390049003201C
:10154000059001A90D48FEF78FFF002211462D20BE
:10155000FFF724F92D20FFF711F906B010BD0000A8
:1015600000000140443802400010024000040040E6
:1015700000000240000C004000040140000802404E
:10158000704710B5044620680069C0F34000D8B128
:101590002068C068C0F34000B0B16FF0020021685D
:1015A0000861012020772068806900F0030018B1ED
:1015B0002046FFF7E5FF05E0204600F0DDF8204675
:1015C00000F091F90020207720680069C0F38000C6
:1015D000D8B12068C068C0F38000B0B16FF00400DB
:1015E00021680861022020772068806900F440703B
:1015F00018B12046FFF7C4FF05E0204600F0BCF814
:10160000204600F070F90020207720680069C0F3C0
:10161000C000D8B12068C068C0F3C000B0B16FF09E
:10162000080021680861042020772068C06900F064
:10163000030018B12046FFF7A3FF05E0204600F0A5
:101640009BF8204600F04FF90020207720680069C1
:10165000C0F30010D8B12068C068C0F30010B0B16A
:101660006FF0100021680861082020772068C069A9
:1016700000F4407018B12046FFF782FF05E02046D5
:1016800000F07AF8204600F02EF90020207720683C
:10169000006900F0010058B12068C06800F0010046
:1016A00030B16FF0010021680861204600F0A2F916
:1016B00020680069C0F3C01058B12068C068C0F34A
:1016C000C01030B16FF08000216808612046FFF73C
:1016D00039FC20680069C0F3801058B12068C068E8
:1016E000C0F3801030B16FF04000216808612046DF
:1016F00000F086F920680069C0F3401058B12068F6
:10170000C068C0F3401030B16FF02000216808615C
:101710002046FFF718FC10BD10B586B00446142112
:1017200001A8FEF718FE1149206888421CD100BFAD
:10173000002000900E48006840F008000C49086046
:101740000846006800F00800009000BF00BF881441
:101750000190022002900020039004900220059046
:1017600001A90448FEF780FE06B010BD0008004045
:1017700030380240000C024070472DE9F041044629
:101780000D461646002700BF94F83C00012802D100
:101790000220BDE8F081012084F83C0000BF36B192
:1017A000042E1BD0082E31D00C2E5ED145E02946E8
:1017B000206800F093FD2068806940F008002168EF
:1017C00088612068806920F00400216888612068B1
:1017D0008069296908432168886148E029462068B2
:1017E00000F0E0FB2068806940F4006021688861B7
:1017F0002068806920F480602168886120688069A1
:10180000296940EA01202168886130E02946206882
:1018100000F09CFD2068C06940F008002168C861A4
:101820002068C06920F004002168C8612068C06990
:10183000296908432168C86119E02946206800F039
:10184000C1FD2068C06940F400602168C86120685B
:10185000C06920F480602168C8612068C069296976
:1018600040EA01202168C86101E0012700BF00BFF4
:1018700000BF002084F83C0000BF384689E710B55F
:1018800004460CB9012010BD94F83D0028B9002091
:1018900084F83C00204600F025F8022084F83D0042
:1018A000211D206800F0F6FA012084F8460000BFF0
:1018B00084F83E0001213F20015540200155412080
:1018C000015500BF00BF012084F8420043200155AC
:1018D000442001554520015500BF012084F83D00FA
:1018E0000020D0E77047704770B504460D4615B923
:1018F00094F83E000BE0042D02D13F20005D06E08D
:10190000082D02D14020005D01E04120005D01284A
:1019100001D0012070BD1DB9022084F83E000EE008
:10192000042D03D102213F20015508E0082D03D1E9
:1019300002214020015502E00221412001550122EF
:101940002946206800F012FB23492068884203D012
:1019500022492068884201D1012000E0002028B1FE
:101960002068406C40F40040216848641A492068AF
:1019700088421BD02068B0F1804F17D018492068EA
:10198000884213D01749206888420FD01649206832
:1019900088420BD011492068884207D0134920683B
:1019A000884203D01249206888420CD120688068A0
:1019B00000F00706062E0CD02068006840F00100F9
:1019C0002168086005E02068006840F00100216897
:1019D000086000209EE70000000001400004014074
:1019E0000004004000080040000C0040004001409E
:1019F0000018004010B50446204600F013FB10BD4F
:101A0000704700BFFEE7000000B587B0142102A8B0
:101A1000FEF7A1FC00BF002001905948006840F08B
:101A20008000574908600846006800F08000019077
:101A300000BF00BF00BF002001900846006840F0D2
:101A4000010008600846006800F00100019000BF36
:101A500000BF00BF002001900846006840F0200051
:101A600008600846006800F02000019000BF00BF39
:101A700000BF002001900846006840F04000086068
:101A80000846006800F04000019000BF00BF00BFA2
:101A9000002001900846006840F0100008600846E9
:101AA000006800F01000019000BF00BF00BF0020E0
:101AB00001900846006840F002000860084600688F
:101AC00000F00200019000BF00BF00BF00200190A5
:101AD0000846006840F0080008600846006800F00A
:101AE0000800019000BF00BF00BF00200190084621
:101AF000006840F0040008600846006800F0040038
:101B0000019000BF00BF01224FF428411D48FEF79D
:101B1000ADFD00224FF480411A48FEF7A7FD0022D8
:101B200001211948FEF7A2FD4FF468400290012000
:101B3000039000200490059002A91248FEF794FC3F
:101B400001200290039000200490059002A90E4805
:101B5000FEF78AFC4FF4404002904FF48810039047
:101B60000220049002A90948FEF77EFC00221146DB
:101B70002820FEF713FE2820FEF700FE07B000BD68
:101B800030380240001402400018024000040240B5
:101B900010B5094809490860A72048600021074896
:101BA00081606321C160002101618161FFF726FA34
:101BB00008B1FEF741FC10BD00200040B00100203C
:101BC00000B58BB0242102A8FEF7C5FB00200090D1
:101BD0000190184818490860002048600021164804
:101BE00081604FF6FF71C160002101614161816137
:101BF0000120029000200390012004900020059015
:101C00000690079001200890002009900A9002A9F0
:101C10000948FFF75AFB08B1FEF70EFC00200090C0
:101C2000019069460448FFF78FF908B1FEF704FCFC
:101C30000BB000BD000001404800002000B58BB093
:101C4000242102A8FEF787FB00200090019018488D
:101C500018490860002048600021164881604FF64E
:101C6000FF71C160002101618161012002900020AB
:101C70000390012004900020059006900790012019
:101C80000890002009900A9002A90A48FFF71DFB5E
:101C900008B1FEF7D1FB002000900190694605488D
:101CA000FFF752F908B1FEF7C7FB0BB000BD00000B
:101CB000000400409000002000B58DB00020099085
:101CC0000A900B900C90079008901C216846FEF734
:101CD00042FB204820490860A720486000211E4898
:101CE000816040F2CF71C16000210161802181617A
:101CF000FFF784F908B1FEF79FFB4FF4805009907D
:101D000009A91548FFF75BFA08B1FEF795FB1248E1
:101D1000FFF7B5FD08B1FEF78FFB00200790089094
:101D200007A90D48FFF710F908B1FEF785FB602001
:101D3000009000200190029004900022694606481D
:101D4000FFF71BFD08B1FEF777FB0348FFF7E4FC44
:101D50000DB000BD00080040D800002000B58BB0D9
:101D6000242102A8FEF7F7FA0020009001901748FE
:101D70001749086000204860002115488160491E0D
:101D8000C160002101618161012002900020039067
:101D900001200490002005900690079001200890F3
:101DA000002009900A9002A90948FFF78EFA08B1AD
:101DB000FEF742FB00200090019069460448FFF7BF
:101DC000C3F808B1FEF738FB0BB000BD000C0040B3
:101DD0002001002000B58BB0242102A8FEF7BBFA39
:101DE00000200090019018481849086000204860C1
:101DF0000021164881604FF6FF71C160002101612A
:101E00004161816101200290002003900120049033
:101E1000002005900690079001200890002009906E
:101E20000A9002A90948FFF750FA08B1FEF704FB2F
:101E300000200090019069460448FFF785F808B13A
:101E4000FEF7FAFA0BB000BD000401406801002063
:101E500000BFFEE700BFFEE770477047704710B550
:101E6000FEF710FC10BD00000348006840F470004D
:101E7000014908607047000088ED00E010B5034894
:101E8000FFF77FFB0248FFF77CFB10BD68010020D5
:101E9000B001002010B50268294B98420ED0B0F175
:101EA000804F0BD0274B984208D0274B984205D043
:101EB000264B984202D0264B984203D122F0700262
:101EC0004B681A431E4B984220D0B0F1804F1DD072
:101ED0001C4B98421AD01C4B984217D01B4B98426F
:101EE00014D01B4B984211D01A4B98420ED01A4B6B
:101EF00098420BD0194B984208D0194B984205D004
:101F0000184B984202D0184B984203D122F44072E9
:101F1000CB681A4322F080034C6943EA0402026052
:101F20008B68C3620B688362054B984202D0084BF2
:101F3000984201D10B6903630123436110BD000086
:101F4000000001400004004000080040000C004078
:101F500000040140004001400044014000480140AD
:101F600000180040001C00400020004030B501F087
:101F70001F05012404FA05F3046A9C430462046A01
:101F800001F01F0502FA05F52C43046230BD30B59F
:101F90000C46816821F47F4142EA03252543294309
:101FA000816030BD30B5056A25F010050562026A12
:101FB0004368846924F4E04424F440740D6844EADE
:101FC000052422F020028D6842EA0512124DA84233
:101FD00000D103E0114DA84207D100BF22F08002DA
:101FE000CD6842EA051222F040020B4DA84202D011
:101FF0000A4DA84209D123F4806323F400634D699C
:1020000043EA85038D6943EA8503436084614D6833
:102010008563026230BD0000000001400004014001
:1020200000BFFEE710B504461448844200D010BD3E
:1020300013480068401C12490860124800680A28CA
:1020400013DA11480F49096850F821000C49096852
:1020500088420AD10B480068401C00F017F8094874
:102060000068401C0749086006E0064800680A2826
:1020700002D10248FFF784F800BFD8E7B001002082
:1020800014000020180000201C00002010B501469C
:10209000012901DB0F2900DD10BD4FF47A7292FB9C
:1020A000F1F000BF074A1268D062064AD06000BF54
:1020B000024600EBD2735B10024C2468636300BFDE
:1020C000EAE70000D800002000B593B0302107A84F
:1020D000FEF741F9142102A8FEF73DF900BF0020E8
:1020E00001902548006840F0805023490860084668
:1020F000006800F08050019000BF00BF00BF0020CA
:1021000001901E48006840F480401C490860084661
:10211000006800F48040019000BF00BF02200790DB
:1021200001200A9010200B9002200D9000210E91AA
:1021300008210F91A82110910221119104211291DF
:1021400007A8FEF797FC08B1FEF776F90F2002907A
:1021500002200390002004904FF4A05005904FF40B
:1021600080500690052102A8FEF76AFB08B1FEF731
:1021700063F913B000BD0000403802400070004019
:1021800010B501210B48FEF769FA012800D110BDF6
:102190000948FEF7A1FF00200849086008490860C7
:1021A0000120FFF773FF012211460248FEF75EFA95
:1021B00000BFECE700180240B0010020140000202E
:1021C0001800002010B5012251031448FEF74EFA02
:1021D0000122D1021148FEF749FA0122D1030F482A
:1021E000FEF744FA012000F02FF8002201210C48EC
:1021F000FEF73CFA0120FFF749FF00210948FFF7ED
:1022000073FB4FF400410848FEF728FA20B900207C
:1022100000F01AF8FFF7B4FF10BD000000140240F0
:1022200000180240D80000200004024010B54FF40E
:1022300080410448FEF712FA08B9012010BD0020C1
:10224000FCE700000014024010B50446012C05D143
:10225000002281030448FEF709FA04E001229103F9
:102260000148FEF703FA10BD0014024010B5044601
:10227000B4F5804F03D0B4F5004F27D113E04FF4ED
:1022800080411448FEF7EAF901280BD1FFF7CEFF91
:10229000012807D1002201210F48FEF7E7F90020AD
:1022A000FFF7D2FF13E04FF400410A48FEF7D6F9DA
:1022B00001280AD1FFF7BAFF38B9002201210648E8
:1022C000FEF7D4F90120FFF7BFFF00E000BF00BF19
:1022D00010BD0000000402400018024030B5056A3D
:1022E00025F001050562026A4368846924F07004E0
:1022F00024F003040D682C4322F002028D682A4367
:10230000104DA84200D103E00F4DA84206D100BFF6
:1023100022F00802CD682A4322F00402094DA842A7
:1023200002D0094DA84207D123F4807323F400732F
:102330004D692B438D692B43436084614D68456330
:10234000026230BD000001400004014030B5056A62
:1023500025F480750562026A4368C46924F070043C
:1023600024F003040D682C4322F400728D6842EAC5
:102370000522124DA84200D103E0114DA84207D119
:1023800000BF22F40062CD6842EA052222F4806296
:102390000A4DA84202D00A4DA84209D123F4805325
:1023A00023F400534D6943EA05138D6943EA05138D
:1023B0004360C4614D68C563026230BD00000140E6
:1023C0000004014030B5056A25F480550562036AB2
:1023D0004468C26922F4E04222F440720D6842EA85
:1023E000052223F400538D6843EA0533084DA842C3
:1023F00002D0084DA84204D124F480444D6944EA37
:1024000085144460C2614D680564036230BD0000FC
:1024100000000140000401400A46816821F070017B
:1024200042F0070319438160704730B50B461446EC
:10243000026A056A25F001050562816921F0F00153
:1024400041EA041122F00A021A438161026230BD9E
:1024500030B50B461446056A25F010050562816902
:10246000026A21F4704141EA043122F0A00242EAFA
:1024700003128161026230BD10B5002804DB0A0737
:10248000130E054A135406E00A07140E034A00F01F
:102490000F031B1FD45410BD00E400E018ED00E052
:1024A00002480068C0F30220704700000CED00E015
:1024B000FEF7F4F8FFF708FEFFF7A6FAFFF7FCFBBC
:1024C000FFF77EFBFFF7BAFBFFF748FCFFF782FC44
:1024D000FFF75EFBFFF776FE0BE006480068401C46
:1024E00004490860084600680349884201D1FFF7A3
:1024F00047FEF2E70000002040420F004FF040701E
:10250000E1EE100A70470000000000000000010228
:10251000030406070809000000000102030400008C
:10252000402500080000002048000000C401000809
:10253000882500084800002010080000E00100087D
:10254000000000000000000010000000010000007A
:102550000024F40000000000000000000A00000059
:10256000140000001E0000002800000032000000DF
:102570003C00000046000000500000005A0000002F
:08258000640000006E00000081
:040000050800018965
:00000001FF
